{
  "contractName": "RazeBase",
  "abi": [
    {
      "inputs": [
        {
          "internalType": "address",
          "name": "_transfer",
          "type": "address"
        },
        {
          "internalType": "address",
          "name": "_redeem",
          "type": "address"
        },
        {
          "internalType": "uint256",
          "name": "_unit",
          "type": "uint256"
        }
      ],
      "stateMutability": "nonpayable",
      "type": "constructor"
    },
    {
      "anonymous": false,
      "inputs": [
        {
          "indexed": false,
          "internalType": "string",
          "name": "label",
          "type": "string"
        },
        {
          "indexed": true,
          "internalType": "uint256",
          "name": "value",
          "type": "uint256"
        }
      ],
      "name": "LogUint256",
      "type": "event"
    },
    {
      "anonymous": false,
      "inputs": [
        {
          "components": [
            {
              "internalType": "bytes32",
              "name": "x",
              "type": "bytes32"
            },
            {
              "internalType": "bytes32",
              "name": "y",
              "type": "bytes32"
            }
          ],
          "indexed": false,
          "internalType": "struct Utils.G1Point[]",
          "name": "parties",
          "type": "tuple[]"
        }
      ],
      "name": "TransferOccurred",
      "type": "event"
    },
    {
      "inputs": [],
      "name": "MAX",
      "outputs": [
        {
          "internalType": "uint256",
          "name": "",
          "type": "uint256"
        }
      ],
      "stateMutability": "view",
      "type": "function"
    },
    {
      "inputs": [],
      "name": "balance_log",
      "outputs": [
        {
          "internalType": "uint256",
          "name": "",
          "type": "uint256"
        }
      ],
      "stateMutability": "view",
      "type": "function"
    },
    {
      "inputs": [],
      "name": "deposits_log",
      "outputs": [
        {
          "internalType": "uint256",
          "name": "",
          "type": "uint256"
        }
      ],
      "stateMutability": "view",
      "type": "function"
    },
    {
      "inputs": [],
      "name": "last_global_update",
      "outputs": [
        {
          "internalType": "uint256",
          "name": "",
          "type": "uint256"
        }
      ],
      "stateMutability": "view",
      "type": "function"
    },
    {
      "inputs": [
        {
          "internalType": "bytes32",
          "name": "",
          "type": "bytes32"
        }
      ],
      "name": "last_roll_over",
      "outputs": [
        {
          "internalType": "uint256",
          "name": "",
          "type": "uint256"
        }
      ],
      "stateMutability": "view",
      "type": "function"
    },
    {
      "inputs": [],
      "name": "mint_count_log",
      "outputs": [
        {
          "internalType": "uint256",
          "name": "",
          "type": "uint256"
        }
      ],
      "stateMutability": "view",
      "type": "function"
    },
    {
      "inputs": [],
      "name": "raze_agency",
      "outputs": [
        {
          "internalType": "address payable",
          "name": "",
          "type": "address"
        }
      ],
      "stateMutability": "view",
      "type": "function"
    },
    {
      "inputs": [],
      "name": "redeem_fee_denominator",
      "outputs": [
        {
          "internalType": "uint256",
          "name": "",
          "type": "uint256"
        }
      ],
      "stateMutability": "view",
      "type": "function"
    },
    {
      "inputs": [],
      "name": "redeem_fee_log",
      "outputs": [
        {
          "internalType": "uint256",
          "name": "",
          "type": "uint256"
        }
      ],
      "stateMutability": "view",
      "type": "function"
    },
    {
      "inputs": [],
      "name": "redeem_fee_numerator",
      "outputs": [
        {
          "internalType": "uint256",
          "name": "",
          "type": "uint256"
        }
      ],
      "stateMutability": "view",
      "type": "function"
    },
    {
      "inputs": [],
      "name": "round_base",
      "outputs": [
        {
          "internalType": "uint256",
          "name": "",
          "type": "uint256"
        }
      ],
      "stateMutability": "view",
      "type": "function"
    },
    {
      "inputs": [],
      "name": "round_len",
      "outputs": [
        {
          "internalType": "uint256",
          "name": "",
          "type": "uint256"
        }
      ],
      "stateMutability": "view",
      "type": "function"
    },
    {
      "inputs": [],
      "name": "transfer_fee_denominator",
      "outputs": [
        {
          "internalType": "uint256",
          "name": "",
          "type": "uint256"
        }
      ],
      "stateMutability": "view",
      "type": "function"
    },
    {
      "inputs": [],
      "name": "transfer_fee_log",
      "outputs": [
        {
          "internalType": "uint256",
          "name": "",
          "type": "uint256"
        }
      ],
      "stateMutability": "view",
      "type": "function"
    },
    {
      "inputs": [],
      "name": "transfer_fee_numerator",
      "outputs": [
        {
          "internalType": "uint256",
          "name": "",
          "type": "uint256"
        }
      ],
      "stateMutability": "view",
      "type": "function"
    },
    {
      "inputs": [],
      "name": "unit",
      "outputs": [
        {
          "internalType": "uint256",
          "name": "",
          "type": "uint256"
        }
      ],
      "stateMutability": "view",
      "type": "function"
    },
    {
      "inputs": [],
      "name": "users_log",
      "outputs": [
        {
          "internalType": "uint256",
          "name": "",
          "type": "uint256"
        }
      ],
      "stateMutability": "view",
      "type": "function"
    },
    {
      "inputs": [
        {
          "internalType": "uint256",
          "name": "numerator",
          "type": "uint256"
        },
        {
          "internalType": "uint256",
          "name": "denominator",
          "type": "uint256"
        }
      ],
      "name": "setRedeemFeeStrategy",
      "outputs": [],
      "stateMutability": "nonpayable",
      "type": "function"
    },
    {
      "inputs": [
        {
          "internalType": "uint256",
          "name": "numerator",
          "type": "uint256"
        },
        {
          "internalType": "uint256",
          "name": "denominator",
          "type": "uint256"
        }
      ],
      "name": "setTransferFeeStrategy",
      "outputs": [],
      "stateMutability": "nonpayable",
      "type": "function"
    },
    {
      "inputs": [
        {
          "internalType": "uint256",
          "name": "_round_base",
          "type": "uint256"
        }
      ],
      "name": "setRoundBase",
      "outputs": [],
      "stateMutability": "nonpayable",
      "type": "function"
    },
    {
      "inputs": [
        {
          "internalType": "uint256",
          "name": "_round_len",
          "type": "uint256"
        }
      ],
      "name": "setRoundLen",
      "outputs": [],
      "stateMutability": "nonpayable",
      "type": "function"
    },
    {
      "inputs": [
        {
          "internalType": "uint256",
          "name": "_unit",
          "type": "uint256"
        }
      ],
      "name": "setUnit",
      "outputs": [],
      "stateMutability": "nonpayable",
      "type": "function"
    },
    {
      "inputs": [
        {
          "internalType": "address payable",
          "name": "_raze_agency",
          "type": "address"
        }
      ],
      "name": "setRazeAgency",
      "outputs": [],
      "stateMutability": "nonpayable",
      "type": "function"
    },
    {
      "inputs": [
        {
          "components": [
            {
              "internalType": "bytes32",
              "name": "x",
              "type": "bytes32"
            },
            {
              "internalType": "bytes32",
              "name": "y",
              "type": "bytes32"
            }
          ],
          "internalType": "struct Utils.G1Point",
          "name": "y",
          "type": "tuple"
        },
        {
          "internalType": "uint256",
          "name": "c",
          "type": "uint256"
        },
        {
          "internalType": "uint256",
          "name": "s",
          "type": "uint256"
        }
      ],
      "name": "register",
      "outputs": [],
      "stateMutability": "nonpayable",
      "type": "function"
    },
    {
      "inputs": [
        {
          "internalType": "bytes32",
          "name": "yHash",
          "type": "bytes32"
        }
      ],
      "name": "registered",
      "outputs": [
        {
          "internalType": "bool",
          "name": "",
          "type": "bool"
        }
      ],
      "stateMutability": "view",
      "type": "function"
    },
    {
      "inputs": [
        {
          "components": [
            {
              "internalType": "bytes32",
              "name": "x",
              "type": "bytes32"
            },
            {
              "internalType": "bytes32",
              "name": "y",
              "type": "bytes32"
            }
          ],
          "internalType": "struct Utils.G1Point[]",
          "name": "y",
          "type": "tuple[]"
        },
        {
          "internalType": "uint256",
          "name": "round",
          "type": "uint256"
        }
      ],
      "name": "getBalance",
      "outputs": [
        {
          "components": [
            {
              "internalType": "bytes32",
              "name": "x",
              "type": "bytes32"
            },
            {
              "internalType": "bytes32",
              "name": "y",
              "type": "bytes32"
            }
          ],
          "internalType": "struct Utils.G1Point[2][]",
          "name": "accounts",
          "type": "tuple[2][]"
        }
      ],
      "stateMutability": "view",
      "type": "function"
    },
    {
      "inputs": [
        {
          "components": [
            {
              "internalType": "bytes32",
              "name": "x",
              "type": "bytes32"
            },
            {
              "internalType": "bytes32",
              "name": "y",
              "type": "bytes32"
            }
          ],
          "internalType": "struct Utils.G1Point",
          "name": "y",
          "type": "tuple"
        }
      ],
      "name": "getAccountState",
      "outputs": [
        {
          "components": [
            {
              "internalType": "bytes32",
              "name": "x",
              "type": "bytes32"
            },
            {
              "internalType": "bytes32",
              "name": "y",
              "type": "bytes32"
            }
          ],
          "internalType": "struct Utils.G1Point[2]",
          "name": "y_available",
          "type": "tuple[2]"
        },
        {
          "components": [
            {
              "internalType": "bytes32",
              "name": "x",
              "type": "bytes32"
            },
            {
              "internalType": "bytes32",
              "name": "y",
              "type": "bytes32"
            }
          ],
          "internalType": "struct Utils.G1Point[2]",
          "name": "y_pending",
          "type": "tuple[2]"
        }
      ],
      "stateMutability": "view",
      "type": "function"
    },
    {
      "inputs": [
        {
          "components": [
            {
              "internalType": "bytes32",
              "name": "x",
              "type": "bytes32"
            },
            {
              "internalType": "bytes32",
              "name": "y",
              "type": "bytes32"
            }
          ],
          "internalType": "struct Utils.G1Point",
          "name": "y",
          "type": "tuple"
        }
      ],
      "name": "getGuess",
      "outputs": [
        {
          "internalType": "bytes",
          "name": "y_guess",
          "type": "bytes"
        }
      ],
      "stateMutability": "view",
      "type": "function"
    },
    {
      "inputs": [
        {
          "components": [
            {
              "internalType": "bytes32",
              "name": "x",
              "type": "bytes32"
            },
            {
              "internalType": "bytes32",
              "name": "y",
              "type": "bytes32"
            }
          ],
          "internalType": "struct Utils.G1Point[]",
          "name": "C",
          "type": "tuple[]"
        },
        {
          "components": [
            {
              "internalType": "bytes32",
              "name": "x",
              "type": "bytes32"
            },
            {
              "internalType": "bytes32",
              "name": "y",
              "type": "bytes32"
            }
          ],
          "internalType": "struct Utils.G1Point",
          "name": "D",
          "type": "tuple"
        },
        {
          "components": [
            {
              "internalType": "bytes32",
              "name": "x",
              "type": "bytes32"
            },
            {
              "internalType": "bytes32",
              "name": "y",
              "type": "bytes32"
            }
          ],
          "internalType": "struct Utils.G1Point[]",
          "name": "y",
          "type": "tuple[]"
        },
        {
          "components": [
            {
              "internalType": "bytes32",
              "name": "x",
              "type": "bytes32"
            },
            {
              "internalType": "bytes32",
              "name": "y",
              "type": "bytes32"
            }
          ],
          "internalType": "struct Utils.G1Point",
          "name": "u",
          "type": "tuple"
        },
        {
          "internalType": "bytes",
          "name": "proof",
          "type": "bytes"
        }
      ],
      "name": "transfer",
      "outputs": [],
      "stateMutability": "payable",
      "type": "function"
    }
  ],
  "bytecode": "0x60806040526018600155600060025560016004556064600555600160065560056007556000600a556000600b556000600c556000600d556000600e556000600f5560006014553480156200005257600080fd5b50604051620043a2380380620043a2833981810160405281019062000078919062000179565b33600360006101000a81548173ffffffffffffffffffffffffffffffffffffffff021916908373ffffffffffffffffffffffffffffffffffffffff16021790555082600860006101000a81548173ffffffffffffffffffffffffffffffffffffffff021916908373ffffffffffffffffffffffffffffffffffffffff16021790555081600960006101000a81548173ffffffffffffffffffffffffffffffffffffffff021916908373ffffffffffffffffffffffffffffffffffffffff1602179055508060008190555050505062000241565b6000815190506200015c816200020d565b92915050565b600081519050620001738162000227565b92915050565b6000806000606084860312156200018f57600080fd5b60006200019f868287016200014b565b9350506020620001b2868287016200014b565b9250506040620001c58682870162000162565b9150509250925092565b6000620001dc82620001e3565b9050919050565b600073ffffffffffffffffffffffffffffffffffffffff82169050919050565b6000819050919050565b6200021881620001cf565b81146200022457600080fd5b50565b620002328162000203565b81146200023e57600080fd5b50565b61415180620002516000396000f3fe6080604052600436106101c25760003560e01c80638ad747e0116100f7578063b5753dee11610095578063dcfa1e5d11610064578063dcfa1e5d14610649578063ddf911da14610674578063eff4d1781461069f578063f487e952146106bb576101c2565b8063b5753dee1461059f578063d11fa8c0146105ca578063d49d5181146105f3578063d90d3a581461061e576101c2565b8063a568ce51116100d1578063a568ce51146104d0578063a9b05a561461050e578063aae078901461054b578063b47e51d714610574576101c2565b80638ad747e014610451578063907af6c01461047c5780639b0d85d3146104a7576101c2565b806363bb012c11610164578063767b7d851161013e578063767b7d85146103a95780637715a74c146103d25780637b5b3b9f146103fd57806384f9b07a14610426576101c2565b806363bb012c1461032a5780637207f20e1461035557806375236e3f1461037e576101c2565b80634301a344116101a05780634301a3441461025a5780635524d54814610297578063566a8e62146102d457806362c4d3a3146102ff576101c2565b80630221c717146101c757806327d084e7146101f2578063281111201461022f575b600080fd5b3480156101d357600080fd5b506101dc6106e4565b6040516101e99190613e01565b60405180910390f35b3480156101fe57600080fd5b5061021960048036038101906102149190612c46565b6106ea565b6040516102269190613ab8565b60405180910390f35b34801561023b57600080fd5b50610244610997565b6040516102519190613e01565b60405180910390f35b34801561026657600080fd5b50610281600480360381019061027c9190612cc3565b61099d565b60405161028e9190613e01565b60405180910390f35b3480156102a357600080fd5b506102be60048036038101906102b99190612cc3565b6109b5565b6040516102cb9190613bb2565b60405180910390f35b3480156102e057600080fd5b506102e9610bc3565b6040516102f69190613e01565b60405180910390f35b34801561030b57600080fd5b50610314610bc9565b6040516103219190613e01565b60405180910390f35b34801561033657600080fd5b5061033f610bcf565b60405161034c9190613e01565b60405180910390f35b34801561036157600080fd5b5061037c60048036038101906103779190612e0f565b610bd5565b005b34801561038a57600080fd5b50610393610c77565b6040516103a09190613e01565b60405180910390f35b3480156103b557600080fd5b506103d060048036038101906103cb9190612de6565b610c7d565b005b3480156103de57600080fd5b506103e7610d17565b6040516103f49190613a66565b60405180910390f35b34801561040957600080fd5b50610424600480360381019061041f9190612de6565b610d3d565b005b34801561043257600080fd5b5061043b610dd7565b6040516104489190613e01565b60405180910390f35b34801561045d57600080fd5b50610466610ddd565b6040516104739190613e01565b60405180910390f35b34801561048857600080fd5b50610491610de3565b60405161049e9190613e01565b60405180910390f35b3480156104b357600080fd5b506104ce60048036038101906104c99190612d15565b610de9565b005b3480156104dc57600080fd5b506104f760048036038101906104f29190612cec565b610fba565b604051610505929190613ada565b60405180910390f35b34801561051a57600080fd5b5061053560048036038101906105309190612cec565b6110d3565b6040516105429190613bcd565b60405180910390f35b34801561055757600080fd5b50610572600480360381019061056d9190612de6565b6111b4565b005b34801561058057600080fd5b5061058961124e565b6040516105969190613e01565b60405180910390f35b3480156105ab57600080fd5b506105b4611254565b6040516105c19190613e01565b60405180910390f35b3480156105d657600080fd5b506105f160048036038101906105ec9190612b5e565b61125a565b005b3480156105ff57600080fd5b5061060861132e565b6040516106159190613e01565b60405180910390f35b34801561062a57600080fd5b50610633611336565b6040516106409190613e01565b60405180910390f35b34801561065557600080fd5b5061065e61133c565b60405161066b9190613e01565b60405180910390f35b34801561068057600080fd5b50610689611342565b6040516106969190613e01565b60405180910390f35b6106b960048036038101906106b49190612b87565b611348565b005b3480156106c757600080fd5b506106e260048036038101906106dd9190612e0f565b611bcc565b005b60015481565b60606000835190508067ffffffffffffffff8111801561070957600080fd5b5060405190808252806020026020018201604052801561074357816020015b6107306120de565b8152602001906001900390816107285790505b50915060005b8181101561098f57600085828151811061075f57fe5b60200260200101516040516020016107779190613daf565b60405160208183030381529060405280519060200120905060106000828152602001908152602001600020600280602002604051908101604052809291906000905b828210156107f55783826002020160405180604001604052908160008201548152602001600182015481525050815260200190600101906107b9565b5050505084838151811061080557fe5b60200260200101819052508460126000838152602001908152602001600020541015610981576108336120de565b60116000838152602001908152602001600020600280602002604051908101604052809291906000905b8282101561089957838260020201604051806040016040529081600082015481526020016001820154815250508152602001906001019061085d565b5050505090506108e7816000600281106108af57fe5b60200201518685815181106108c057fe5b60200260200101516000600281106108d457fe5b6020020151611c6e90919063ffffffff16565b8584815181106108f357fe5b602002602001015160006002811061090757fe5b60200201819052506109578160016002811061091f57fe5b602002015186858151811061093057fe5b602002602001015160016002811061094457fe5b6020020151611c6e90919063ffffffff16565b85848151811061096357fe5b602002602001015160016002811061097757fe5b6020020181905250505b508080600101915050610749565b505092915050565b600f5481565b60126020528060005260406000206000915090505481565b60006109bf61210b565b60405180604001604052806000801b81526020016000801b81525090506109e461212b565b604051806040016040528060106000878152602001908152602001600020600280602002604051908101604052809291906000905b82821015610a55578382600202016040518060400160405290816000820154815260200160018201548152505081526020019060010190610a19565b50505050815260200160116000878152602001908152602001600020600280602002604051908101604052809291906000905b82821015610ac4578382600202016040518060400160405290816000820154815260200160018201548152505081526020019060010190610a88565b505050508152509050610b028282600060028110610ade57fe5b6020020151600060028110610aef57fe5b6020020151611cb290919063ffffffff16565b8015610b3f5750610b3e8282600060028110610b1a57fe5b6020020151600160028110610b2b57fe5b6020020151611cb290919063ffffffff16565b5b8015610b7c5750610b7b8282600160028110610b5757fe5b6020020151600060028110610b6857fe5b6020020151611cb290919063ffffffff16565b5b8015610bb95750610bb88282600160028110610b9457fe5b6020020151600160028110610ba557fe5b6020020151611cb290919063ffffffff16565b5b1592505050919050565b60145481565b600e5481565b600a5481565b600360009054906101000a900473ffffffffffffffffffffffffffffffffffffffff1673ffffffffffffffffffffffffffffffffffffffff163373ffffffffffffffffffffffffffffffffffffffff1614610c65576040517f08c379a0000000000000000000000000000000000000000000000000000000008152600401610c5c90613d0f565b60405180910390fd5b81600681905550806007819055505050565b600d5481565b600360009054906101000a900473ffffffffffffffffffffffffffffffffffffffff1673ffffffffffffffffffffffffffffffffffffffff163373ffffffffffffffffffffffffffffffffffffffff1614610d0d576040517f08c379a0000000000000000000000000000000000000000000000000000000008152600401610d0490613d6f565b60405180910390fd5b8060018190555050565b600360009054906101000a900473ffffffffffffffffffffffffffffffffffffffff1681565b600360009054906101000a900473ffffffffffffffffffffffffffffffffffffffff1673ffffffffffffffffffffffffffffffffffffffff163373ffffffffffffffffffffffffffffffffffffffff1614610dcd576040517f08c379a0000000000000000000000000000000000000000000000000000000008152600401610dc490613c2f565b60405180910390fd5b8060028190555050565b600b5481565b60025481565b60005481565b610df161210b565b610e37610e0f610e0085611cda565b86611d0690919063ffffffff16565b610e2984610e1b611d3f565b611d0690919063ffffffff16565b611c6e90919063ffffffff16565b90506000610e71308684604051602001610e5393929190613a81565b6040516020818303038152906040528051906020012060001c611da7565b9050838114610eb5576040517f08c379a0000000000000000000000000000000000000000000000000000000008152600401610eac90613ccf565b60405180910390fd5b600085604051602001610ec89190613daf565b604051602081830303815290604052805190602001209050610ee9816109b5565b15610f29576040517f08c379a0000000000000000000000000000000000000000000000000000000008152600401610f2090613c6f565b60405180910390fd5b8560116000838152602001908152602001600020600060028110610f4957fe5b600202016000820151816000015560208201518160010155905050610f6c611d3f565b60116000838152602001908152602001600020600160028110610f8b57fe5b6002020160008201518160000155602082015181600101559050506001600b5401600b81905550505050505050565b610fc26120de565b610fca6120de565b600083604051602001610fdd9190613daf565b60405160208183030381529060405280519060200120905060106000828152602001908152602001600020600280602002604051908101604052809291906000905b8282101561105b57838260020201604051806040016040529081600082015481526020016001820154815250508152602001906001019061101f565b50505050925060116000828152602001908152602001600020600280602002604051908101604052809291906000905b828210156110c757838260020201604051806040016040529081600082015481526020016001820154815250508152602001906001019061108b565b50505050915050915091565b60606000826040516020016110e89190613daf565b604051602081830303815290604052805190602001209050601560008281526020019081526020016000208054600181600116156101000203166002900480601f0160208091040260200160405190810160405280929190818152602001828054600181600116156101000203166002900480156111a75780601f1061117c576101008083540402835291602001916111a7565b820191906000526020600020905b81548152906001019060200180831161118a57829003601f168201915b5050505050915050919050565b600360009054906101000a900473ffffffffffffffffffffffffffffffffffffffff1673ffffffffffffffffffffffffffffffffffffffff163373ffffffffffffffffffffffffffffffffffffffff1614611244576040517f08c379a000000000000000000000000000000000000000000000000000000000815260040161123b90613cef565b60405180910390fd5b8060008190555050565b600c5481565b60075481565b600360009054906101000a900473ffffffffffffffffffffffffffffffffffffffff1673ffffffffffffffffffffffffffffffffffffffff163373ffffffffffffffffffffffffffffffffffffffff16146112ea576040517f08c379a00000000000000000000000000000000000000000000000000000000081526004016112e190613c4f565b60405180910390fd5b80600360006101000a81548173ffffffffffffffffffffffffffffffffffffffff021916908373ffffffffffffffffffffffffffffffffffffffff16021790555050565b63ffffffff81565b60065481565b60055481565b60045481565b60005a905060008451905060608167ffffffffffffffff8111801561136c57600080fd5b506040519080825280602002602001820160405280156113a657816020015b61139361210b565b81526020019060019003908161138b5790505b50905060608267ffffffffffffffff811180156113c257600080fd5b506040519080825280602002602001820160405280156113fc57816020015b6113e961210b565b8152602001906001900390816113e15790505b50905082895114611442576040517f08c379a000000000000000000000000000000000000000000000000000000000815260040161143990613bef565b60405180910390fd5b60005b8381101561172357600088828151811061145b57fe5b60200260200101516040516020016114739190613daf565b604051602081830303815290604052805190602001209050611494816109b5565b6114d3576040517f08c379a00000000000000000000000000000000000000000000000000000000081526004016114ca90613caf565b60405180910390fd5b6114dc81611dda565b6114e46120de565b60116000838152602001908152602001600020600280602002604051908101604052809291906000905b8282101561154a57838260020201604051806040016040529081600082015481526020016001820154815250508152602001906001019061150e565b5050505090506115878c848151811061155f57fe5b60200260200101518260006002811061157457fe5b6020020151611c6e90919063ffffffff16565b601160008481526020019081526020016000206000600281106115a657fe5b6002020160008201518160000155602082015181600101559050506115e58b826001600281106115d257fe5b6020020151611c6e90919063ffffffff16565b6011600084815260200190815260200160002060016002811061160457fe5b60020201600082015181600001556020820151816001015590505060106000838152602001908152602001600020600280602002604051908101604052809291906000905b82821015611685578382600202016040518060400160405290816000820154815260200160018201548152505081526020019060010190611649565b5050505090506116c28c848151811061169a57fe5b6020026020010151826000600281106116af57fe5b6020020151611c6e90919063ffffffff16565b8584815181106116ce57fe5b60200260200101819052506116fd8b826001600281106116ea57fe5b6020020151611c6e90919063ffffffff16565b84848151811061170957fe5b602002602001018190525050508080600101915050611445565b506000866040516020016117379190613daf565b60405160208183030381529060405280519060200120905060005b6013805490508110156117c657816013828154811061176d57fe5b906000526020600020015414156117b9576040517f08c379a00000000000000000000000000000000000000000000000000000000081526004016117b090613d8f565b60405180910390fd5b8080600101915050611752565b5060138190806001815401808255809150506001900390600052602060002001600090919091909150556117f8612158565b600860009054906101000a900473ffffffffffffffffffffffffffffffffffffffff1673ffffffffffffffffffffffffffffffffffffffff16639471ac0a85858e8e8e6014548f6040518863ffffffff1660e01b81526004016118619796959493929190613b26565b60006040518083038186803b15801561187957600080fd5b505afa15801561188d573d6000803e3d6000fd5b505050506040513d6000823e3d601f19601f820116820180604052508101906118b69190612da5565b90506118c06121a1565b600860009054906101000a900473ffffffffffffffffffffffffffffffffffffffff1673ffffffffffffffffffffffffffffffffffffffff1663f98f0cc9896040518263ffffffff1660e01b815260040161191b9190613bcd565b60006040518083038186803b15801561193357600080fd5b505afa158015611947573d6000803e3d6000fd5b505050506040513d6000823e3d601f19601f820116820180604052508101906119709190612d64565b9050600860009054906101000a900473ffffffffffffffffffffffffffffffffffffffff1673ffffffffffffffffffffffffffffffffffffffff1663a529878e83836040518363ffffffff1660e01b81526004016119cf929190613dca565b60206040518083038186803b1580156119e757600080fd5b505afa1580156119fb573d6000803e3d6000fd5b505050506040513d601f19601f82011682018060405250810190611a1f9190612c9a565b611a5e576040517f08c379a0000000000000000000000000000000000000000000000000000000008152600401611a5590613c0f565b60405180910390fd5b60005a8803905060003a600754600654840281611a7757fe5b040290506000811115611b3c5780341015611ac7576040517f08c379a0000000000000000000000000000000000000000000000000000000008152600401611abe90613c8f565b60405180910390fd5b600360009054906101000a900473ffffffffffffffffffffffffffffffffffffffff1673ffffffffffffffffffffffffffffffffffffffff166108fc829081150290604051600060405180830381858888f19350505050158015611b2f573d6000803e3d6000fd5b5080600d5401600d819055505b3373ffffffffffffffffffffffffffffffffffffffff166108fc8234039081150290604051600060405180830381858888f19350505050158015611b84573d6000803e3d6000fd5b507f9b814ae8a45a4c40d4c60ffa92e0c4b76dec41407cb28b43df9daffa3685f9ac8c604051611bb49190613b04565b60405180910390a15050505050505050505050505050565b600360009054906101000a900473ffffffffffffffffffffffffffffffffffffffff1673ffffffffffffffffffffffffffffffffffffffff163373ffffffffffffffffffffffffffffffffffffffff1614611c5c576040517f08c379a0000000000000000000000000000000000000000000000000000000008152600401611c5390613d4f565b60405180910390fd5b81600481905550806005819055505050565b611c7661210b565b6040518351815260208401516020820152825160408201526020830151606082015260408260808360065afa611cab57600080fd5b5092915050565b600081600001518360000151148015611cd2575081602001518360200151145b905092915050565b6000817f30644e72e131a029b85045b68181585d2833e84879b9709143e1f593f0000001039050919050565b611d0e61210b565b604051835181526020840151602082015282604082015260408260608360075afa611d3857600080fd5b5092915050565b611d4761210b565b60405180604001604052807f077da99d806abd13c9f15ece5398525119d11e11e9836b2ee7d23f6159ad87d460001b81526020017f01485efa927f2ad41bff567eec88f32fb0a0f706588b4e41a8d587d008b7f87560001b815250905090565b60007f30644e72e131a029b85045b68181585d2833e84879b9709143e1f593f00000018281611dd257fe5b069050919050565b6000806002541415611df9576001544381611df157fe5b049050611e53565b60016002541415611e17576001544281611e0f57fe5b049050611e52565b6040517f08c379a0000000000000000000000000000000000000000000000000000000008152600401611e4990613d2f565b60405180910390fd5b5b80601260008481526020019081526020016000205410156120ba57611e7661212b565b604051806040016040528060106000868152602001908152602001600020600280602002604051908101604052809291906000905b82821015611ee7578382600202016040518060400160405290816000820154815260200160018201548152505081526020019060010190611eab565b50505050815260200160116000868152602001908152602001600020600280602002604051908101604052809291906000905b82821015611f56578382600202016040518060400160405290816000820154815260200160018201548152505081526020019060010190611f1a565b505050508152509050611fb681600160028110611f6f57fe5b6020020151600060028110611f8057fe5b602002015182600060028110611f9257fe5b6020020151600060028110611fa357fe5b6020020151611c6e90919063ffffffff16565b60106000858152602001908152602001600020600060028110611fd557fe5b6002020160008201518160000155602082015181600101559050506120478160016002811061200057fe5b602002015160016002811061201157fe5b60200201518260006002811061202357fe5b602002015160016002811061203457fe5b6020020151611c6e90919063ffffffff16565b6010600085815260200190815260200160002060016002811061206657fe5b6002020160008201518160000155602082015181600101559050506011600084815260200190815260200160002060006120a09190612281565b816012600085815260200190815260200160002081905550505b8060145410156120da5780601481905550601360006120d991906122ac565b5b5050565b60405180604001604052806002905b6120f561210b565b8152602001906001900390816120ed5790505090565b604051806040016040528060008019168152602001600080191681525090565b60405180604001604052806002905b6121426120de565b81526020019060019003908161213a5790505090565b6040518060e0016040528060608152602001606081526020016060815260200161218061210b565b8152602001606081526020016000815260200161219b61210b565b81525090565b6040518061032001604052806121b561210b565b81526020016121c261210b565b81526020016121cf61210b565b81526020016121dc61210b565b815260200160608152602001606081526020016060815260200160608152602001606081526020016060815260200160608152602001606081526020016060815260200160008152602001600081526020016000815260200161223d6120de565b81526020016000815260200160008152602001600081526020016000815260200160008152602001600081526020016000815260200161227b6122cd565b81525090565b5060008082016000905560018201600090555060020160008082016000905560018201600090555050565b50805460008255906000526020600020908101906122ca91906122f5565b50565b6040518060800160405280606081526020016060815260200160008152602001600081525090565b5b8082111561230e5760008160009055506001016122f6565b5090565b600081359050612321816140bf565b92915050565b600082601f83011261233857600080fd5b600261234b61234682613e49565b613e1c565b9150818385604084028201111561236157600080fd5b60005b8381101561239157816123778882612603565b845260208401935060408301925050600181019050612364565b5050505092915050565b600082601f8301126123ac57600080fd5b81356123bf6123ba82613e6b565b613e1c565b915081818352602084019350602081019050838560408402820111156123e457600080fd5b60005b8381101561241457816123fa88826125b7565b8452602084019350604083019250506001810190506123e7565b5050505092915050565b600082601f83011261242f57600080fd5b815161244261243d82613e6b565b613e1c565b9150818183526020840193506020810190508385604084028201111561246757600080fd5b60005b83811015612497578161247d8882612603565b84526020840193506040830192505060018101905061246a565b5050505092915050565b600082601f8301126124b257600080fd5b81516124c56124c082613e93565b613e1c565b915081818352602084019350602081019050838560208402820111156124ea57600080fd5b60005b8381101561251a57816125008882612b49565b8452602084019350602083019250506001810190506124ed565b5050505092915050565b600081519050612533816140d6565b92915050565b600081359050612548816140ed565b92915050565b60008151905061255d816140ed565b92915050565b600082601f83011261257457600080fd5b813561258761258282613ebb565b613e1c565b915080825260208301602083018583830111156125a357600080fd5b6125ae83828461406c565b50505092915050565b6000604082840312156125c957600080fd5b6125d36040613e1c565b905060006125e384828501612539565b60008301525060206125f784828501612539565b60208301525092915050565b60006040828403121561261557600080fd5b61261f6040613e1c565b9050600061262f8482850161254e565b60008301525060206126438482850161254e565b60208301525092915050565b60006080828403121561266157600080fd5b61266b6080613e1c565b9050600082015167ffffffffffffffff81111561268757600080fd5b6126938482850161241e565b600083015250602082015167ffffffffffffffff8111156126b357600080fd5b6126bf8482850161241e565b60208301525060406126d384828501612b49565b60408301525060606126e784828501612b49565b60608301525092915050565b6000610400828403121561270657600080fd5b612711610320613e1c565b9050600061272184828501612603565b600083015250604061273584828501612603565b602083015250608061274984828501612603565b60408301525060c061275d84828501612603565b60608301525061010082015167ffffffffffffffff81111561277e57600080fd5b61278a8482850161241e565b60808301525061012082015167ffffffffffffffff8111156127ab57600080fd5b6127b78482850161241e565b60a08301525061014082015167ffffffffffffffff8111156127d857600080fd5b6127e48482850161241e565b60c08301525061016082015167ffffffffffffffff81111561280557600080fd5b6128118482850161241e565b60e08301525061018082015167ffffffffffffffff81111561283257600080fd5b61283e8482850161241e565b610100830152506101a082015167ffffffffffffffff81111561286057600080fd5b61286c8482850161241e565b610120830152506101c082015167ffffffffffffffff81111561288e57600080fd5b61289a8482850161241e565b610140830152506101e082015167ffffffffffffffff8111156128bc57600080fd5b6128c88482850161241e565b6101608301525061020082015167ffffffffffffffff8111156128ea57600080fd5b6128f6848285016124a1565b6101808301525061022061290c84828501612b49565b6101a08301525061024061292284828501612b49565b6101c08301525061026061293884828501612b49565b6101e08301525061028061294e84828501612327565b6102008301525061030061296484828501612b49565b6102208301525061032061297a84828501612b49565b6102408301525061034061299084828501612b49565b610260830152506103606129a684828501612b49565b610280830152506103806129bc84828501612b49565b6102a0830152506103a06129d284828501612b49565b6102c0830152506103c06129e884828501612b49565b6102e0830152506103e082015167ffffffffffffffff811115612a0a57600080fd5b612a168482850161264f565b6103008301525092915050565b60006101208284031215612a3657600080fd5b612a4060e0613e1c565b9050600082015167ffffffffffffffff811115612a5c57600080fd5b612a688482850161241e565b600083015250602082015167ffffffffffffffff811115612a8857600080fd5b612a948482850161241e565b602083015250604082015167ffffffffffffffff811115612ab457600080fd5b612ac08482850161241e565b6040830152506060612ad484828501612603565b60608301525060a082015167ffffffffffffffff811115612af457600080fd5b612b008482850161241e565b60808301525060c0612b1484828501612b49565b60a08301525060e0612b2884828501612603565b60c08301525092915050565b600081359050612b4381614104565b92915050565b600081519050612b5881614104565b92915050565b600060208284031215612b7057600080fd5b6000612b7e84828501612312565b91505092915050565b600080600080600060e08688031215612b9f57600080fd5b600086013567ffffffffffffffff811115612bb957600080fd5b612bc58882890161239b565b9550506020612bd6888289016125b7565b945050606086013567ffffffffffffffff811115612bf357600080fd5b612bff8882890161239b565b9350506080612c10888289016125b7565b92505060c086013567ffffffffffffffff811115612c2d57600080fd5b612c3988828901612563565b9150509295509295909350565b60008060408385031215612c5957600080fd5b600083013567ffffffffffffffff811115612c7357600080fd5b612c7f8582860161239b565b9250506020612c9085828601612b34565b9150509250929050565b600060208284031215612cac57600080fd5b6000612cba84828501612524565b91505092915050565b600060208284031215612cd557600080fd5b6000612ce384828501612539565b91505092915050565b600060408284031215612cfe57600080fd5b6000612d0c848285016125b7565b91505092915050565b600080600060808486031215612d2a57600080fd5b6000612d38868287016125b7565b9350506040612d4986828701612b34565b9250506060612d5a86828701612b34565b9150509250925092565b600060208284031215612d7657600080fd5b600082015167ffffffffffffffff811115612d9057600080fd5b612d9c848285016126f3565b91505092915050565b600060208284031215612db757600080fd5b600082015167ffffffffffffffff811115612dd157600080fd5b612ddd84828501612a23565b91505092915050565b600060208284031215612df857600080fd5b6000612e0684828501612b34565b91505092915050565b60008060408385031215612e2257600080fd5b6000612e3085828601612b34565b9250506020612e4185828601612b34565b9150509250929050565b6000612e578383612f0f565b60808301905092915050565b6000612e6f8383613676565b60408301905092915050565b6000612e878383613a48565b60208301905092915050565b612e9c8161401a565b82525050565b612eab81614008565b82525050565b6000612ebc82613f21565b612ec68185613f8c565b9350612ed183613ee7565b8060005b83811015612f02578151612ee98882612e4b565b9750612ef483613f58565b925050600181019050612ed5565b5085935050505092915050565b612f1881613f2c565b612f228184613f9d565b9250612f2d82613ef7565b8060005b83811015612f5e578151612f458782612e63565b9650612f5083613f65565b925050600181019050612f31565b505050505050565b612f6f81613f2c565b612f798184613fa8565b9250612f8482613ef7565b8060005b83811015612fb5578151612f9c8782612e63565b9650612fa783613f65565b925050600181019050612f88565b505050505050565b6000612fc882613f37565b612fd28185613fb3565b9350612fdd83613f01565b8060005b8381101561300e578151612ff58882612e63565b975061300083613f72565b925050600181019050612fe1565b5085935050505092915050565b600061302682613f37565b6130308185613fc4565b935061303b83613f01565b8060005b8381101561306c5781516130538882612e63565b975061305e83613f72565b92505060018101905061303f565b5085935050505092915050565b600061308482613f42565b61308e8185613fd5565b935061309983613f11565b8060005b838110156130ca5781516130b18882612e7b565b97506130bc83613f7f565b92505060018101905061309d565b5085935050505092915050565b6130e08161402c565b82525050565b6130ef81614038565b82525050565b600061310082613f4d565b61310a8185613fe6565b935061311a81856020860161407b565b613123816140ae565b840191505092915050565b600061313b602c83613ff7565b91507f5b52617a65207472616e736665725d20496e707574206172726179206c656e6760008301527f7468206d69736d617463682100000000000000000000000000000000000000006020830152604082019050919050565b60006131a1602483613ff7565b91507f5b52617a65207472616e736665725d204661696c65643a20766572696669636160008301527f74696f6e000000000000000000000000000000000000000000000000000000006020830152604082019050919050565b6000613207603483613ff7565b91507f5065726d697373696f6e2064656e6965643a204f6e6c792061646d696e20636160008301527f6e206368616e676520726f756e6420626173652e0000000000000000000000006020830152604082019050919050565b600061326d603083613ff7565b91507f5065726d697373696f6e2064656e6965643a204f6e6c792061646d696e20636160008301527f6e206368616e6765206167656e63792e000000000000000000000000000000006020830152604082019050919050565b60006132d3601b83613ff7565b91507f4163636f756e7420616c726561647920726567697374657265642100000000006000830152602082019050919050565b6000613313604283613ff7565b91507f5b52617a65207472616e736665725d204e6f7420656e6f75676820666565207360008301527f656e74207769746820746865207472616e73666572207472616e73616374696f60208301527f6e2e0000000000000000000000000000000000000000000000000000000000006040830152606082019050919050565b600061339f602b83613ff7565b91507f5b52617a65207472616e736665725d204163636f756e74206e6f74207965742060008301527f726567697374657265642e0000000000000000000000000000000000000000006020830152604082019050919050565b6000613405601f83613ff7565b91507f496e76616c696420726567697374726174696f6e207369676e617475726521006000830152602082019050919050565b6000613445602e83613ff7565b91507f5065726d697373696f6e2064656e6965643a204f6e6c792061646d696e20636160008301527f6e206368616e676520756e69742e0000000000000000000000000000000000006020830152604082019050919050565b60006134ab603f83613ff7565b91507f5065726d697373696f6e2064656e6965643a204f6e6c792061646d696e20636160008301527f6e206368616e6765207472616e73666572206665652073747261746567792e006020830152604082019050919050565b6000613511601383613ff7565b91507f496e76616c696420726f756e6420626173652e000000000000000000000000006000830152602082019050919050565b6000613551603d83613ff7565b91507f5065726d697373696f6e2064656e6965643a204f6e6c792061646d696e20636160008301527f6e206368616e67652072656465656d206665652073747261746567792e0000006020830152604082019050919050565b60006135b7603683613ff7565b91507f5065726d697373696f6e2064656e6965643a204f6e6c792061646d696e20636160008301527f6e206368616e676520726f756e64206c656e6774682e000000000000000000006020830152604082019050919050565b600061361d602383613ff7565b91507f5b52617a65207472616e736665725d204e6f6e636520616c726561647920736560008301527f656e2100000000000000000000000000000000000000000000000000000000006020830152604082019050919050565b60408201600082015161368c60008501826130e6565b50602082015161369f60208501826130e6565b50505050565b6040820160008201516136bb60008501826130e6565b5060208201516136ce60208501826130e6565b50505050565b600060808301600083015184820360008601526136f18282612fbd565b9150506020830151848203602086015261370b8282612fbd565b91505060408301516137206040860182613a48565b5060608301516137336060860182613a48565b508091505092915050565b6000610400830160008301516137576000860182613676565b50602083015161376a6040860182613676565b50604083015161377d6080860182613676565b50606083015161379060c0860182613676565b5060808301518482036101008601526137a98282612fbd565b91505060a08301518482036101208601526137c48282612fbd565b91505060c08301518482036101408601526137df8282612fbd565b91505060e08301518482036101608601526137fa8282612fbd565b9150506101008301518482036101808601526138168282612fbd565b9150506101208301518482036101a08601526138328282612fbd565b9150506101408301518482036101c086015261384e8282612fbd565b9150506101608301518482036101e086015261386a8282612fbd565b9150506101808301518482036102008601526138868282613079565b9150506101a083015161389d610220860182613a48565b506101c08301516138b2610240860182613a48565b506101e08301516138c7610260860182613a48565b506102008301516138dc610280860182612f0f565b506102208301516138f1610300860182613a48565b50610240830151613906610320860182613a48565b5061026083015161391b610340860182613a48565b50610280830151613930610360860182613a48565b506102a0830151613945610380860182613a48565b506102c083015161395a6103a0860182613a48565b506102e083015161396f6103c0860182613a48565b506103008301518482036103e086015261398982826136d4565b9150508091505092915050565b60006101208301600083015184820360008601526139b48282612fbd565b915050602083015184820360208601526139ce8282612fbd565b915050604083015184820360408601526139e88282612fbd565b91505060608301516139fd6060860182613676565b50608083015184820360a0860152613a158282612fbd565b91505060a0830151613a2a60c0860182613a48565b5060c0830151613a3d60e0860182613676565b508091505092915050565b613a5181614062565b82525050565b613a6081614062565b82525050565b6000602082019050613a7b6000830184612e93565b92915050565b600060a082019050613a966000830186612ea2565b613aa360208301856136a5565b613ab060608301846136a5565b949350505050565b60006020820190508181036000830152613ad28184612eb1565b905092915050565b600061010082019050613af06000830185612f66565b613afd6080830184612f66565b9392505050565b60006020820190508181036000830152613b1e818461301b565b905092915050565b6000610120820190508181036000830152613b41818a61301b565b90508181036020830152613b55818961301b565b90508181036040830152613b69818861301b565b9050613b7860608301876136a5565b81810360a0830152613b8a818661301b565b9050613b9960c0830185613a57565b613ba660e08301846136a5565b98975050505050505050565b6000602082019050613bc760008301846130d7565b92915050565b60006020820190508181036000830152613be781846130f5565b905092915050565b60006020820190508181036000830152613c088161312e565b9050919050565b60006020820190508181036000830152613c2881613194565b9050919050565b60006020820190508181036000830152613c48816131fa565b9050919050565b60006020820190508181036000830152613c6881613260565b9050919050565b60006020820190508181036000830152613c88816132c6565b9050919050565b60006020820190508181036000830152613ca881613306565b9050919050565b60006020820190508181036000830152613cc881613392565b9050919050565b60006020820190508181036000830152613ce8816133f8565b9050919050565b60006020820190508181036000830152613d0881613438565b9050919050565b60006020820190508181036000830152613d288161349e565b9050919050565b60006020820190508181036000830152613d4881613504565b9050919050565b60006020820190508181036000830152613d6881613544565b9050919050565b60006020820190508181036000830152613d88816135aa565b9050919050565b60006020820190508181036000830152613da881613610565b9050919050565b6000604082019050613dc460008301846136a5565b92915050565b60006040820190508181036000830152613de48185613996565b90508181036020830152613df8818461373e565b90509392505050565b6000602082019050613e166000830184613a57565b92915050565b6000604051905081810181811067ffffffffffffffff82111715613e3f57600080fd5b8060405250919050565b600067ffffffffffffffff821115613e6057600080fd5b602082029050919050565b600067ffffffffffffffff821115613e8257600080fd5b602082029050602081019050919050565b600067ffffffffffffffff821115613eaa57600080fd5b602082029050602081019050919050565b600067ffffffffffffffff821115613ed257600080fd5b601f19601f8301169050602081019050919050565b6000819050602082019050919050565b6000819050919050565b6000819050602082019050919050565b6000819050602082019050919050565b600081519050919050565b600060029050919050565b600081519050919050565b600081519050919050565b600081519050919050565b6000602082019050919050565b6000602082019050919050565b6000602082019050919050565b6000602082019050919050565b600082825260208201905092915050565b600081905092915050565b600081905092915050565b600082825260208201905092915050565b600082825260208201905092915050565b600082825260208201905092915050565b600082825260208201905092915050565b600082825260208201905092915050565b600061401382614042565b9050919050565b600061402582614042565b9050919050565b60008115159050919050565b6000819050919050565b600073ffffffffffffffffffffffffffffffffffffffff82169050919050565b6000819050919050565b82818337600083830152505050565b60005b8381101561409957808201518184015260208101905061407e565b838111156140a8576000848401525b50505050565b6000601f19601f8301169050919050565b6140c88161401a565b81146140d357600080fd5b50565b6140df8161402c565b81146140ea57600080fd5b50565b6140f681614038565b811461410157600080fd5b50565b61410d81614062565b811461411857600080fd5b5056fea26469706673582212203d0931fa437dd79198e0b5fbd8d6aab74dce35686afa64750165f29e7df29cdb64736f6c634300060c0033",
  "immutableReferences": {},
  "source": "// SPDX-License-Identifier: MIT\npragma solidity ^0.6.0;\npragma experimental ABIEncoderV2;\n\nimport \"./Utils.sol\";\nimport \"./RazeTransfer.sol\";\nimport \"./RazeRedeem.sol\";\n\ncontract RazeBase {\n\n    using Utils for uint256;\n    using Utils for Utils.G1Point;\n\n    /*\n       Max units that can be handled by raze.\n    */\n    uint256 public constant MAX = 2**32-1;\n\n    /* \n       The # of tokens that constitute one unit.\n       Balances, mints, redeems, and transfers are all interpreted in terms of unit, rather than token. \n    */\n    uint256 public unit; \n\n    uint256 public round_len = 24; \n    uint256 public round_base = 0; // 0 for block, 1 for second (usually just for test)\n\n\n    address payable public raze_agency; \n\n    /* redeem fee: 1/100 of redeem amount */\n    uint256 public redeem_fee_numerator = 1;\n    uint256 public redeem_fee_denominator = 100;\n    /* transfer fee: 1/5 of gas */\n    uint256 public transfer_fee_numerator = 1;\n    uint256 public transfer_fee_denominator = 5;\n\n    RazeTransfer raze_transfer;\n    RazeRedeem raze_redeem;\n\n    uint256 public balance_log = 0;\n    uint256 public users_log = 0;\n    uint256 public redeem_fee_log = 0;\n    uint256 public transfer_fee_log = 0;\n    uint256 public deposits_log = 0;\n    uint256 public mint_count_log = 0;\n    \n\n    mapping(bytes32 => Utils.G1Point[2]) acc; // main account mapping\n    mapping(bytes32 => Utils.G1Point[2]) pending; // storage for pending transfers\n    mapping(bytes32 => uint256) public last_roll_over;\n    bytes32[] nonce_set; // would be more natural to use a mapping, but they can't be deleted / reset!\n    uint256 public last_global_update = 0; // will be also used as a proxy for \"current round\", seeing as rollovers will be anticipated\n    //// not implementing account locking for now...revisit\n\n    mapping(bytes32 => bytes) guess;\n\n    event TransferOccurred(Utils.G1Point[] parties); // all parties will be notified, client can determine whether it was real or not.\n    //// arg is still necessary for transfers---not even so much to know when you received a transfer, as to know when you got rolled over.\n    event LogUint256(string label, uint256 indexed value);\n\n    constructor(address _transfer, address _redeem, uint256 _unit) public {\n        raze_agency = msg.sender;\n        raze_transfer = RazeTransfer(_transfer);\n        raze_redeem = RazeRedeem(_redeem);\n        unit = _unit;\n    }\n\n    function toUnitAmount(uint256 nativeAmount) internal view returns (uint256) {\n        require(nativeAmount % unit == 0, \"Native amount must be multiple of a unit.\");\n        uint256 amount = nativeAmount / unit;\n        require(0 <= amount && amount <= MAX, \"Amount out of range.\"); \n        return amount;\n    }\n\n    function toNativeAmount(uint256 unitAmount) internal view returns (uint256) {\n        require(0 <= unitAmount && unitAmount <= MAX, \"Amount out of range\");\n        return unitAmount * unit;\n    }\n\n    function setRedeemFeeStrategy(uint256 numerator, uint256 denominator) public {\n        require(msg.sender == raze_agency, \"Permission denied: Only admin can change redeem fee strategy.\");\n        redeem_fee_numerator = numerator;\n        redeem_fee_denominator = denominator;\n    }\n\n    function setTransferFeeStrategy(uint256 numerator, uint256 denominator) public {\n        require(msg.sender == raze_agency, \"Permission denied: Only admin can change transfer fee strategy.\");\n        transfer_fee_numerator = numerator;\n        transfer_fee_denominator = denominator;\n    }\n\n    function setRoundBase (uint256 _round_base) public {\n        require(msg.sender == raze_agency, \"Permission denied: Only admin can change round base.\");\n        round_base = _round_base;\n    }\n\n    function setRoundLen (uint256 _round_len) public {\n        require(msg.sender == raze_agency, \"Permission denied: Only admin can change round length.\");\n        round_len = _round_len;\n    }\n\n    function setUnit (uint256 _unit) public {\n        require(msg.sender == raze_agency, \"Permission denied: Only admin can change unit.\");\n        unit = _unit;\n    }\n\n    function setRazeAgency (address payable _raze_agency) public {\n        require(msg.sender == raze_agency, \"Permission denied: Only admin can change agency.\");\n        raze_agency = _raze_agency;\n    }\n\n    function register(Utils.G1Point memory y, uint256 c, uint256 s) public {\n        // allows y to participate. c, s should be a Schnorr signature on \"this\"\n        Utils.G1Point memory K = Utils.g().pMul(s).pAdd(y.pMul(c.gNeg()));\n        uint256 challenge = uint256(keccak256(abi.encode(address(this), y, K))).gMod();\n        require(challenge == c, \"Invalid registration signature!\");\n        bytes32 yHash = keccak256(abi.encode(y));\n        require(!registered(yHash), \"Account already registered!\");\n        // pending[yHash] = [y, Utils.g()]; // \"not supported\" yet, have to do the below\n\n        /*\n            The following initial value of pending[yHash] is equivalent to an ElGamal encryption of m = 0, with nonce r = 1:\n            (mG + ry, rG) --> (y, G)\n            If we don't set pending in this way, then we can't differentiate two cases:\n            1. The account is not registered (both acc and pending are 0, because `mapping` has initial value for all keys)\n            2. The account has a total balance of 0 (both acc and pending are 0)\n\n            With such a setting, we can guarantee that, once an account is registered, its `acc` and `pending` can never (crytographically negligible) BOTH equal to Point zero.\n            NOTE: `pending` can be reset to Point zero after a roll over.\n        */\n        pending[yHash][0] = y;\n        pending[yHash][1] = Utils.g();\n\n        users_log = users_log + 1;\n    }\n\n    function registered(bytes32 yHash) public view returns (bool) {\n        Utils.G1Point memory zero = Utils.G1Point(0, 0);\n        Utils.G1Point[2][2] memory scratch = [acc[yHash], pending[yHash]];\n        return !(scratch[0][0].pEqual(zero) && scratch[0][1].pEqual(zero) && scratch[1][0].pEqual(zero) && scratch[1][1].pEqual(zero));\n    }\n\n    /**\n      Get the current balances of accounts. If the given `round` is larger than the last roll over round, the returned balances\n      will include pending transfers. \n    */\n    function getBalance(Utils.G1Point[] memory y, uint256 round) view public returns (Utils.G1Point[2][] memory accounts) {\n        // in this function and others, i have to use public + memory (and hence, a superfluous copy from calldata)\n        // only because calldata structs aren't yet supported by solidity. revisit this in the future.\n        uint256 size = y.length;\n        accounts = new Utils.G1Point[2][](size);\n        for (uint256 i = 0; i < size; i++) {\n            bytes32 yHash = keccak256(abi.encode(y[i]));\n            accounts[i] = acc[yHash];\n            if (last_roll_over[yHash] < round) {\n                Utils.G1Point[2] memory scratch = pending[yHash];\n                accounts[i][0] = accounts[i][0].pAdd(scratch[0]);\n                accounts[i][1] = accounts[i][1].pAdd(scratch[1]);\n            }\n        }\n    }\n\n    function getAccountState (Utils.G1Point memory y) public view returns (Utils.G1Point[2] memory y_available, Utils.G1Point[2] memory y_pending) {\n        bytes32 yHash = keccak256(abi.encode(y));\n        y_available = acc[yHash];\n        y_pending = pending[yHash];\n        return (y_available, y_pending);\n    }\n\n    function getGuess (Utils.G1Point memory y) public view returns (bytes memory y_guess) {\n        bytes32 yHash = keccak256(abi.encode(y));\n        y_guess = guess[yHash];\n        return y_guess;\n    }\n\n    function rollOver(bytes32 yHash) internal {\n        uint256 e = 0;\n        if (round_base == 0)\n            e = block.number / round_len;\n        else if (round_base == 1)\n            e = block.timestamp / round_len;\n        else\n            revert(\"Invalid round base.\");\n\n        if (last_roll_over[yHash] < e) {\n            Utils.G1Point[2][2] memory scratch = [acc[yHash], pending[yHash]];\n            acc[yHash][0] = scratch[0][0].pAdd(scratch[1][0]);\n            acc[yHash][1] = scratch[0][1].pAdd(scratch[1][1]);\n            // acc[yHash] = scratch[0]; // can't do this---have to do the above instead (and spend 2 sloads / stores)---because \"not supported\". revisit\n            delete pending[yHash]; // pending[yHash] = [Utils.G1Point(0, 0), Utils.G1Point(0, 0)];\n            last_roll_over[yHash] = e;\n        }\n        if (last_global_update < e) {\n            last_global_update = e;\n            delete nonce_set;\n        }\n    }\n\n    function mintBase(Utils.G1Point memory y, uint256 amount, bytes memory encGuess) internal {\n\n        require(amount <= MAX && balance_log + amount <= MAX, \"[Raze mint] Mint pushes contract past maximum value.\");\n        balance_log += amount;\n        deposits_log += amount;\n        mint_count_log += 1;\n\n        bytes32 yHash = keccak256(abi.encode(y));\n        require(registered(yHash), \"[Raze mint] Account not yet registered.\");\n        rollOver(yHash);\n\n        Utils.G1Point memory scratch = pending[yHash][0];\n        scratch = scratch.pAdd(Utils.g().pMul(amount));\n        pending[yHash][0] = scratch;\n\n        guess[yHash] = encGuess;\n    }\n\n    function redeemBase(Utils.G1Point memory y, uint256 amount, Utils.G1Point memory u, bytes memory proof, bytes memory encGuess) internal {\n\n        require(balance_log >= amount, \"[Raze redeem] Failed: Invalid redeem amount.\");\n        balance_log -= amount;\n        \n\n        bytes32 yHash = keccak256(abi.encode(y));\n        require(registered(yHash), \"[Raze redeem] Account not yet registered.\");\n        rollOver(yHash);\n\n        Utils.G1Point[2] memory scratch = pending[yHash];\n        pending[yHash][0] = scratch[0].pAdd(Utils.g().pMul(amount.gNeg()));\n\n        scratch = acc[yHash]; // simulate debit of acc---just for use in verification, won't be applied\n        scratch[0] = scratch[0].pAdd(Utils.g().pMul(amount.gNeg()));\n        bytes32 uHash = keccak256(abi.encode(u));\n        for (uint256 i = 0; i < nonce_set.length; i++) {\n            require(nonce_set[i] != uHash, \"[Raze redeem] Nonce already seen!\");\n        }\n        nonce_set.push(uHash);\n\n        guess[yHash] = encGuess;\n\n        RazeRedeem.Statement memory raze_stm = raze_redeem.wrapStatement(scratch[0], scratch[1], y, last_global_update, u, msg.sender);\n        RazeRedeem.Proof memory raze_proof = raze_redeem.unserialize(proof);\n\n        require(raze_redeem.verify(raze_stm, raze_proof), \"[Raze redeem] Failed: verification!\");\n    }\n\n    function transfer(Utils.G1Point[] memory C, Utils.G1Point memory D, \n                      Utils.G1Point[] memory y, Utils.G1Point memory u, \n                      bytes memory proof) public payable {\n\n        uint256 startGas = gasleft();\n\n        // TODO: check that sender and receiver should NOT be equal.\n        uint256 size = y.length;\n        Utils.G1Point[] memory CLn = new Utils.G1Point[](size);\n        Utils.G1Point[] memory CRn = new Utils.G1Point[](size);\n        require(C.length == size, \"[Raze transfer] Input array length mismatch!\");\n\n\n        for (uint256 i = 0; i < size; i++) {\n            bytes32 yHash = keccak256(abi.encode(y[i]));\n            require(registered(yHash), \"[Raze transfer] Account not yet registered.\");\n            rollOver(yHash);\n            Utils.G1Point[2] memory scratch = pending[yHash];\n            pending[yHash][0] = scratch[0].pAdd(C[i]);\n            pending[yHash][1] = scratch[1].pAdd(D);\n            // pending[yHash] = scratch; // can't do this, so have to use 2 sstores _anyway_ (as in above)\n\n            scratch = acc[yHash];\n            CLn[i] = scratch[0].pAdd(C[i]);\n            CRn[i] = scratch[1].pAdd(D);\n        }\n\n        bytes32 uHash = keccak256(abi.encode(u));\n        for (uint256 i = 0; i < nonce_set.length; i++) {\n            require(nonce_set[i] != uHash, \"[Raze transfer] Nonce already seen!\");\n        }\n        nonce_set.push(uHash);\n\n        RazeTransfer.Statement memory raze_stm = raze_transfer.wrapStatement(CLn, CRn, C, D, y, last_global_update, u);\n        RazeTransfer.Proof memory raze_proof = raze_transfer.unserialize(proof);\n\n        require(raze_transfer.verify(raze_stm, raze_proof), \"[Raze transfer] Failed: verification\");\n\n        uint256 usedGas = startGas - gasleft();\n        \n        uint256 fee = (usedGas * transfer_fee_numerator / transfer_fee_denominator) * tx.gasprice;\n        if (fee > 0) {\n            require(msg.value >= fee, \"[Raze transfer] Not enough fee sent with the transfer transaction.\");\n            raze_agency.transfer(fee);\n            transfer_fee_log = transfer_fee_log + fee;\n        }\n        msg.sender.transfer(msg.value - fee);\n\n        emit TransferOccurred(y);\n    }\n\n\n}\n\n\n",
  "sourcePath": "/Users/jinwan/Desktop/raze_frontend-master/contracts/RazeBase.sol",
  "compiler": {
    "name": "solc",
    "version": "0.6.12+commit.27d51765.Emscripten.clang"
  },
  "schemaVersion": "3.4.1",
  "updatedAt": "2021-06-15T11:39:00.174Z",
  "devdoc": {
    "kind": "dev",
    "methods": {},
    "version": 1
  },
  "userdoc": {
    "kind": "user",
    "methods": {
      "getBalance((bytes32,bytes32)[],uint256)": {
        "notice": "Get the current balances of accounts. If the given `round` is larger than the last roll over round, the returned balances will include pending transfers. "
      }
    },
    "version": 1
  }
}