{
  "contractName": "RazeRedeem",
  "abi": [
    {
      "inputs": [
        {
          "internalType": "address",
          "name": "_ip",
          "type": "address"
        }
      ],
      "stateMutability": "nonpayable",
      "type": "constructor"
    },
    {
      "inputs": [
        {
          "components": [
            {
              "components": [
                {
                  "internalType": "bytes32",
                  "name": "x",
                  "type": "bytes32"
                },
                {
                  "internalType": "bytes32",
                  "name": "y",
                  "type": "bytes32"
                }
              ],
              "internalType": "struct Utils.G1Point",
              "name": "ct_l",
              "type": "tuple"
            },
            {
              "components": [
                {
                  "internalType": "bytes32",
                  "name": "x",
                  "type": "bytes32"
                },
                {
                  "internalType": "bytes32",
                  "name": "y",
                  "type": "bytes32"
                }
              ],
              "internalType": "struct Utils.G1Point",
              "name": "ct_r",
              "type": "tuple"
            },
            {
              "components": [
                {
                  "internalType": "bytes32",
                  "name": "x",
                  "type": "bytes32"
                },
                {
                  "internalType": "bytes32",
                  "name": "y",
                  "type": "bytes32"
                }
              ],
              "internalType": "struct Utils.G1Point",
              "name": "pk",
              "type": "tuple"
            },
            {
              "internalType": "uint256",
              "name": "epoch",
              "type": "uint256"
            },
            {
              "components": [
                {
                  "internalType": "bytes32",
                  "name": "x",
                  "type": "bytes32"
                },
                {
                  "internalType": "bytes32",
                  "name": "y",
                  "type": "bytes32"
                }
              ],
              "internalType": "struct Utils.G1Point",
              "name": "u",
              "type": "tuple"
            },
            {
              "internalType": "address",
              "name": "sender",
              "type": "address"
            }
          ],
          "internalType": "struct RazeRedeem.Statement",
          "name": "statement",
          "type": "tuple"
        },
        {
          "components": [
            {
              "components": [
                {
                  "internalType": "bytes32",
                  "name": "x",
                  "type": "bytes32"
                },
                {
                  "internalType": "bytes32",
                  "name": "y",
                  "type": "bytes32"
                }
              ],
              "internalType": "struct Utils.G1Point",
              "name": "BA",
              "type": "tuple"
            },
            {
              "components": [
                {
                  "internalType": "bytes32",
                  "name": "x",
                  "type": "bytes32"
                },
                {
                  "internalType": "bytes32",
                  "name": "y",
                  "type": "bytes32"
                }
              ],
              "internalType": "struct Utils.G1Point",
              "name": "BS",
              "type": "tuple"
            },
            {
              "components": [
                {
                  "internalType": "bytes32",
                  "name": "x",
                  "type": "bytes32"
                },
                {
                  "internalType": "bytes32",
                  "name": "y",
                  "type": "bytes32"
                }
              ],
              "internalType": "struct Utils.G1Point[2]",
              "name": "tCommits",
              "type": "tuple[2]"
            },
            {
              "internalType": "uint256",
              "name": "tHat",
              "type": "uint256"
            },
            {
              "internalType": "uint256",
              "name": "mu",
              "type": "uint256"
            },
            {
              "internalType": "uint256",
              "name": "c",
              "type": "uint256"
            },
            {
              "internalType": "uint256",
              "name": "s_sk",
              "type": "uint256"
            },
            {
              "internalType": "uint256",
              "name": "s_b",
              "type": "uint256"
            },
            {
              "internalType": "uint256",
              "name": "s_tau",
              "type": "uint256"
            },
            {
              "components": [
                {
                  "components": [
                    {
                      "internalType": "bytes32",
                      "name": "x",
                      "type": "bytes32"
                    },
                    {
                      "internalType": "bytes32",
                      "name": "y",
                      "type": "bytes32"
                    }
                  ],
                  "internalType": "struct Utils.G1Point[]",
                  "name": "ls",
                  "type": "tuple[]"
                },
                {
                  "components": [
                    {
                      "internalType": "bytes32",
                      "name": "x",
                      "type": "bytes32"
                    },
                    {
                      "internalType": "bytes32",
                      "name": "y",
                      "type": "bytes32"
                    }
                  ],
                  "internalType": "struct Utils.G1Point[]",
                  "name": "rs",
                  "type": "tuple[]"
                },
                {
                  "internalType": "uint256",
                  "name": "a",
                  "type": "uint256"
                },
                {
                  "internalType": "uint256",
                  "name": "b",
                  "type": "uint256"
                }
              ],
              "internalType": "struct RazeIP.Proof",
              "name": "ip_proof",
              "type": "tuple"
            }
          ],
          "internalType": "struct RazeRedeem.Proof",
          "name": "proof",
          "type": "tuple"
        }
      ],
      "name": "verify",
      "outputs": [
        {
          "internalType": "bool",
          "name": "",
          "type": "bool"
        }
      ],
      "stateMutability": "view",
      "type": "function"
    },
    {
      "inputs": [
        {
          "components": [
            {
              "internalType": "bytes32",
              "name": "x",
              "type": "bytes32"
            },
            {
              "internalType": "bytes32",
              "name": "y",
              "type": "bytes32"
            }
          ],
          "internalType": "struct Utils.G1Point",
          "name": "ct_l",
          "type": "tuple"
        },
        {
          "components": [
            {
              "internalType": "bytes32",
              "name": "x",
              "type": "bytes32"
            },
            {
              "internalType": "bytes32",
              "name": "y",
              "type": "bytes32"
            }
          ],
          "internalType": "struct Utils.G1Point",
          "name": "ct_r",
          "type": "tuple"
        },
        {
          "components": [
            {
              "internalType": "bytes32",
              "name": "x",
              "type": "bytes32"
            },
            {
              "internalType": "bytes32",
              "name": "y",
              "type": "bytes32"
            }
          ],
          "internalType": "struct Utils.G1Point",
          "name": "pk",
          "type": "tuple"
        },
        {
          "internalType": "uint256",
          "name": "epoch",
          "type": "uint256"
        },
        {
          "components": [
            {
              "internalType": "bytes32",
              "name": "x",
              "type": "bytes32"
            },
            {
              "internalType": "bytes32",
              "name": "y",
              "type": "bytes32"
            }
          ],
          "internalType": "struct Utils.G1Point",
          "name": "u",
          "type": "tuple"
        },
        {
          "internalType": "address",
          "name": "sender",
          "type": "address"
        }
      ],
      "name": "wrapStatement",
      "outputs": [
        {
          "components": [
            {
              "components": [
                {
                  "internalType": "bytes32",
                  "name": "x",
                  "type": "bytes32"
                },
                {
                  "internalType": "bytes32",
                  "name": "y",
                  "type": "bytes32"
                }
              ],
              "internalType": "struct Utils.G1Point",
              "name": "ct_l",
              "type": "tuple"
            },
            {
              "components": [
                {
                  "internalType": "bytes32",
                  "name": "x",
                  "type": "bytes32"
                },
                {
                  "internalType": "bytes32",
                  "name": "y",
                  "type": "bytes32"
                }
              ],
              "internalType": "struct Utils.G1Point",
              "name": "ct_r",
              "type": "tuple"
            },
            {
              "components": [
                {
                  "internalType": "bytes32",
                  "name": "x",
                  "type": "bytes32"
                },
                {
                  "internalType": "bytes32",
                  "name": "y",
                  "type": "bytes32"
                }
              ],
              "internalType": "struct Utils.G1Point",
              "name": "pk",
              "type": "tuple"
            },
            {
              "internalType": "uint256",
              "name": "epoch",
              "type": "uint256"
            },
            {
              "components": [
                {
                  "internalType": "bytes32",
                  "name": "x",
                  "type": "bytes32"
                },
                {
                  "internalType": "bytes32",
                  "name": "y",
                  "type": "bytes32"
                }
              ],
              "internalType": "struct Utils.G1Point",
              "name": "u",
              "type": "tuple"
            },
            {
              "internalType": "address",
              "name": "sender",
              "type": "address"
            }
          ],
          "internalType": "struct RazeRedeem.Statement",
          "name": "statement",
          "type": "tuple"
        }
      ],
      "stateMutability": "pure",
      "type": "function"
    },
    {
      "inputs": [
        {
          "internalType": "bytes",
          "name": "arr",
          "type": "bytes"
        }
      ],
      "name": "unserialize",
      "outputs": [
        {
          "components": [
            {
              "components": [
                {
                  "internalType": "bytes32",
                  "name": "x",
                  "type": "bytes32"
                },
                {
                  "internalType": "bytes32",
                  "name": "y",
                  "type": "bytes32"
                }
              ],
              "internalType": "struct Utils.G1Point",
              "name": "BA",
              "type": "tuple"
            },
            {
              "components": [
                {
                  "internalType": "bytes32",
                  "name": "x",
                  "type": "bytes32"
                },
                {
                  "internalType": "bytes32",
                  "name": "y",
                  "type": "bytes32"
                }
              ],
              "internalType": "struct Utils.G1Point",
              "name": "BS",
              "type": "tuple"
            },
            {
              "components": [
                {
                  "internalType": "bytes32",
                  "name": "x",
                  "type": "bytes32"
                },
                {
                  "internalType": "bytes32",
                  "name": "y",
                  "type": "bytes32"
                }
              ],
              "internalType": "struct Utils.G1Point[2]",
              "name": "tCommits",
              "type": "tuple[2]"
            },
            {
              "internalType": "uint256",
              "name": "tHat",
              "type": "uint256"
            },
            {
              "internalType": "uint256",
              "name": "mu",
              "type": "uint256"
            },
            {
              "internalType": "uint256",
              "name": "c",
              "type": "uint256"
            },
            {
              "internalType": "uint256",
              "name": "s_sk",
              "type": "uint256"
            },
            {
              "internalType": "uint256",
              "name": "s_b",
              "type": "uint256"
            },
            {
              "internalType": "uint256",
              "name": "s_tau",
              "type": "uint256"
            },
            {
              "components": [
                {
                  "components": [
                    {
                      "internalType": "bytes32",
                      "name": "x",
                      "type": "bytes32"
                    },
                    {
                      "internalType": "bytes32",
                      "name": "y",
                      "type": "bytes32"
                    }
                  ],
                  "internalType": "struct Utils.G1Point[]",
                  "name": "ls",
                  "type": "tuple[]"
                },
                {
                  "components": [
                    {
                      "internalType": "bytes32",
                      "name": "x",
                      "type": "bytes32"
                    },
                    {
                      "internalType": "bytes32",
                      "name": "y",
                      "type": "bytes32"
                    }
                  ],
                  "internalType": "struct Utils.G1Point[]",
                  "name": "rs",
                  "type": "tuple[]"
                },
                {
                  "internalType": "uint256",
                  "name": "a",
                  "type": "uint256"
                },
                {
                  "internalType": "uint256",
                  "name": "b",
                  "type": "uint256"
                }
              ],
              "internalType": "struct RazeIP.Proof",
              "name": "ip_proof",
              "type": "tuple"
            }
          ],
          "internalType": "struct RazeRedeem.Proof",
          "name": "proof",
          "type": "tuple"
        }
      ],
      "stateMutability": "pure",
      "type": "function"
    }
  ],
  "bytecode": "0x60806040523480156200001157600080fd5b5060405162002a9838038062002a98833981810160405281019062000037919062000095565b806000806101000a81548173ffffffffffffffffffffffffffffffffffffffff021916908373ffffffffffffffffffffffffffffffffffffffff160217905550506200010f565b6000815190506200008f81620000f5565b92915050565b600060208284031215620000a857600080fd5b6000620000b8848285016200007e565b91505092915050565b6000620000ce82620000d5565b9050919050565b600073ffffffffffffffffffffffffffffffffffffffff82169050919050565b6200010081620000c1565b81146200010c57600080fd5b50565b612979806200011f6000396000f3fe608060405234801561001057600080fd5b50600436106100415760003560e01c8063bba28e3c14610046578063d039751f14610076578063f98f0cc9146100a6575b600080fd5b610060600480360381019061005b9190611deb565b6100d6565b60405161006d9190612601565b60405180910390f35b610090600480360381019061008b9190611e76565b61014e565b60405161009d919061252e565b60405180910390f35b6100c060048036038101906100bb9190611d81565b610ca8565b6040516100cd91906125df565b60405180910390f35b6100de61165a565b86816000018190525085816020018190525084816040018190525083816060018181525050828160800181905250818160a0019073ffffffffffffffffffffffffffffffffffffffff16908173ffffffffffffffffffffffffffffffffffffffff16815250509695505050505050565b60008061019f84600001518560200151866040015187606001518860a0015160405160200161018195949392919061258b565b6040516020818303038152906040528051906020012060001c610fce565b90506101a96116be565b6101e782856000015186602001516040516020016101c993929190612661565b6040516020818303038152906040528051906020012060001c610fce565b8160000181815250506001816020015160006020811061020357fe5b6020020181815250506001816101000181815250506000600190505b60208110156102b25761025682600001518360200151600184036020811061024357fe5b602002015161100190919063ffffffff16565b8260200151826020811061026657fe5b60200201818152505061029b8260200151826020811061028257fe5b602002015183610100015161103690919063ffffffff16565b82610100018181525050808060010191505061021f565b506102e981600001516040516020016102cb919061261d565b6040516020818303038152906040528051906020012060001c610fce565b81604001818152505061030a6002826040015161106b90919063ffffffff16565b81606001818152505061032e8160400151826060015161100190919063ffffffff16565b8160800181815250506103ac61036c826080015161035e640100000000856080015161100190919063ffffffff16565b6110d690919063ffffffff16565b61039e61038a846060015185604001516110d690919063ffffffff16565b84610100015161100190919063ffffffff16565b6110d690919063ffffffff16565b816101000181815250506103d281610100015185606001516110d690919063ffffffff16565b8160e001818152505060005b6020811015610427576104018160020a836060015161100190919063ffffffff16565b8260a00151826020811061041157fe5b60200201818152505080806001019150506103de565b5061046481604001518560400151604051602001610446929190612638565b6040516020818303038152906040528051906020012060001c610fce565b8160c00181815250506104ec6104b261048e8360c001518460c0015161100190919063ffffffff16565b866040015160016002811061049f57fe5b602002015161111690919063ffffffff16565b6104de8360c0015187604001516000600281106104cb57fe5b602002015161111690919063ffffffff16565b61114f90919063ffffffff16565b8161012001819052506104fd611723565b61054f6105236105108760a00151611193565b886040015161111690919063ffffffff16565b6105418760c001516105336111bf565b61111690919063ffffffff16565b61114f90919063ffffffff16565b81602001819052506105eb6105bf83606001516105b16105886105758a60a00151611193565b8b6000015161111690919063ffffffff16565b6105a38a60c001518c6020015161111690919063ffffffff16565b61114f90919063ffffffff16565b61111690919063ffffffff16565b6105dd8760e001516105cf6111bf565b61111690919063ffffffff16565b61114f90919063ffffffff16565b81604001819052506106ad61061c6106068760e00151611193565b61060e6111bf565b61111690919063ffffffff16565b61069f61063e886101000151610630611227565b61111690919063ffffffff16565b6106918960a0015161068361065789610120015161128f565b6106758a60e001516106676111bf565b61111690919063ffffffff16565b61114f90919063ffffffff16565b61111690919063ffffffff16565b61114f90919063ffffffff16565b61114f90919063ffffffff16565b81606001819052506106f86040518060400160405280600481526020017f52617a650000000000000000000000000000000000000000000000000000000081525087606001516112e3565b816080018190525061074f6107266107138760a00151611193565b886080015161111690919063ffffffff16565b6107418760c00151846080015161111690919063ffffffff16565b61114f90919063ffffffff16565b8160a001819052506107a58260c001518260200151836040015184606001518560a00151604051602001610787959493929190612698565b6040516020818303038152906040528051906020012060001c610fce565b8160000181815250508460a001518160000151146107c68760600151611350565b6040516020016107d691906124ab565b60405160208183030381529060405290610826576040517f08c379a000000000000000000000000000000000000000000000000000000000815260040161081d9190612549565b60405180910390fd5b5061082f611777565b6108658260000151604051602001610847919061261d565b6040516020818303038152906040528051906020012060001c610fce565b81608001818152505061088c816080015161087e6111bf565b61111690919063ffffffff16565b8160200181905250602067ffffffffffffffff811180156108ac57600080fd5b506040519080825280602002602001820160405280156108e657816020015b6108d36117b8565b8152602001906001900390816108cb5790505b50816040018190525060005b6020811015610a91576109d161091b8560200151836020811061091157fe5b6020020151611494565b60008054906101000a900473ffffffffffffffffffffffffffffffffffffffff1673ffffffffffffffffffffffffffffffffffffffff16633844923b846040518263ffffffff1660e01b8152600401610974919061261d565b604080518083038186803b15801561098b57600080fd5b505afa15801561099f573d6000803e3d6000fd5b505050506040513d601f19601f820116820180604052508101906109c39190611dc2565b61111690919063ffffffff16565b826040015182815181106109e157fe5b6020026020010181905250610a7c610a69610a438660a001518460208110610a0557fe5b6020020151610a35886040015189602001518760208110610a2257fe5b602002015161100190919063ffffffff16565b61103690919063ffffffff16565b84604001518481518110610a5357fe5b602002602001015161111690919063ffffffff16565b836060015161114f90919063ffffffff16565b826060018190525080806001019150506108f2565b50610b108160600151610b02610ac3610aad8760400151611193565b610ab56114ca565b61111690919063ffffffff16565b610af4610ae18860c001518c6020015161111690919063ffffffff16565b8b6000015161114f90919063ffffffff16565b61114f90919063ffffffff16565b61114f90919063ffffffff16565b8160000181905250610b54610b41610b2b8860800151611193565b610b33611227565b61111690919063ffffffff16565b826000015161114f90919063ffffffff16565b8160000181905250610b8d610b7a8760600151836020015161111690919063ffffffff16565b826000015161114f90919063ffffffff16565b816000018190525060008054906101000a900473ffffffffffffffffffffffffffffffffffffffff1673ffffffffffffffffffffffffffffffffffffffff166397fa72ae8260400151836020015184600001518a610120015186608001516040518663ffffffff1660e01b8152600401610c0b9594939291906124cd565b60206040518083038186803b158015610c2357600080fd5b505afa158015610c37573d6000803e3d6000fd5b505050506040513d601f19601f82011682018060405250810190610c5b9190611d58565b610c9a576040517f08c379a0000000000000000000000000000000000000000000000000000000008152600401610c919061256b565b60405180910390fd5b600194505050505092915050565b610cb06117d8565b6040518060400160405280610cc6846000611532565b8152602001610cd6846020611532565b81525081600001819052506040518060400160405280610cf7846040611532565b8152602001610d07846060611532565b815250816020018190525060405180604001604052806040518060400160405280610d33866080611532565b8152602001610d438660a0611532565b81525081526020016040518060400160405280610d618660c0611532565b8152602001610d718660e0611532565b8152508152508160400181905250610d8b82610100611532565b60001c816060018181525050610da382610120611532565b60001c816080018181525050610dbb82610140611532565b60001c8160a0018181525050610dd382610160611532565b60001c8160c0018181525050610deb82610180611532565b60001c8160e0018181525050610e03826101a0611532565b60001c81610100018181525050610e18611843565b600567ffffffffffffffff81118015610e3057600080fd5b50604051908082528060200260200182016040528015610e6a57816020015b610e576117b8565b815260200190600190039081610e4f5790505b508160000181905250600567ffffffffffffffff81118015610e8b57600080fd5b50604051908082528060200260200182016040528015610ec557816020015b610eb26117b8565b815260200190600190039081610eaa5790505b50816020018190525060005b6005811015610f8d576040518060400160405280610ef686604085026101c001611532565b8152602001610f0c86604085026101e001611532565b81525082600001518281518110610f1f57fe5b60200260200101819052506040518060400160405280610f4986604085600501026101c001611532565b8152602001610f6286604085600501026101e001611532565b81525082602001518281518110610f7557fe5b60200260200101819052508080600101915050610ed1565b50610f9a83610440611532565b60001c816040018181525050610fb283610460611532565b60001c8160600181815250508082610120018190525050919050565b60007f30644e72e131a029b85045b68181585d2833e84879b9709143e1f593f00000018281610ff957fe5b069050919050565b60007f30644e72e131a029b85045b68181585d2833e84879b9709143e1f593f00000018061102b57fe5b828409905092915050565b60007f30644e72e131a029b85045b68181585d2833e84879b9709143e1f593f00000018061106057fe5b828408905092915050565b6000807f30644e72e131a029b85045b68181585d2833e84879b9709143e1f593f0000001905060405160208152602080820152602060408201528460608201528360808201528160a082015260208160c08360055afa6110ca57600080fd5b80519250505092915050565b60008183101561110a5782827f30644e72e131a029b85045b68181585d2833e84879b9709143e1f593f0000001030161110e565b8183035b905092915050565b61111e6117b8565b604051835181526020840151602082015282604082015260408260608360075afa61114857600080fd5b5092915050565b6111576117b8565b6040518351815260208401516020820152825160408201526020830151606082015260408260808360065afa61118c57600080fd5b5092915050565b6000817f30644e72e131a029b85045b68181585d2833e84879b9709143e1f593f0000001039050919050565b6111c76117b8565b60405180604001604052807f077da99d806abd13c9f15ece5398525119d11e11e9836b2ee7d23f6159ad87d460001b81526020017f01485efa927f2ad41bff567eec88f32fb0a0f706588b4e41a8d587d008b7f87560001b815250905090565b61122f6117b8565b60405180604001604052807f01b7de3dcf359928dd19f643d54dc487478b68a5b2634f9f1903c9fb78331aef60001b81526020017f2bda7d3ae6a557c716477c108be0d0f94abc6c4dc6b1bd93caccbcceaaa71d6b60001b815250905090565b6112976117b8565b604051806040016040528083600001518152602001836020015160001c7f30644e72e131a029b85045b68181585d97816a916871ca8d3c208c16d87cfd470360001b8152509050919050565b6112eb6117b8565b6113487f30644e72e131a029b85045b68181585d97816a916871ca8d3c208c16d87cfd478484604051602001611322929190612483565b6040516020818303038152906040528051906020012060001c8161134257fe5b0661154b565b905092915050565b60606000821415611398576040518060400160405280600181526020017f3000000000000000000000000000000000000000000000000000000000000000815250905061148f565b600082905060005b600082146113c2578080600101915050600a82816113ba57fe5b0491506113a0565b60608167ffffffffffffffff811180156113db57600080fd5b506040519080825280601f01601f19166020018201604052801561140e5781602001600182028036833780820191505090505b50905060006001830390505b6000861461148757600a868161142c57fe5b0660300160f81b8282806001900393508151811061144657fe5b60200101907effffffffffffffffffffffffffffffffffffffffffffffffffffffffffffff1916908160001a905350600a868161147f57fe5b04955061141a565b819450505050505b919050565b60006114c38260027f30644e72e131a029b85045b68181585d2833e84879b9709143e1f593f00000010361106b565b9050919050565b6114d26117b8565b60405180604001604052807f2257118d30fe5064dda298b2fac15cf96fd51f0e7e3df342d0aed40b8d7bb15160001b81526020017f0d4250e7509c99370e6b15ebfe4f1aa5e65a691133357901aa4b0641f96c80a860001b815250905090565b6000604051826020850101518152805191505092915050565b6115536117b8565b60005b6001156115cc576000600361156c8560036115ef565b0190506115a681600460017f30644e72e131a029b85045b68181585d97816a916871ca8d3c208c16d87cfd4701816115a057fe5b046115ef565b9150806115b48360026115ef565b14156115c057506115cc565b60018401935050611556565b60405180604001604052808460001b81526020018260001b815250915050919050565b6000807f30644e72e131a029b85045b68181585d97816a916871ca8d3c208c16d87cfd47905060405160208152602080820152602060408201528460608201528360808201528160a082015260208160c08360055afa61164e57600080fd5b80519250505092915050565b6040518060c0016040528061166d6117b8565b815260200161167a6117b8565b81526020016116876117b8565b81526020016000815260200161169b6117b8565b8152602001600073ffffffffffffffffffffffffffffffffffffffff1681525090565b604051806101400160405280600081526020016116d961186b565b81526020016000815260200160008152602001600081526020016116fb61186b565b815260200160008152602001600081526020016000815260200161171d6117b8565b81525090565b6040518060c001604052806000815260200161173d6117b8565b815260200161174a6117b8565b81526020016117576117b8565b81526020016117646117b8565b81526020016117716117b8565b81525090565b6040518060a0016040528061178a6117b8565b81526020016117976117b8565b8152602001606081526020016117ab6117b8565b8152602001600081525090565b604051806040016040528060008019168152602001600080191681525090565b6040518061014001604052806117ec6117b8565b81526020016117f96117b8565b815260200161180661188e565b815260200160008152602001600081526020016000815260200160008152602001600081526020016000815260200161183d611843565b81525090565b6040518060800160405280606081526020016060815260200160008152602001600081525090565b604051806104000160405280602090602082028036833780820191505090505090565b60405180604001604052806002905b6118a56117b8565b81526020019060019003908161189d5790505090565b6000813590506118ca816128e7565b92915050565b600082601f8301126118e157600080fd5b60026118f46118ef82612719565b6126ec565b9150818385604084028201111561190a57600080fd5b60005b8381101561193a57816119208882611a5a565b84526020840193506040830192505060018101905061190d565b5050505092915050565b600082601f83011261195557600080fd5b81356119686119638261273b565b6126ec565b9150818183526020840193506020810190508385604084028201111561198d57600080fd5b60005b838110156119bd57816119a38882611a5a565b845260208401935060408301925050600181019050611990565b5050505092915050565b6000815190506119d6816128fe565b92915050565b6000813590506119eb81612915565b92915050565b600081519050611a0081612915565b92915050565b600082601f830112611a1757600080fd5b8135611a2a611a2582612763565b6126ec565b91508082526020830160208301858383011115611a4657600080fd5b611a5183828461288a565b50505092915050565b600060408284031215611a6c57600080fd5b611a7660406126ec565b90506000611a86848285016119dc565b6000830152506020611a9a848285016119dc565b60208301525092915050565b600060408284031215611ab857600080fd5b611ac260406126ec565b90506000611ad2848285016119f1565b6000830152506020611ae6848285016119f1565b60208301525092915050565b600060808284031215611b0457600080fd5b611b0e60806126ec565b9050600082013567ffffffffffffffff811115611b2a57600080fd5b611b3684828501611944565b600083015250602082013567ffffffffffffffff811115611b5657600080fd5b611b6284828501611944565b6020830152506040611b7684828501611d43565b6040830152506060611b8a84828501611d43565b60608301525092915050565b60006101e08284031215611ba957600080fd5b611bb46101406126ec565b90506000611bc484828501611a5a565b6000830152506040611bd884828501611a5a565b6020830152506080611bec848285016118d0565b604083015250610100611c0184828501611d43565b606083015250610120611c1684828501611d43565b608083015250610140611c2b84828501611d43565b60a083015250610160611c4084828501611d43565b60c083015250610180611c5584828501611d43565b60e0830152506101a0611c6a84828501611d43565b610100830152506101c082013567ffffffffffffffff811115611c8c57600080fd5b611c9884828501611af2565b6101208301525092915050565b60006101408284031215611cb857600080fd5b611cc260c06126ec565b90506000611cd284828501611a5a565b6000830152506040611ce684828501611a5a565b6020830152506080611cfa84828501611a5a565b60408301525060c0611d0e84828501611d43565b60608301525060e0611d2284828501611a5a565b608083015250610120611d37848285016118bb565b60a08301525092915050565b600081359050611d528161292c565b92915050565b600060208284031215611d6a57600080fd5b6000611d78848285016119c7565b91505092915050565b600060208284031215611d9357600080fd5b600082013567ffffffffffffffff811115611dad57600080fd5b611db984828501611a06565b91505092915050565b600060408284031215611dd457600080fd5b6000611de284828501611aa6565b91505092915050565b6000806000806000806101408789031215611e0557600080fd5b6000611e1389828a01611a5a565b9650506040611e2489828a01611a5a565b9550506080611e3589828a01611a5a565b94505060c0611e4689828a01611d43565b93505060e0611e5789828a01611a5a565b925050610120611e6989828a016118bb565b9150509295509295509295565b6000806101608385031215611e8a57600080fd5b6000611e9885828601611ca5565b92505061014083013567ffffffffffffffff811115611eb657600080fd5b611ec285828601611b96565b9150509250929050565b6000611ed883836121c0565b60408301905092915050565b611eed81612838565b82525050565b611efc81612838565b82525050565b611f0b816127a9565b611f1581846127e4565b9250611f208261278f565b8060005b83811015611f51578151611f388782611ecc565b9650611f43836127ca565b925050600181019050611f24565b505050505050565b611f62816127a9565b611f6c81846127ef565b9250611f778261278f565b8060005b83811015611fa8578151611f8f8782611ecc565b9650611f9a836127ca565b925050600181019050611f7b565b505050505050565b6000611fbb826127b4565b611fc581856127fa565b9350611fd083612799565b8060005b83811015612001578151611fe88882611ecc565b9750611ff3836127d7565b925050600181019050611fd4565b5085935050505092915050565b6000612019826127b4565b612023818561280b565b935061202e83612799565b8060005b8381101561205f5781516120468882611ecc565b9750612051836127d7565b925050600181019050612032565b5085935050505092915050565b6120758161284a565b82525050565b61208481612856565b82525050565b6000612095826127bf565b61209f818561281c565b93506120af818560208601612899565b6120b8816128d6565b840191505092915050565b60006120ce826127bf565b6120d8818561282d565b93506120e8818560208601612899565b80840191505092915050565b600061210160368361281c565b91507f5b52617a652072656465656d5d20496e6e65722070726f647563742070726f6f60008301527f6620766572696669636174696f6e206661696c65642e000000000000000000006020830152604082019050919050565b600061216760268361282d565b91507f5b52617a652072656465656d5d205369676d61206368616c6c656e676520666160008301527f696c65643a2000000000000000000000000000000000000000000000000000006020830152602682019050919050565b6040820160008201516121d6600085018261207b565b5060208201516121e9602085018261207b565b50505050565b604082016000820151612205600085018261207b565b506020820151612218602085018261207b565b50505050565b6000608083016000830151848203600086015261223b8282611fb0565b915050602083015184820360208601526122558282611fb0565b915050604083015161226a604086018261244e565b50606083015161227d606086018261244e565b508091505092915050565b600060808301600083015184820360008601526122a58282611fb0565b915050602083015184820360208601526122bf8282611fb0565b91505060408301516122d4604086018261244e565b5060608301516122e7606086018261244e565b508091505092915050565b60006101e08301600083015161230b60008601826121c0565b50602083015161231e60408601826121c0565b5060408301516123316080860182611f02565b50606083015161234561010086018261244e565b50608083015161235961012086018261244e565b5060a083015161236d61014086018261244e565b5060c083015161238161016086018261244e565b5060e083015161239561018086018261244e565b506101008301516123aa6101a086018261244e565b506101208301518482036101c08601526123c4828261221e565b9150508091505092915050565b610140820160008201516123e860008501826121c0565b5060208201516123fb60408501826121c0565b50604082015161240e60808501826121c0565b50606082015161242160c085018261244e565b50608082015161243460e08501826121c0565b5060a0820151612448610120850182611ee4565b50505050565b61245781612880565b82525050565b61246681612880565b82525050565b61247d61247882612880565b6128cc565b82525050565b600061248f82856120c3565b915061249b828461246c565b6020820191508190509392505050565b60006124b68261215a565b91506124c282846120c3565b915081905092915050565b600060e08201905081810360008301526124e7818861200e565b90506124f660208301876121ef565b61250360608301866121ef565b81810360a08301526125158185612288565b905061252460c083018461245d565b9695505050505050565b6000602082019050612543600083018461206c565b92915050565b60006020820190508181036000830152612563818461208a565b905092915050565b60006020820190508181036000830152612584816120f4565b9050919050565b6000610100820190506125a160008301886121ef565b6125ae60408301876121ef565b6125bb60808301866121ef565b6125c860c083018561245d565b6125d560e0830184611ef3565b9695505050505050565b600060208201905081810360008301526125f981846122f2565b905092915050565b60006101408201905061261760008301846123d1565b92915050565b6000602082019050612632600083018461245d565b92915050565b600060a08201905061264d600083018561245d565b61265a6020830184611f59565b9392505050565b600060a082019050612676600083018661245d565b61268360208301856121ef565b61269060608301846121ef565b949350505050565b6000610120820190506126ae600083018861245d565b6126bb60208301876121ef565b6126c860608301866121ef565b6126d560a08301856121ef565b6126e260e08301846121ef565b9695505050505050565b6000604051905081810181811067ffffffffffffffff8211171561270f57600080fd5b8060405250919050565b600067ffffffffffffffff82111561273057600080fd5b602082029050919050565b600067ffffffffffffffff82111561275257600080fd5b602082029050602081019050919050565b600067ffffffffffffffff82111561277a57600080fd5b601f19601f8301169050602081019050919050565b6000819050919050565b6000819050602082019050919050565b600060029050919050565b600081519050919050565b600081519050919050565b6000602082019050919050565b6000602082019050919050565b600081905092915050565b600081905092915050565b600082825260208201905092915050565b600082825260208201905092915050565b600082825260208201905092915050565b600081905092915050565b600061284382612860565b9050919050565b60008115159050919050565b6000819050919050565b600073ffffffffffffffffffffffffffffffffffffffff82169050919050565b6000819050919050565b82818337600083830152505050565b60005b838110156128b757808201518184015260208101905061289c565b838111156128c6576000848401525b50505050565b6000819050919050565b6000601f19601f8301169050919050565b6128f081612838565b81146128fb57600080fd5b50565b6129078161284a565b811461291257600080fd5b50565b61291e81612856565b811461292957600080fd5b50565b61293581612880565b811461294057600080fd5b5056fea2646970667358221220f36084252bf5837684ea986818df4534f8b9613faff3f869d6cdc142eab9464d64736f6c634300060c0033",
  "immutableReferences": {},
  "source": "// SPDX-License-Identifier: MIT\npragma solidity ^0.6.0;\npragma experimental ABIEncoderV2;\n\nimport \"./Utils.sol\";\nimport \"./RazeIP.sol\";\n\ncontract RazeRedeem {\n    using Utils for uint256;\n    using Utils for Utils.G1Point;\n\n    RazeIP ip;\n\n    struct Statement {\n        Utils.G1Point ct_l;\n        Utils.G1Point ct_r;\n        Utils.G1Point pk;\n        uint256 epoch; \n        Utils.G1Point u;\n        address sender;\n    }\n\n    struct Proof {\n        Utils.G1Point BA;\n        Utils.G1Point BS;\n\n        Utils.G1Point[2] tCommits;\n        uint256 tHat;\n        uint256 mu;\n\n        uint256 c;\n        uint256 s_sk;\n        uint256 s_b;\n        uint256 s_tau;\n\n        RazeIP.Proof ip_proof;\n    }\n\n    constructor(address _ip) public {\n        ip = RazeIP(_ip);\n    }\n\n    struct RedeemInfo {\n        uint256 y;\n        uint256[32] ys;\n        uint256 z;\n        uint256 z2; \n        uint256 z3;\n        uint256[32] twoTimesZSquared;\n        uint256 x;\n        uint256 t;\n        uint256 k;\n        Utils.G1Point tEval;\n    }\n\n    struct SigmaInfo {\n        uint256 c;\n        Utils.G1Point A_y;\n        Utils.G1Point A_b;\n        Utils.G1Point A_t;\n        Utils.G1Point gEpoch;\n        Utils.G1Point A_u;\n    }\n\n    struct IPInfo {\n        Utils.G1Point P;\n        Utils.G1Point u_x;\n        Utils.G1Point[] hPrimes;\n        Utils.G1Point hPrimeSum;\n        uint256 o;\n    }\n\n    function gSum() internal pure returns (Utils.G1Point memory) {\n        return Utils.G1Point(0x2257118d30fe5064dda298b2fac15cf96fd51f0e7e3df342d0aed40b8d7bb151, 0x0d4250e7509c99370e6b15ebfe4f1aa5e65a691133357901aa4b0641f96c80a8);\n    }\n\n    function verify(Statement memory statement, Proof memory proof) public view returns (bool) {\n        uint256 statementHash = uint256(keccak256(abi.encode(statement.ct_l, statement.ct_r, statement.pk, statement.epoch, statement.sender))).gMod();\n\n        RedeemInfo memory redeem_info;\n        redeem_info.y = uint256(keccak256(abi.encode(statementHash, proof.BA, proof.BS))).gMod();\n        redeem_info.ys[0] = 1;\n        redeem_info.k = 1;\n        for (uint256 i = 1; i < 32; i++) {\n            redeem_info.ys[i] = redeem_info.ys[i - 1].gMul(redeem_info.y);\n            redeem_info.k = redeem_info.k.gAdd(redeem_info.ys[i]);\n        }\n        redeem_info.z = uint256(keccak256(abi.encode(redeem_info.y))).gMod();\n        redeem_info.z2 = redeem_info.z.gExp(2);\n        redeem_info.z3 = redeem_info.z2.gMul(redeem_info.z); \n        redeem_info.k = redeem_info.k.gMul(redeem_info.z.gSub(redeem_info.z2)).gSub(redeem_info.z3.gMul(2 ** 32).gSub(redeem_info.z3));\n        redeem_info.t = proof.tHat.gSub(redeem_info.k);\n        for (uint256 i = 0; i < 32; i++) {\n            redeem_info.twoTimesZSquared[i] = redeem_info.z2.gMul(2 ** i);\n        }\n\n        redeem_info.x = uint256(keccak256(abi.encode(redeem_info.z, proof.tCommits))).gMod();\n        redeem_info.tEval = proof.tCommits[0].pMul(redeem_info.x).pAdd(proof.tCommits[1].pMul(redeem_info.x.gMul(redeem_info.x))); \n        SigmaInfo memory sigma_info;\n        sigma_info.A_y = Utils.g().pMul(proof.s_sk).pAdd(statement.pk.pMul(proof.c.gNeg()));\n        sigma_info.A_b = Utils.g().pMul(proof.s_b).pAdd(statement.ct_r.pMul(proof.s_sk).pAdd(statement.ct_l.pMul(proof.c.gNeg())).pMul(redeem_info.z2));\n        sigma_info.A_t = Utils.g().pMul(redeem_info.t).pAdd(redeem_info.tEval.pNeg()).pMul(proof.c).pAdd(Utils.h().pMul(proof.s_tau)).pAdd(Utils.g().pMul(proof.s_b.gNeg()));\n        sigma_info.gEpoch = Utils.mapInto(\"Raze\", statement.epoch);\n        sigma_info.A_u = sigma_info.gEpoch.pMul(proof.s_sk).pAdd(statement.u.pMul(proof.c.gNeg()));\n\n        sigma_info.c = uint256(keccak256(abi.encode(redeem_info.x, sigma_info.A_y, sigma_info.A_b, sigma_info.A_t, sigma_info.A_u))).gMod();\n        require(sigma_info.c == proof.c, string(abi.encodePacked(\"[Raze redeem] Sigma challenge failed: \", Utils.uint2str(statement.epoch))));\n\n        IPInfo memory ip_info;\n        ip_info.o = uint256(keccak256(abi.encode(sigma_info.c))).gMod();\n        ip_info.u_x = Utils.g().pMul(ip_info.o);\n        ip_info.hPrimes = new Utils.G1Point[](32);\n        for (uint256 i = 0; i < 32; i++) {\n            ip_info.hPrimes[i] = ip.hs(i).pMul(redeem_info.ys[i].gInv());\n            ip_info.hPrimeSum = ip_info.hPrimeSum.pAdd(ip_info.hPrimes[i].pMul(redeem_info.ys[i].gMul(redeem_info.z).gAdd(redeem_info.twoTimesZSquared[i])));\n        }\n        ip_info.P = proof.BA.pAdd(proof.BS.pMul(redeem_info.x)).pAdd(gSum().pMul(redeem_info.z.gNeg())).pAdd(ip_info.hPrimeSum);\n        ip_info.P = ip_info.P.pAdd(Utils.h().pMul(proof.mu.gNeg()));\n        ip_info.P = ip_info.P.pAdd(ip_info.u_x.pMul(proof.tHat));\n        require(ip.verifyInnerProduct(ip_info.hPrimes, ip_info.u_x, ip_info.P, proof.ip_proof, ip_info.o), \"[Raze redeem] Inner product proof verification failed.\");\n\n        return true;\n    }\n\n\n    function wrapStatement (Utils.G1Point memory ct_l, Utils.G1Point memory ct_r, Utils.G1Point memory pk, uint256 epoch, Utils.G1Point memory u, address sender) public pure returns (Statement memory statement) {\n        statement.ct_l = ct_l;\n        statement.ct_r = ct_r;\n        statement.pk = pk;\n        statement.epoch = epoch;\n        statement.u = u;\n        statement.sender = sender;\n        return statement;\n    }\n\n\n    function unserialize(bytes memory arr) public pure returns (Proof memory proof) {\n        proof.BA = Utils.G1Point(Utils.slice(arr, 0), Utils.slice(arr, 32));\n        proof.BS = Utils.G1Point(Utils.slice(arr, 64), Utils.slice(arr, 96));\n\n        proof.tCommits = [Utils.G1Point(Utils.slice(arr, 128), Utils.slice(arr, 160)), Utils.G1Point(Utils.slice(arr, 192), Utils.slice(arr, 224))];\n        proof.tHat = uint256(Utils.slice(arr, 256));\n        proof.mu = uint256(Utils.slice(arr, 288));\n\n        proof.c = uint256(Utils.slice(arr, 320));\n        proof.s_sk = uint256(Utils.slice(arr, 352));\n        proof.s_b = uint256(Utils.slice(arr, 384));\n        proof.s_tau = uint256(Utils.slice(arr, 416));\n\n        RazeIP.Proof memory ip_proof;\n        ip_proof.ls = new Utils.G1Point[](5);\n        ip_proof.rs = new Utils.G1Point[](5);\n        for (uint256 i = 0; i < 5; i++) { // 2^5 = 32.\n            ip_proof.ls[i] = Utils.G1Point(Utils.slice(arr, 448 + i * 64), Utils.slice(arr, 480 + i * 64));\n            ip_proof.rs[i] = Utils.G1Point(Utils.slice(arr, 448 + (5 + i) * 64), Utils.slice(arr, 480 + (5 + i) * 64));\n        }\n        ip_proof.a = uint256(Utils.slice(arr, 448 + 5 * 128));\n        ip_proof.b = uint256(Utils.slice(arr, 480 + 5 * 128));\n        proof.ip_proof = ip_proof;\n\n        return proof;\n    }\n}\n",
  "sourcePath": "/Users/jinwan/Desktop/raze_frontend-master/contracts/RazeRedeem.sol",
  "compiler": {
    "name": "solc",
    "version": "0.6.12+commit.27d51765.Emscripten.clang"
  },
  "schemaVersion": "3.4.1",
  "updatedAt": "2021-06-15T11:39:00.211Z",
  "devdoc": {
    "kind": "dev",
    "methods": {},
    "version": 1
  },
  "userdoc": {
    "kind": "user",
    "methods": {},
    "version": 1
  }
}