{
  "contractName": "RazeERC20",
  "abi": [
    {
      "inputs": [
        {
          "internalType": "address",
          "name": "_token",
          "type": "address"
        },
        {
          "internalType": "address",
          "name": "_transfer",
          "type": "address"
        },
        {
          "internalType": "address",
          "name": "_redeem",
          "type": "address"
        },
        {
          "internalType": "uint256",
          "name": "_unit",
          "type": "uint256"
        }
      ],
      "stateMutability": "nonpayable",
      "type": "constructor"
    },
    {
      "anonymous": false,
      "inputs": [
        {
          "indexed": false,
          "internalType": "string",
          "name": "label",
          "type": "string"
        },
        {
          "indexed": true,
          "internalType": "uint256",
          "name": "value",
          "type": "uint256"
        }
      ],
      "name": "LogUint256",
      "type": "event"
    },
    {
      "anonymous": false,
      "inputs": [
        {
          "components": [
            {
              "internalType": "bytes32",
              "name": "x",
              "type": "bytes32"
            },
            {
              "internalType": "bytes32",
              "name": "y",
              "type": "bytes32"
            }
          ],
          "indexed": false,
          "internalType": "struct Utils.G1Point[]",
          "name": "parties",
          "type": "tuple[]"
        }
      ],
      "name": "TransferOccurred",
      "type": "event"
    },
    {
      "inputs": [],
      "name": "MAX",
      "outputs": [
        {
          "internalType": "uint256",
          "name": "",
          "type": "uint256"
        }
      ],
      "stateMutability": "view",
      "type": "function"
    },
    {
      "inputs": [],
      "name": "balance_log",
      "outputs": [
        {
          "internalType": "uint256",
          "name": "",
          "type": "uint256"
        }
      ],
      "stateMutability": "view",
      "type": "function"
    },
    {
      "inputs": [],
      "name": "deposits_log",
      "outputs": [
        {
          "internalType": "uint256",
          "name": "",
          "type": "uint256"
        }
      ],
      "stateMutability": "view",
      "type": "function"
    },
    {
      "inputs": [
        {
          "components": [
            {
              "internalType": "bytes32",
              "name": "x",
              "type": "bytes32"
            },
            {
              "internalType": "bytes32",
              "name": "y",
              "type": "bytes32"
            }
          ],
          "internalType": "struct Utils.G1Point",
          "name": "y",
          "type": "tuple"
        }
      ],
      "name": "getAccountState",
      "outputs": [
        {
          "components": [
            {
              "internalType": "bytes32",
              "name": "x",
              "type": "bytes32"
            },
            {
              "internalType": "bytes32",
              "name": "y",
              "type": "bytes32"
            }
          ],
          "internalType": "struct Utils.G1Point[2]",
          "name": "y_available",
          "type": "tuple[2]"
        },
        {
          "components": [
            {
              "internalType": "bytes32",
              "name": "x",
              "type": "bytes32"
            },
            {
              "internalType": "bytes32",
              "name": "y",
              "type": "bytes32"
            }
          ],
          "internalType": "struct Utils.G1Point[2]",
          "name": "y_pending",
          "type": "tuple[2]"
        }
      ],
      "stateMutability": "view",
      "type": "function"
    },
    {
      "inputs": [
        {
          "components": [
            {
              "internalType": "bytes32",
              "name": "x",
              "type": "bytes32"
            },
            {
              "internalType": "bytes32",
              "name": "y",
              "type": "bytes32"
            }
          ],
          "internalType": "struct Utils.G1Point[]",
          "name": "y",
          "type": "tuple[]"
        },
        {
          "internalType": "uint256",
          "name": "round",
          "type": "uint256"
        }
      ],
      "name": "getBalance",
      "outputs": [
        {
          "components": [
            {
              "internalType": "bytes32",
              "name": "x",
              "type": "bytes32"
            },
            {
              "internalType": "bytes32",
              "name": "y",
              "type": "bytes32"
            }
          ],
          "internalType": "struct Utils.G1Point[2][]",
          "name": "accounts",
          "type": "tuple[2][]"
        }
      ],
      "stateMutability": "view",
      "type": "function"
    },
    {
      "inputs": [
        {
          "components": [
            {
              "internalType": "bytes32",
              "name": "x",
              "type": "bytes32"
            },
            {
              "internalType": "bytes32",
              "name": "y",
              "type": "bytes32"
            }
          ],
          "internalType": "struct Utils.G1Point",
          "name": "y",
          "type": "tuple"
        }
      ],
      "name": "getGuess",
      "outputs": [
        {
          "internalType": "bytes",
          "name": "y_guess",
          "type": "bytes"
        }
      ],
      "stateMutability": "view",
      "type": "function"
    },
    {
      "inputs": [],
      "name": "last_global_update",
      "outputs": [
        {
          "internalType": "uint256",
          "name": "",
          "type": "uint256"
        }
      ],
      "stateMutability": "view",
      "type": "function"
    },
    {
      "inputs": [
        {
          "internalType": "bytes32",
          "name": "",
          "type": "bytes32"
        }
      ],
      "name": "last_roll_over",
      "outputs": [
        {
          "internalType": "uint256",
          "name": "",
          "type": "uint256"
        }
      ],
      "stateMutability": "view",
      "type": "function"
    },
    {
      "inputs": [],
      "name": "mint_count_log",
      "outputs": [
        {
          "internalType": "uint256",
          "name": "",
          "type": "uint256"
        }
      ],
      "stateMutability": "view",
      "type": "function"
    },
    {
      "inputs": [],
      "name": "raze_agency",
      "outputs": [
        {
          "internalType": "address payable",
          "name": "",
          "type": "address"
        }
      ],
      "stateMutability": "view",
      "type": "function"
    },
    {
      "inputs": [],
      "name": "redeem_fee_denominator",
      "outputs": [
        {
          "internalType": "uint256",
          "name": "",
          "type": "uint256"
        }
      ],
      "stateMutability": "view",
      "type": "function"
    },
    {
      "inputs": [],
      "name": "redeem_fee_log",
      "outputs": [
        {
          "internalType": "uint256",
          "name": "",
          "type": "uint256"
        }
      ],
      "stateMutability": "view",
      "type": "function"
    },
    {
      "inputs": [],
      "name": "redeem_fee_numerator",
      "outputs": [
        {
          "internalType": "uint256",
          "name": "",
          "type": "uint256"
        }
      ],
      "stateMutability": "view",
      "type": "function"
    },
    {
      "inputs": [
        {
          "components": [
            {
              "internalType": "bytes32",
              "name": "x",
              "type": "bytes32"
            },
            {
              "internalType": "bytes32",
              "name": "y",
              "type": "bytes32"
            }
          ],
          "internalType": "struct Utils.G1Point",
          "name": "y",
          "type": "tuple"
        },
        {
          "internalType": "uint256",
          "name": "c",
          "type": "uint256"
        },
        {
          "internalType": "uint256",
          "name": "s",
          "type": "uint256"
        }
      ],
      "name": "register",
      "outputs": [],
      "stateMutability": "nonpayable",
      "type": "function"
    },
    {
      "inputs": [
        {
          "internalType": "bytes32",
          "name": "yHash",
          "type": "bytes32"
        }
      ],
      "name": "registered",
      "outputs": [
        {
          "internalType": "bool",
          "name": "",
          "type": "bool"
        }
      ],
      "stateMutability": "view",
      "type": "function"
    },
    {
      "inputs": [],
      "name": "round_base",
      "outputs": [
        {
          "internalType": "uint256",
          "name": "",
          "type": "uint256"
        }
      ],
      "stateMutability": "view",
      "type": "function"
    },
    {
      "inputs": [],
      "name": "round_len",
      "outputs": [
        {
          "internalType": "uint256",
          "name": "",
          "type": "uint256"
        }
      ],
      "stateMutability": "view",
      "type": "function"
    },
    {
      "inputs": [
        {
          "internalType": "address payable",
          "name": "_raze_agency",
          "type": "address"
        }
      ],
      "name": "setRazeAgency",
      "outputs": [],
      "stateMutability": "nonpayable",
      "type": "function"
    },
    {
      "inputs": [
        {
          "internalType": "uint256",
          "name": "numerator",
          "type": "uint256"
        },
        {
          "internalType": "uint256",
          "name": "denominator",
          "type": "uint256"
        }
      ],
      "name": "setRedeemFeeStrategy",
      "outputs": [],
      "stateMutability": "nonpayable",
      "type": "function"
    },
    {
      "inputs": [
        {
          "internalType": "uint256",
          "name": "_round_base",
          "type": "uint256"
        }
      ],
      "name": "setRoundBase",
      "outputs": [],
      "stateMutability": "nonpayable",
      "type": "function"
    },
    {
      "inputs": [
        {
          "internalType": "uint256",
          "name": "_round_len",
          "type": "uint256"
        }
      ],
      "name": "setRoundLen",
      "outputs": [],
      "stateMutability": "nonpayable",
      "type": "function"
    },
    {
      "inputs": [
        {
          "internalType": "uint256",
          "name": "numerator",
          "type": "uint256"
        },
        {
          "internalType": "uint256",
          "name": "denominator",
          "type": "uint256"
        }
      ],
      "name": "setTransferFeeStrategy",
      "outputs": [],
      "stateMutability": "nonpayable",
      "type": "function"
    },
    {
      "inputs": [
        {
          "internalType": "uint256",
          "name": "_unit",
          "type": "uint256"
        }
      ],
      "name": "setUnit",
      "outputs": [],
      "stateMutability": "nonpayable",
      "type": "function"
    },
    {
      "inputs": [
        {
          "components": [
            {
              "internalType": "bytes32",
              "name": "x",
              "type": "bytes32"
            },
            {
              "internalType": "bytes32",
              "name": "y",
              "type": "bytes32"
            }
          ],
          "internalType": "struct Utils.G1Point[]",
          "name": "C",
          "type": "tuple[]"
        },
        {
          "components": [
            {
              "internalType": "bytes32",
              "name": "x",
              "type": "bytes32"
            },
            {
              "internalType": "bytes32",
              "name": "y",
              "type": "bytes32"
            }
          ],
          "internalType": "struct Utils.G1Point",
          "name": "D",
          "type": "tuple"
        },
        {
          "components": [
            {
              "internalType": "bytes32",
              "name": "x",
              "type": "bytes32"
            },
            {
              "internalType": "bytes32",
              "name": "y",
              "type": "bytes32"
            }
          ],
          "internalType": "struct Utils.G1Point[]",
          "name": "y",
          "type": "tuple[]"
        },
        {
          "components": [
            {
              "internalType": "bytes32",
              "name": "x",
              "type": "bytes32"
            },
            {
              "internalType": "bytes32",
              "name": "y",
              "type": "bytes32"
            }
          ],
          "internalType": "struct Utils.G1Point",
          "name": "u",
          "type": "tuple"
        },
        {
          "internalType": "bytes",
          "name": "proof",
          "type": "bytes"
        }
      ],
      "name": "transfer",
      "outputs": [],
      "stateMutability": "payable",
      "type": "function"
    },
    {
      "inputs": [],
      "name": "transfer_fee_denominator",
      "outputs": [
        {
          "internalType": "uint256",
          "name": "",
          "type": "uint256"
        }
      ],
      "stateMutability": "view",
      "type": "function"
    },
    {
      "inputs": [],
      "name": "transfer_fee_log",
      "outputs": [
        {
          "internalType": "uint256",
          "name": "",
          "type": "uint256"
        }
      ],
      "stateMutability": "view",
      "type": "function"
    },
    {
      "inputs": [],
      "name": "transfer_fee_numerator",
      "outputs": [
        {
          "internalType": "uint256",
          "name": "",
          "type": "uint256"
        }
      ],
      "stateMutability": "view",
      "type": "function"
    },
    {
      "inputs": [],
      "name": "unit",
      "outputs": [
        {
          "internalType": "uint256",
          "name": "",
          "type": "uint256"
        }
      ],
      "stateMutability": "view",
      "type": "function"
    },
    {
      "inputs": [],
      "name": "users_log",
      "outputs": [
        {
          "internalType": "uint256",
          "name": "",
          "type": "uint256"
        }
      ],
      "stateMutability": "view",
      "type": "function"
    },
    {
      "inputs": [
        {
          "components": [
            {
              "internalType": "bytes32",
              "name": "x",
              "type": "bytes32"
            },
            {
              "internalType": "bytes32",
              "name": "y",
              "type": "bytes32"
            }
          ],
          "internalType": "struct Utils.G1Point",
          "name": "y",
          "type": "tuple"
        },
        {
          "internalType": "uint256",
          "name": "unitAmount",
          "type": "uint256"
        },
        {
          "internalType": "bytes",
          "name": "encGuess",
          "type": "bytes"
        }
      ],
      "name": "mint",
      "outputs": [],
      "stateMutability": "nonpayable",
      "type": "function"
    },
    {
      "inputs": [
        {
          "components": [
            {
              "internalType": "bytes32",
              "name": "x",
              "type": "bytes32"
            },
            {
              "internalType": "bytes32",
              "name": "y",
              "type": "bytes32"
            }
          ],
          "internalType": "struct Utils.G1Point",
          "name": "y",
          "type": "tuple"
        },
        {
          "internalType": "uint256",
          "name": "unitAmount",
          "type": "uint256"
        },
        {
          "components": [
            {
              "internalType": "bytes32",
              "name": "x",
              "type": "bytes32"
            },
            {
              "internalType": "bytes32",
              "name": "y",
              "type": "bytes32"
            }
          ],
          "internalType": "struct Utils.G1Point",
          "name": "u",
          "type": "tuple"
        },
        {
          "internalType": "bytes",
          "name": "proof",
          "type": "bytes"
        },
        {
          "internalType": "bytes",
          "name": "encGuess",
          "type": "bytes"
        }
      ],
      "name": "redeem",
      "outputs": [],
      "stateMutability": "nonpayable",
      "type": "function"
    }
  ],
  "bytecode": "0x60806040526018600155600060025560016004556064600555600160065560056007556000600a556000600b556000600c556000600d556000600e556000600f5560006014553480156200005257600080fd5b5060405162005c9d38038062005c9d8339818101604052810190620000789190620001c1565b82828233600360006101000a81548173ffffffffffffffffffffffffffffffffffffffff021916908373ffffffffffffffffffffffffffffffffffffffff16021790555082600860006101000a81548173ffffffffffffffffffffffffffffffffffffffff021916908373ffffffffffffffffffffffffffffffffffffffff16021790555081600960006101000a81548173ffffffffffffffffffffffffffffffffffffffff021916908373ffffffffffffffffffffffffffffffffffffffff1602179055508060008190555050505083601660006101000a81548173ffffffffffffffffffffffffffffffffffffffff021916908373ffffffffffffffffffffffffffffffffffffffff160217905550505050506200029f565b600081519050620001a4816200026b565b92915050565b600081519050620001bb8162000285565b92915050565b60008060008060808587031215620001d857600080fd5b6000620001e88782880162000193565b9450506020620001fb8782880162000193565b93505060406200020e8782880162000193565b92505060606200022187828801620001aa565b91505092959194509250565b60006200023a8262000241565b9050919050565b600073ffffffffffffffffffffffffffffffffffffffff82169050919050565b6000819050919050565b62000276816200022d565b81146200028257600080fd5b50565b620002908162000261565b81146200029c57600080fd5b50565b6159ee80620002af6000396000f3fe6080604052600436106101d85760003560e01c806384f9b07a11610102578063b5753dee11610095578063dcfa1e5d11610064578063dcfa1e5d146106b1578063ddf911da146106dc578063eff4d17814610707578063f487e95214610723576101d8565b8063b5753dee14610607578063d11fa8c014610632578063d49d51811461065b578063d90d3a5814610686576101d8565b8063a568ce51116100d1578063a568ce5114610538578063a9b05a5614610576578063aae07890146105b3578063b47e51d7146105dc576101d8565b806384f9b07a1461048e5780638ad747e0146104b9578063907af6c0146104e45780639b0d85d31461050f576101d8565b8063566a8e621161017a57806375236e3f1161014957806375236e3f146103e6578063767b7d85146104115780637715a74c1461043a5780637b5b3b9f14610465576101d8565b8063566a8e621461033c57806362c4d3a31461036757806363bb012c146103925780637207f20e146103bd576101d8565b80632a6b024b116101b65780632a6b024b146102705780634301a344146102995780634ad729e0146102d65780635524d548146102ff576101d8565b80630221c717146101dd57806327d084e7146102085780632811112014610245575b600080fd5b3480156101e957600080fd5b506101f261074c565b6040516101ff9190615651565b60405180910390f35b34801561021457600080fd5b5061022f600480360381019061022a9190613b98565b610752565b60405161023c9190615133565b60405180910390f35b34801561025157600080fd5b5061025a6109ff565b6040516102679190615651565b60405180910390f35b34801561027c57600080fd5b5061029760048036038101906102929190613c67565b610a05565b005b3480156102a557600080fd5b506102c060048036038101906102bb9190613c15565b610b13565b6040516102cd9190615651565b60405180910390f35b3480156102e257600080fd5b506102fd60048036038101906102f89190613cce565b610b2b565b005b34801561030b57600080fd5b5061032660048036038101906103219190613c15565b610d77565b604051610333919061522d565b60405180910390f35b34801561034857600080fd5b50610351610f85565b60405161035e9190615651565b60405180910390f35b34801561037357600080fd5b5061037c610f8b565b6040516103899190615651565b60405180910390f35b34801561039e57600080fd5b506103a7610f91565b6040516103b49190615651565b60405180910390f35b3480156103c957600080fd5b506103e460048036038101906103df9190613eda565b610f97565b005b3480156103f257600080fd5b506103fb611039565b6040516104089190615651565b60405180910390f35b34801561041d57600080fd5b5061043860048036038101906104339190613eb1565b61103f565b005b34801561044657600080fd5b5061044f6110d9565b60405161045c9190615081565b60405180910390f35b34801561047157600080fd5b5061048c60048036038101906104879190613eb1565b6110ff565b005b34801561049a57600080fd5b506104a3611199565b6040516104b09190615651565b60405180910390f35b3480156104c557600080fd5b506104ce61119f565b6040516104db9190615651565b60405180910390f35b3480156104f057600080fd5b506104f96111a5565b6040516105069190615651565b60405180910390f35b34801561051b57600080fd5b5061053660048036038101906105319190613d75565b6111ab565b005b34801561054457600080fd5b5061055f600480360381019061055a9190613c3e565b61137c565b60405161056d929190615155565b60405180910390f35b34801561058257600080fd5b5061059d60048036038101906105989190613c3e565b611495565b6040516105aa9190615248565b60405180910390f35b3480156105bf57600080fd5b506105da60048036038101906105d59190613eb1565b611576565b005b3480156105e857600080fd5b506105f1611610565b6040516105fe9190615651565b60405180910390f35b34801561061357600080fd5b5061061c611616565b6040516106299190615651565b60405180910390f35b34801561063e57600080fd5b5061065960048036038101906106549190613ab0565b61161c565b005b34801561066757600080fd5b506106706116f0565b60405161067d9190615651565b60405180910390f35b34801561069257600080fd5b5061069b6116f8565b6040516106a89190615651565b60405180910390f35b3480156106bd57600080fd5b506106c66116fe565b6040516106d39190615651565b60405180910390f35b3480156106e857600080fd5b506106f1611704565b6040516106fe9190615651565b60405180910390f35b610721600480360381019061071c9190613ad9565b61170a565b005b34801561072f57600080fd5b5061074a60048036038101906107459190613eda565b611f8e565b005b60015481565b60606000835190508067ffffffffffffffff8111801561077157600080fd5b506040519080825280602002602001820160405280156107ab57816020015b610798612d02565b8152602001906001900390816107905790505b50915060005b818110156109f75760008582815181106107c757fe5b60200260200101516040516020016107df919061556a565b60405160208183030381529060405280519060200120905060106000828152602001908152602001600020600280602002604051908101604052809291906000905b8282101561085d578382600202016040518060400160405290816000820154815260200160018201548152505081526020019060010190610821565b5050505084838151811061086d57fe5b602002602001018190525084601260008381526020019081526020016000205410156109e95761089b612d02565b60116000838152602001908152602001600020600280602002604051908101604052809291906000905b828210156109015783826002020160405180604001604052908160008201548152602001600182015481525050815260200190600101906108c5565b50505050905061094f8160006002811061091757fe5b602002015186858151811061092857fe5b602002602001015160006002811061093c57fe5b602002015161203090919063ffffffff16565b85848151811061095b57fe5b602002602001015160006002811061096f57fe5b60200201819052506109bf8160016002811061098757fe5b602002015186858151811061099857fe5b60200260200101516001600281106109ac57fe5b602002015161203090919063ffffffff16565b8584815181106109cb57fe5b60200260200101516001600281106109df57fe5b6020020181905250505b5080806001019150506107b1565b505092915050565b600f5481565b610a10838383612074565b6000610a1b83612260565b9050601660009054906101000a900473ffffffffffffffffffffffffffffffffffffffff1673ffffffffffffffffffffffffffffffffffffffff166323b872dd3330846040518463ffffffff1660e01b8152600401610a7c9392919061509c565b602060405180830381600087803b158015610a9657600080fd5b505af1158015610aaa573d6000803e3d6000fd5b505050506040513d601f19601f82011682018060405250810190610ace9190613bec565b610b0d576040517f08c379a0000000000000000000000000000000000000000000000000000000008152600401610b04906154ca565b60405180910390fd5b50505050565b60126020528060005260406000206000915090505481565b6000610b3685612260565b90506000600554600454830281610b4957fe5b049050610b5987878787876122c2565b6000811115610c7e57601660009054906101000a900473ffffffffffffffffffffffffffffffffffffffff1673ffffffffffffffffffffffffffffffffffffffff1663a9059cbb600360009054906101000a900473ffffffffffffffffffffffffffffffffffffffff16836040518363ffffffff1660e01b8152600401610be19291906150d3565b602060405180830381600087803b158015610bfb57600080fd5b505af1158015610c0f573d6000803e3d6000fd5b505050506040513d601f19601f82011682018060405250810190610c339190613bec565b610c72576040517f08c379a0000000000000000000000000000000000000000000000000000000008152600401610c699061554a565b60405180910390fd5b80600c5401600c819055505b601660009054906101000a900473ffffffffffffffffffffffffffffffffffffffff1673ffffffffffffffffffffffffffffffffffffffff1663a9059cbb338385036040518363ffffffff1660e01b8152600401610cdd9291906150d3565b602060405180830381600087803b158015610cf757600080fd5b505af1158015610d0b573d6000803e3d6000fd5b505050506040513d601f19601f82011682018060405250810190610d2f9190613bec565b610d6e576040517f08c379a0000000000000000000000000000000000000000000000000000000008152600401610d659061538a565b60405180910390fd5b50505050505050565b6000610d81612d2f565b60405180604001604052806000801b81526020016000801b8152509050610da6612d4f565b604051806040016040528060106000878152602001908152602001600020600280602002604051908101604052809291906000905b82821015610e17578382600202016040518060400160405290816000820154815260200160018201548152505081526020019060010190610ddb565b50505050815260200160116000878152602001908152602001600020600280602002604051908101604052809291906000905b82821015610e86578382600202016040518060400160405290816000820154815260200160018201548152505081526020019060010190610e4a565b505050508152509050610ec48282600060028110610ea057fe5b6020020151600060028110610eb157fe5b60200201516128d690919063ffffffff16565b8015610f015750610f008282600060028110610edc57fe5b6020020151600160028110610eed57fe5b60200201516128d690919063ffffffff16565b5b8015610f3e5750610f3d8282600160028110610f1957fe5b6020020151600060028110610f2a57fe5b60200201516128d690919063ffffffff16565b5b8015610f7b5750610f7a8282600160028110610f5657fe5b6020020151600160028110610f6757fe5b60200201516128d690919063ffffffff16565b5b1592505050919050565b60145481565b600e5481565b600a5481565b600360009054906101000a900473ffffffffffffffffffffffffffffffffffffffff1673ffffffffffffffffffffffffffffffffffffffff163373ffffffffffffffffffffffffffffffffffffffff1614611027576040517f08c379a000000000000000000000000000000000000000000000000000000000815260040161101e9061544a565b60405180910390fd5b81600681905550806007819055505050565b600d5481565b600360009054906101000a900473ffffffffffffffffffffffffffffffffffffffff1673ffffffffffffffffffffffffffffffffffffffff163373ffffffffffffffffffffffffffffffffffffffff16146110cf576040517f08c379a00000000000000000000000000000000000000000000000000000000081526004016110c6906154aa565b60405180910390fd5b8060018190555050565b600360009054906101000a900473ffffffffffffffffffffffffffffffffffffffff1681565b600360009054906101000a900473ffffffffffffffffffffffffffffffffffffffff1673ffffffffffffffffffffffffffffffffffffffff163373ffffffffffffffffffffffffffffffffffffffff161461118f576040517f08c379a0000000000000000000000000000000000000000000000000000000008152600401611186906152ea565b60405180910390fd5b8060028190555050565b600b5481565b60025481565b60005481565b6111b3612d2f565b6111f96111d16111c2856128fe565b8661292a90919063ffffffff16565b6111eb846111dd612963565b61292a90919063ffffffff16565b61203090919063ffffffff16565b90506000611233308684604051602001611215939291906150fc565b6040516020818303038152906040528051906020012060001c6129cb565b9050838114611277576040517f08c379a000000000000000000000000000000000000000000000000000000000815260040161126e906153ea565b60405180910390fd5b60008560405160200161128a919061556a565b6040516020818303038152906040528051906020012090506112ab81610d77565b156112eb576040517f08c379a00000000000000000000000000000000000000000000000000000000081526004016112e29061532a565b60405180910390fd5b856011600083815260200190815260200160002060006002811061130b57fe5b60020201600082015181600001556020820151816001015590505061132e612963565b6011600083815260200190815260200160002060016002811061134d57fe5b6002020160008201518160000155602082015181600101559050506001600b5401600b81905550505050505050565b611384612d02565b61138c612d02565b60008360405160200161139f919061556a565b60405160208183030381529060405280519060200120905060106000828152602001908152602001600020600280602002604051908101604052809291906000905b8282101561141d5783826002020160405180604001604052908160008201548152602001600182015481525050815260200190600101906113e1565b50505050925060116000828152602001908152602001600020600280602002604051908101604052809291906000905b8282101561148957838260020201604051806040016040529081600082015481526020016001820154815250508152602001906001019061144d565b50505050915050915091565b60606000826040516020016114aa919061556a565b604051602081830303815290604052805190602001209050601560008281526020019081526020016000208054600181600116156101000203166002900480601f0160208091040260200160405190810160405280929190818152602001828054600181600116156101000203166002900480156115695780601f1061153e57610100808354040283529160200191611569565b820191906000526020600020905b81548152906001019060200180831161154c57829003601f168201915b5050505050915050919050565b600360009054906101000a900473ffffffffffffffffffffffffffffffffffffffff1673ffffffffffffffffffffffffffffffffffffffff163373ffffffffffffffffffffffffffffffffffffffff1614611606576040517f08c379a00000000000000000000000000000000000000000000000000000000081526004016115fd9061540a565b60405180910390fd5b8060008190555050565b600c5481565b60075481565b600360009054906101000a900473ffffffffffffffffffffffffffffffffffffffff1673ffffffffffffffffffffffffffffffffffffffff163373ffffffffffffffffffffffffffffffffffffffff16146116ac576040517f08c379a00000000000000000000000000000000000000000000000000000000081526004016116a39061530a565b60405180910390fd5b80600360006101000a81548173ffffffffffffffffffffffffffffffffffffffff021916908373ffffffffffffffffffffffffffffffffffffffff16021790555050565b63ffffffff81565b60065481565b60055481565b60045481565b60005a905060008451905060608167ffffffffffffffff8111801561172e57600080fd5b5060405190808252806020026020018201604052801561176857816020015b611755612d2f565b81526020019060019003908161174d5790505b50905060608267ffffffffffffffff8111801561178457600080fd5b506040519080825280602002602001820160405280156117be57816020015b6117ab612d2f565b8152602001906001900390816117a35790505b50905082895114611804576040517f08c379a00000000000000000000000000000000000000000000000000000000081526004016117fb9061528a565b60405180910390fd5b60005b83811015611ae557600088828151811061181d57fe5b6020026020010151604051602001611835919061556a565b60405160208183030381529060405280519060200120905061185681610d77565b611895576040517f08c379a000000000000000000000000000000000000000000000000000000000815260040161188c906153ca565b60405180910390fd5b61189e816129fe565b6118a6612d02565b60116000838152602001908152602001600020600280602002604051908101604052809291906000905b8282101561190c5783826002020160405180604001604052908160008201548152602001600182015481525050815260200190600101906118d0565b5050505090506119498c848151811061192157fe5b60200260200101518260006002811061193657fe5b602002015161203090919063ffffffff16565b6011600084815260200190815260200160002060006002811061196857fe5b6002020160008201518160000155602082015181600101559050506119a78b8260016002811061199457fe5b602002015161203090919063ffffffff16565b601160008481526020019081526020016000206001600281106119c657fe5b60020201600082015181600001556020820151816001015590505060106000838152602001908152602001600020600280602002604051908101604052809291906000905b82821015611a47578382600202016040518060400160405290816000820154815260200160018201548152505081526020019060010190611a0b565b505050509050611a848c8481518110611a5c57fe5b602002602001015182600060028110611a7157fe5b602002015161203090919063ffffffff16565b858481518110611a9057fe5b6020026020010181905250611abf8b82600160028110611aac57fe5b602002015161203090919063ffffffff16565b848481518110611acb57fe5b602002602001018190525050508080600101915050611807565b50600086604051602001611af9919061556a565b60405160208183030381529060405280519060200120905060005b601380549050811015611b88578160138281548110611b2f57fe5b90600052602060002001541415611b7b576040517f08c379a0000000000000000000000000000000000000000000000000000000008152600401611b729061552a565b60405180910390fd5b8080600101915050611b14565b506013819080600181540180825580915050600190039060005260206000200160009091909190915055611bba612d7c565b600860009054906101000a900473ffffffffffffffffffffffffffffffffffffffff1673ffffffffffffffffffffffffffffffffffffffff16639471ac0a85858e8e8e6014548f6040518863ffffffff1660e01b8152600401611c2397969594939291906151a1565b60006040518083038186803b158015611c3b57600080fd5b505afa158015611c4f573d6000803e3d6000fd5b505050506040513d6000823e3d601f19601f82011682018060405250810190611c789190613e70565b9050611c82612dc5565b600860009054906101000a900473ffffffffffffffffffffffffffffffffffffffff1673ffffffffffffffffffffffffffffffffffffffff1663f98f0cc9896040518263ffffffff1660e01b8152600401611cdd9190615248565b60006040518083038186803b158015611cf557600080fd5b505afa158015611d09573d6000803e3d6000fd5b505050506040513d6000823e3d601f19601f82011682018060405250810190611d329190613e05565b9050600860009054906101000a900473ffffffffffffffffffffffffffffffffffffffff1673ffffffffffffffffffffffffffffffffffffffff1663a529878e83836040518363ffffffff1660e01b8152600401611d9192919061561a565b60206040518083038186803b158015611da957600080fd5b505afa158015611dbd573d6000803e3d6000fd5b505050506040513d601f19601f82011682018060405250810190611de19190613bec565b611e20576040517f08c379a0000000000000000000000000000000000000000000000000000000008152600401611e17906152aa565b60405180910390fd5b60005a8803905060003a600754600654840281611e3957fe5b040290506000811115611efe5780341015611e89576040517f08c379a0000000000000000000000000000000000000000000000000000000008152600401611e809061534a565b60405180910390fd5b600360009054906101000a900473ffffffffffffffffffffffffffffffffffffffff1673ffffffffffffffffffffffffffffffffffffffff166108fc829081150290604051600060405180830381858888f19350505050158015611ef1573d6000803e3d6000fd5b5080600d5401600d819055505b3373ffffffffffffffffffffffffffffffffffffffff166108fc8234039081150290604051600060405180830381858888f19350505050158015611f46573d6000803e3d6000fd5b507f9b814ae8a45a4c40d4c60ffa92e0c4b76dec41407cb28b43df9daffa3685f9ac8c604051611f76919061517f565b60405180910390a15050505050505050505050505050565b600360009054906101000a900473ffffffffffffffffffffffffffffffffffffffff1673ffffffffffffffffffffffffffffffffffffffff163373ffffffffffffffffffffffffffffffffffffffff161461201e576040517f08c379a00000000000000000000000000000000000000000000000000000000081526004016120159061548a565b60405180910390fd5b81600481905550806005819055505050565b612038612d2f565b6040518351815260208401516020820152825160408201526020830151606082015260408260808360065afa61206d57600080fd5b5092915050565b63ffffffff8211158015612090575063ffffffff82600a540111155b6120cf576040517f08c379a00000000000000000000000000000000000000000000000000000000081526004016120c6906152ca565b60405180910390fd5b81600a6000828254019250508190555081600e600082825401925050819055506001600f60008282540192505081905550600083604051602001612113919061556a565b60405160208183030381529060405280519060200120905061213481610d77565b612173576040517f08c379a000000000000000000000000000000000000000000000000000000000815260040161216a9061536a565b60405180910390fd5b61217c816129fe565b612184612d2f565b601160008381526020019081526020016000206000600281106121a357fe5b600202016040518060400160405290816000820154815260200160018201548152505090506121f46121e5856121d7612963565b61292a90919063ffffffff16565b8261203090919063ffffffff16565b9050806011600084815260200190815260200160002060006002811061221657fe5b60020201600082015181600001556020820151816001015590505082601560008481526020019081526020016000209080519060200190612258929190612ea5565b505050505050565b600081600011158015612277575063ffffffff8211155b6122b6576040517f08c379a00000000000000000000000000000000000000000000000000000000081526004016122ad906154ea565b60405180910390fd5b60005482029050919050565b83600a541015612307576040517f08c379a00000000000000000000000000000000000000000000000000000000081526004016122fe9061526a565b60405180910390fd5b83600a6000828254039250508190555060008560405160200161232a919061556a565b60405160208183030381529060405280519060200120905061234b81610d77565b61238a576040517f08c379a0000000000000000000000000000000000000000000000000000000008152600401612381906153aa565b60405180910390fd5b612393816129fe565b61239b612d02565b60116000838152602001908152602001600020600280602002604051908101604052809291906000905b828210156124015783826002020160405180604001604052908160008201548152602001600182015481525050815260200190600101906123c5565b50505050905061244c61242c612416886128fe565b61241e612963565b61292a90919063ffffffff16565b8260006002811061243957fe5b602002015161203090919063ffffffff16565b6011600084815260200190815260200160002060006002811061246b57fe5b60020201600082015181600001556020820151816001015590505060106000838152602001908152602001600020600280602002604051908101604052809291906000905b828210156124ec5783826002020160405180604001604052908160008201548152602001600182015481525050815260200190600101906124b0565b505050509050612537612517612501886128fe565b612509612963565b61292a90919063ffffffff16565b8260006002811061252457fe5b602002015161203090919063ffffffff16565b8160006002811061254457fe5b602002018190525060008560405160200161255f919061556a565b60405160208183030381529060405280519060200120905060005b6013805490508110156125ee57816013828154811061259557fe5b906000526020600020015414156125e1576040517f08c379a00000000000000000000000000000000000000000000000000000000081526004016125d89061550a565b60405180910390fd5b808060010191505061257a565b5060138190806001815401808255809150506001900390600052602060002001600090919091909150558360156000858152602001908152602001600020908051906020019061263f929190612ea5565b50612648612f25565b600960009054906101000a900473ffffffffffffffffffffffffffffffffffffffff1673ffffffffffffffffffffffffffffffffffffffff1663bba28e3c8460006002811061269357fe5b6020020151856001600281106126a557fe5b60200201518c6014548c336040518763ffffffff1660e01b81526004016126d196959493929190615585565b6101406040518083038186803b1580156126ea57600080fd5b505afa1580156126fe573d6000803e3d6000fd5b505050506040513d601f19601f820116820180604052508101906127229190613e46565b905061272c612f89565b600960009054906101000a900473ffffffffffffffffffffffffffffffffffffffff1673ffffffffffffffffffffffffffffffffffffffff1663f98f0cc9886040518263ffffffff1660e01b81526004016127879190615248565b60006040518083038186803b15801561279f57600080fd5b505afa1580156127b3573d6000803e3d6000fd5b505050506040513d6000823e3d601f19601f820116820180604052508101906127dc9190613dc4565b9050600960009054906101000a900473ffffffffffffffffffffffffffffffffffffffff1673ffffffffffffffffffffffffffffffffffffffff1663d039751f83836040518363ffffffff1660e01b815260040161283b9291906155e8565b60206040518083038186803b15801561285357600080fd5b505afa158015612867573d6000803e3d6000fd5b505050506040513d601f19601f8201168201806040525081019061288b9190613bec565b6128ca576040517f08c379a00000000000000000000000000000000000000000000000000000000081526004016128c19061542a565b60405180910390fd5b50505050505050505050565b6000816000015183600001511480156128f6575081602001518360200151145b905092915050565b6000817f30644e72e131a029b85045b68181585d2833e84879b9709143e1f593f0000001039050919050565b612932612d2f565b604051835181526020840151602082015282604082015260408260608360075afa61295c57600080fd5b5092915050565b61296b612d2f565b60405180604001604052807f077da99d806abd13c9f15ece5398525119d11e11e9836b2ee7d23f6159ad87d460001b81526020017f01485efa927f2ad41bff567eec88f32fb0a0f706588b4e41a8d587d008b7f87560001b815250905090565b60007f30644e72e131a029b85045b68181585d2833e84879b9709143e1f593f000000182816129f657fe5b069050919050565b6000806002541415612a1d576001544381612a1557fe5b049050612a77565b60016002541415612a3b576001544281612a3357fe5b049050612a76565b6040517f08c379a0000000000000000000000000000000000000000000000000000000008152600401612a6d9061546a565b60405180910390fd5b5b8060126000848152602001908152602001600020541015612cde57612a9a612d4f565b604051806040016040528060106000868152602001908152602001600020600280602002604051908101604052809291906000905b82821015612b0b578382600202016040518060400160405290816000820154815260200160018201548152505081526020019060010190612acf565b50505050815260200160116000868152602001908152602001600020600280602002604051908101604052809291906000905b82821015612b7a578382600202016040518060400160405290816000820154815260200160018201548152505081526020019060010190612b3e565b505050508152509050612bda81600160028110612b9357fe5b6020020151600060028110612ba457fe5b602002015182600060028110612bb657fe5b6020020151600060028110612bc757fe5b602002015161203090919063ffffffff16565b60106000858152602001908152602001600020600060028110612bf957fe5b600202016000820151816000015560208201518160010155905050612c6b81600160028110612c2457fe5b6020020151600160028110612c3557fe5b602002015182600060028110612c4757fe5b6020020151600160028110612c5857fe5b602002015161203090919063ffffffff16565b60106000858152602001908152602001600020600160028110612c8a57fe5b600202016000820151816000015560208201518160010155905050601160008481526020019081526020016000206000612cc49190612ff4565b816012600085815260200190815260200160002081905550505b806014541015612cfe578060148190555060136000612cfd919061301f565b5b5050565b60405180604001604052806002905b612d19612d2f565b815260200190600190039081612d115790505090565b604051806040016040528060008019168152602001600080191681525090565b60405180604001604052806002905b612d66612d02565b815260200190600190039081612d5e5790505090565b6040518060e00160405280606081526020016060815260200160608152602001612da4612d2f565b81526020016060815260200160008152602001612dbf612d2f565b81525090565b604051806103200160405280612dd9612d2f565b8152602001612de6612d2f565b8152602001612df3612d2f565b8152602001612e00612d2f565b8152602001606081526020016060815260200160608152602001606081526020016060815260200160608152602001606081526020016060815260200160608152602001600081526020016000815260200160008152602001612e61612d02565b815260200160008152602001600081526020016000815260200160008152602001600081526020016000815260200160008152602001612e9f613040565b81525090565b828054600181600116156101000203166002900490600052602060002090601f016020900481019282601f10612ee657805160ff1916838001178555612f14565b82800160010185558215612f14579182015b82811115612f13578251825591602001919060010190612ef8565b5b509050612f219190613068565b5090565b6040518060c00160405280612f38612d2f565b8152602001612f45612d2f565b8152602001612f52612d2f565b815260200160008152602001612f66612d2f565b8152602001600073ffffffffffffffffffffffffffffffffffffffff1681525090565b604051806101400160405280612f9d612d2f565b8152602001612faa612d2f565b8152602001612fb7612d02565b8152602001600081526020016000815260200160008152602001600081526020016000815260200160008152602001612fee613040565b81525090565b5060008082016000905560018201600090555060020160008082016000905560018201600090555050565b508054600082559060005260206000209081019061303d9190613085565b50565b6040518060800160405280606081526020016060815260200160008152602001600081525090565b5b80821115613081576000816000905550600101613069565b5090565b5b8082111561309e576000816000905550600101613086565b5090565b6000815190506130b181615945565b92915050565b6000813590506130c68161595c565b92915050565b600082601f8301126130dd57600080fd5b60026130f06130eb82615699565b61566c565b9150818385604084028201111561310657600080fd5b60005b83811015613136578161311c88826133a8565b845260208401935060408301925050600181019050613109565b5050505092915050565b600082601f83011261315157600080fd5b813561316461315f826156bb565b61566c565b9150818183526020840193506020810190508385604084028201111561318957600080fd5b60005b838110156131b9578161319f888261335c565b84526020840193506040830192505060018101905061318c565b5050505092915050565b600082601f8301126131d457600080fd5b81516131e76131e2826156bb565b61566c565b9150818183526020840193506020810190508385604084028201111561320c57600080fd5b60005b8381101561323c578161322288826133a8565b84526020840193506040830192505060018101905061320f565b5050505092915050565b600082601f83011261325757600080fd5b815161326a613265826156e3565b61566c565b9150818183526020840193506020810190508385602084028201111561328f57600080fd5b60005b838110156132bf57816132a58882613a9b565b845260208401935060208301925050600181019050613292565b5050505092915050565b6000815190506132d881615973565b92915050565b6000813590506132ed8161598a565b92915050565b6000815190506133028161598a565b92915050565b600082601f83011261331957600080fd5b813561332c6133278261570b565b61566c565b9150808252602083016020830185838301111561334857600080fd5b6133538382846158f2565b50505092915050565b60006040828403121561336e57600080fd5b613378604061566c565b90506000613388848285016132de565b600083015250602061339c848285016132de565b60208301525092915050565b6000604082840312156133ba57600080fd5b6133c4604061566c565b905060006133d4848285016132f3565b60008301525060206133e8848285016132f3565b60208301525092915050565b60006080828403121561340657600080fd5b613410608061566c565b9050600082015167ffffffffffffffff81111561342c57600080fd5b613438848285016131c3565b600083015250602082015167ffffffffffffffff81111561345857600080fd5b613464848285016131c3565b602083015250604061347884828501613a9b565b604083015250606061348c84828501613a9b565b60608301525092915050565b60006101e082840312156134ab57600080fd5b6134b661014061566c565b905060006134c6848285016133a8565b60008301525060406134da848285016133a8565b60208301525060806134ee848285016130cc565b60408301525061010061350384828501613a9b565b60608301525061012061351884828501613a9b565b60808301525061014061352d84828501613a9b565b60a08301525061016061354284828501613a9b565b60c08301525061018061355784828501613a9b565b60e0830152506101a061356c84828501613a9b565b610100830152506101c082015167ffffffffffffffff81111561358e57600080fd5b61359a848285016133f4565b6101208301525092915050565b600061040082840312156135ba57600080fd5b6135c561032061566c565b905060006135d5848285016133a8565b60008301525060406135e9848285016133a8565b60208301525060806135fd848285016133a8565b60408301525060c0613611848285016133a8565b60608301525061010082015167ffffffffffffffff81111561363257600080fd5b61363e848285016131c3565b60808301525061012082015167ffffffffffffffff81111561365f57600080fd5b61366b848285016131c3565b60a08301525061014082015167ffffffffffffffff81111561368c57600080fd5b613698848285016131c3565b60c08301525061016082015167ffffffffffffffff8111156136b957600080fd5b6136c5848285016131c3565b60e08301525061018082015167ffffffffffffffff8111156136e657600080fd5b6136f2848285016131c3565b610100830152506101a082015167ffffffffffffffff81111561371457600080fd5b613720848285016131c3565b610120830152506101c082015167ffffffffffffffff81111561374257600080fd5b61374e848285016131c3565b610140830152506101e082015167ffffffffffffffff81111561377057600080fd5b61377c848285016131c3565b6101608301525061020082015167ffffffffffffffff81111561379e57600080fd5b6137aa84828501613246565b610180830152506102206137c084828501613a9b565b6101a0830152506102406137d684828501613a9b565b6101c0830152506102606137ec84828501613a9b565b6101e083015250610280613802848285016130cc565b6102008301525061030061381884828501613a9b565b6102208301525061032061382e84828501613a9b565b6102408301525061034061384484828501613a9b565b6102608301525061036061385a84828501613a9b565b6102808301525061038061387084828501613a9b565b6102a0830152506103a061388684828501613a9b565b6102c0830152506103c061389c84828501613a9b565b6102e0830152506103e082015167ffffffffffffffff8111156138be57600080fd5b6138ca848285016133f4565b6103008301525092915050565b600061014082840312156138ea57600080fd5b6138f460c061566c565b90506000613904848285016133a8565b6000830152506040613918848285016133a8565b602083015250608061392c848285016133a8565b60408301525060c061394084828501613a9b565b60608301525060e0613954848285016133a8565b608083015250610120613969848285016130a2565b60a08301525092915050565b6000610120828403121561398857600080fd5b61399260e061566c565b9050600082015167ffffffffffffffff8111156139ae57600080fd5b6139ba848285016131c3565b600083015250602082015167ffffffffffffffff8111156139da57600080fd5b6139e6848285016131c3565b602083015250604082015167ffffffffffffffff811115613a0657600080fd5b613a12848285016131c3565b6040830152506060613a26848285016133a8565b60608301525060a082015167ffffffffffffffff811115613a4657600080fd5b613a52848285016131c3565b60808301525060c0613a6684828501613a9b565b60a08301525060e0613a7a848285016133a8565b60c08301525092915050565b600081359050613a95816159a1565b92915050565b600081519050613aaa816159a1565b92915050565b600060208284031215613ac257600080fd5b6000613ad0848285016130b7565b91505092915050565b600080600080600060e08688031215613af157600080fd5b600086013567ffffffffffffffff811115613b0b57600080fd5b613b1788828901613140565b9550506020613b288882890161335c565b945050606086013567ffffffffffffffff811115613b4557600080fd5b613b5188828901613140565b9350506080613b628882890161335c565b92505060c086013567ffffffffffffffff811115613b7f57600080fd5b613b8b88828901613308565b9150509295509295909350565b60008060408385031215613bab57600080fd5b600083013567ffffffffffffffff811115613bc557600080fd5b613bd185828601613140565b9250506020613be285828601613a86565b9150509250929050565b600060208284031215613bfe57600080fd5b6000613c0c848285016132c9565b91505092915050565b600060208284031215613c2757600080fd5b6000613c35848285016132de565b91505092915050565b600060408284031215613c5057600080fd5b6000613c5e8482850161335c565b91505092915050565b600080600060808486031215613c7c57600080fd5b6000613c8a8682870161335c565b9350506040613c9b86828701613a86565b925050606084013567ffffffffffffffff811115613cb857600080fd5b613cc486828701613308565b9150509250925092565b600080600080600060e08688031215613ce657600080fd5b6000613cf48882890161335c565b9550506040613d0588828901613a86565b9450506060613d168882890161335c565b93505060a086013567ffffffffffffffff811115613d3357600080fd5b613d3f88828901613308565b92505060c086013567ffffffffffffffff811115613d5c57600080fd5b613d6888828901613308565b9150509295509295909350565b600080600060808486031215613d8a57600080fd5b6000613d988682870161335c565b9350506040613da986828701613a86565b9250506060613dba86828701613a86565b9150509250925092565b600060208284031215613dd657600080fd5b600082015167ffffffffffffffff811115613df057600080fd5b613dfc84828501613498565b91505092915050565b600060208284031215613e1757600080fd5b600082015167ffffffffffffffff811115613e3157600080fd5b613e3d848285016135a7565b91505092915050565b60006101408284031215613e5957600080fd5b6000613e67848285016138d7565b91505092915050565b600060208284031215613e8257600080fd5b600082015167ffffffffffffffff811115613e9c57600080fd5b613ea884828501613975565b91505092915050565b600060208284031215613ec357600080fd5b6000613ed184828501613a86565b91505092915050565b60008060408385031215613eed57600080fd5b6000613efb85828601613a86565b9250506020613f0c85828601613a86565b9150509250929050565b6000613f228383613ff8565b60808301905092915050565b6000613f3a8383614b35565b60408301905092915050565b6000613f528383615063565b60208301905092915050565b613f67816158bc565b82525050565b613f768161586a565b82525050565b613f8581615858565b82525050565b613f9481615858565b82525050565b6000613fa582615771565b613faf81856157dc565b9350613fba83615737565b8060005b83811015613feb578151613fd28882613f16565b9750613fdd836157a8565b925050600181019050613fbe565b5085935050505092915050565b6140018161577c565b61400b81846157ed565b925061401682615747565b8060005b8381101561404757815161402e8782613f2e565b9650614039836157b5565b92505060018101905061401a565b505050505050565b6140588161577c565b61406281846157f8565b925061406d82615747565b8060005b8381101561409e5781516140858782613f2e565b9650614090836157b5565b925050600181019050614071565b505050505050565b60006140b182615787565b6140bb8185615803565b93506140c683615751565b8060005b838110156140f75781516140de8882613f2e565b97506140e9836157c2565b9250506001810190506140ca565b5085935050505092915050565b600061410f82615787565b6141198185615814565b935061412483615751565b8060005b8381101561415557815161413c8882613f2e565b9750614147836157c2565b925050600181019050614128565b5085935050505092915050565b600061416d82615792565b6141778185615825565b935061418283615761565b8060005b838110156141b357815161419a8882613f46565b97506141a5836157cf565b925050600181019050614186565b5085935050505092915050565b6141c98161587c565b82525050565b6141d881615888565b82525050565b60006141e98261579d565b6141f38185615836565b9350614203818560208601615901565b61420c81615934565b840191505092915050565b6000614224602c83615847565b91507f5b52617a652072656465656d5d204661696c65643a20496e76616c696420726560008301527f6465656d20616d6f756e742e00000000000000000000000000000000000000006020830152604082019050919050565b600061428a602c83615847565b91507f5b52617a65207472616e736665725d20496e707574206172726179206c656e6760008301527f7468206d69736d617463682100000000000000000000000000000000000000006020830152604082019050919050565b60006142f0602483615847565b91507f5b52617a65207472616e736665725d204661696c65643a20766572696669636160008301527f74696f6e000000000000000000000000000000000000000000000000000000006020830152604082019050919050565b6000614356603483615847565b91507f5b52617a65206d696e745d204d696e742070757368657320636f6e747261637460008301527f2070617374206d6178696d756d2076616c75652e0000000000000000000000006020830152604082019050919050565b60006143bc603483615847565b91507f5065726d697373696f6e2064656e6965643a204f6e6c792061646d696e20636160008301527f6e206368616e676520726f756e6420626173652e0000000000000000000000006020830152604082019050919050565b6000614422603083615847565b91507f5065726d697373696f6e2064656e6965643a204f6e6c792061646d696e20636160008301527f6e206368616e6765206167656e63792e000000000000000000000000000000006020830152604082019050919050565b6000614488601b83615847565b91507f4163636f756e7420616c726561647920726567697374657265642100000000006000830152602082019050919050565b60006144c8604283615847565b91507f5b52617a65207472616e736665725d204e6f7420656e6f75676820666565207360008301527f656e74207769746820746865207472616e73666572207472616e73616374696f60208301527f6e2e0000000000000000000000000000000000000000000000000000000000006040830152606082019050919050565b6000614554602783615847565b91507f5b52617a65206d696e745d204163636f756e74206e6f7420796574207265676960008301527f7374657265642e000000000000000000000000000000000000000000000000006020830152604082019050919050565b60006145ba602683615847565b91507f5b52617a652072656465656d5d204661696c20746f207472616e73666572207460008301527f6f6b656e732e00000000000000000000000000000000000000000000000000006020830152604082019050919050565b6000614620602983615847565b91507f5b52617a652072656465656d5d204163636f756e74206e6f742079657420726560008301527f67697374657265642e00000000000000000000000000000000000000000000006020830152604082019050919050565b6000614686602b83615847565b91507f5b52617a65207472616e736665725d204163636f756e74206e6f74207965742060008301527f726567697374657265642e0000000000000000000000000000000000000000006020830152604082019050919050565b60006146ec601f83615847565b91507f496e76616c696420726567697374726174696f6e207369676e617475726521006000830152602082019050919050565b600061472c602e83615847565b91507f5065726d697373696f6e2064656e6965643a204f6e6c792061646d696e20636160008301527f6e206368616e676520756e69742e0000000000000000000000000000000000006020830152604082019050919050565b6000614792602383615847565b91507f5b52617a652072656465656d5d204661696c65643a207665726966696361746960008301527f6f6e2100000000000000000000000000000000000000000000000000000000006020830152604082019050919050565b60006147f8603f83615847565b91507f5065726d697373696f6e2064656e6965643a204f6e6c792061646d696e20636160008301527f6e206368616e6765207472616e73666572206665652073747261746567792e006020830152604082019050919050565b600061485e601383615847565b91507f496e76616c696420726f756e6420626173652e000000000000000000000000006000830152602082019050919050565b600061489e603d83615847565b91507f5065726d697373696f6e2064656e6965643a204f6e6c792061646d696e20636160008301527f6e206368616e67652072656465656d206665652073747261746567792e0000006020830152604082019050919050565b6000614904603683615847565b91507f5065726d697373696f6e2064656e6965643a204f6e6c792061646d696e20636160008301527f6e206368616e676520726f756e64206c656e6774682e000000000000000000006020830152604082019050919050565b600061496a602983615847565b91507f5b52617a65206d696e745d204e617469766520277472616e7366657246726f6d60008301527f27206661696c65642e00000000000000000000000000000000000000000000006020830152604082019050919050565b60006149d0601383615847565b91507f416d6f756e74206f7574206f662072616e6765000000000000000000000000006000830152602082019050919050565b6000614a10602183615847565b91507f5b52617a652072656465656d5d204e6f6e636520616c7265616479207365656e60008301527f21000000000000000000000000000000000000000000000000000000000000006020830152604082019050919050565b6000614a76602383615847565b91507f5b52617a65207472616e736665725d204e6f6e636520616c726561647920736560008301527f656e2100000000000000000000000000000000000000000000000000000000006020830152604082019050919050565b6000614adc602183615847565b91507f5b52617a652072656465656d5d204661696c20746f206368617267652066656560008301527f2e000000000000000000000000000000000000000000000000000000000000006020830152604082019050919050565b604082016000820151614b4b60008501826141cf565b506020820151614b5e60208501826141cf565b50505050565b604082016000820151614b7a60008501826141cf565b506020820151614b8d60208501826141cf565b50505050565b60006080830160008301518482036000860152614bb082826140a6565b91505060208301518482036020860152614bca82826140a6565b9150506040830151614bdf6040860182615063565b506060830151614bf26060860182615063565b508091505092915050565b60006101e083016000830151614c166000860182614b35565b506020830151614c296040860182614b35565b506040830151614c3c6080860182613ff8565b506060830151614c50610100860182615063565b506080830151614c64610120860182615063565b5060a0830151614c78610140860182615063565b5060c0830151614c8c610160860182615063565b5060e0830151614ca0610180860182615063565b50610100830151614cb56101a0860182615063565b506101208301518482036101c0860152614ccf8282614b93565b9150508091505092915050565b600061040083016000830151614cf56000860182614b35565b506020830151614d086040860182614b35565b506040830151614d1b6080860182614b35565b506060830151614d2e60c0860182614b35565b506080830151848203610100860152614d4782826140a6565b91505060a0830151848203610120860152614d6282826140a6565b91505060c0830151848203610140860152614d7d82826140a6565b91505060e0830151848203610160860152614d9882826140a6565b915050610100830151848203610180860152614db482826140a6565b9150506101208301518482036101a0860152614dd082826140a6565b9150506101408301518482036101c0860152614dec82826140a6565b9150506101608301518482036101e0860152614e0882826140a6565b915050610180830151848203610200860152614e248282614162565b9150506101a0830151614e3b610220860182615063565b506101c0830151614e50610240860182615063565b506101e0830151614e65610260860182615063565b50610200830151614e7a610280860182613ff8565b50610220830151614e8f610300860182615063565b50610240830151614ea4610320860182615063565b50610260830151614eb9610340860182615063565b50610280830151614ece610360860182615063565b506102a0830151614ee3610380860182615063565b506102c0830151614ef86103a0860182615063565b506102e0830151614f0d6103c0860182615063565b506103008301518482036103e0860152614f278282614b93565b9150508091505092915050565b61014082016000820151614f4b6000850182614b35565b506020820151614f5e6040850182614b35565b506040820151614f716080850182614b35565b506060820151614f8460c0850182615063565b506080820151614f9760e0850182614b35565b5060a0820151614fab610120850182613f7c565b50505050565b6000610120830160008301518482036000860152614fcf82826140a6565b91505060208301518482036020860152614fe982826140a6565b9150506040830151848203604086015261500382826140a6565b91505060608301516150186060860182614b35565b50608083015184820360a086015261503082826140a6565b91505060a083015161504560c0860182615063565b5060c083015161505860e0860182614b35565b508091505092915050565b61506c816158b2565b82525050565b61507b816158b2565b82525050565b60006020820190506150966000830184613f6d565b92915050565b60006060820190506150b16000830186613f5e565b6150be6020830185613f8b565b6150cb6040830184615072565b949350505050565b60006040820190506150e86000830185613f5e565b6150f56020830184615072565b9392505050565b600060a0820190506151116000830186613f8b565b61511e6020830185614b64565b61512b6060830184614b64565b949350505050565b6000602082019050818103600083015261514d8184613f9a565b905092915050565b60006101008201905061516b600083018561404f565b615178608083018461404f565b9392505050565b600060208201905081810360008301526151998184614104565b905092915050565b60006101208201905081810360008301526151bc818a614104565b905081810360208301526151d08189614104565b905081810360408301526151e48188614104565b90506151f36060830187614b64565b81810360a08301526152058186614104565b905061521460c0830185615072565b61522160e0830184614b64565b98975050505050505050565b600060208201905061524260008301846141c0565b92915050565b6000602082019050818103600083015261526281846141de565b905092915050565b6000602082019050818103600083015261528381614217565b9050919050565b600060208201905081810360008301526152a38161427d565b9050919050565b600060208201905081810360008301526152c3816142e3565b9050919050565b600060208201905081810360008301526152e381614349565b9050919050565b60006020820190508181036000830152615303816143af565b9050919050565b6000602082019050818103600083015261532381614415565b9050919050565b600060208201905081810360008301526153438161447b565b9050919050565b60006020820190508181036000830152615363816144bb565b9050919050565b6000602082019050818103600083015261538381614547565b9050919050565b600060208201905081810360008301526153a3816145ad565b9050919050565b600060208201905081810360008301526153c381614613565b9050919050565b600060208201905081810360008301526153e381614679565b9050919050565b60006020820190508181036000830152615403816146df565b9050919050565b600060208201905081810360008301526154238161471f565b9050919050565b6000602082019050818103600083015261544381614785565b9050919050565b60006020820190508181036000830152615463816147eb565b9050919050565b6000602082019050818103600083015261548381614851565b9050919050565b600060208201905081810360008301526154a381614891565b9050919050565b600060208201905081810360008301526154c3816148f7565b9050919050565b600060208201905081810360008301526154e38161495d565b9050919050565b60006020820190508181036000830152615503816149c3565b9050919050565b6000602082019050818103600083015261552381614a03565b9050919050565b6000602082019050818103600083015261554381614a69565b9050919050565b6000602082019050818103600083015261556381614acf565b9050919050565b600060408201905061557f6000830184614b64565b92915050565b60006101408201905061559b6000830189614b64565b6155a86040830188614b64565b6155b56080830187614b64565b6155c260c0830186615072565b6155cf60e0830185614b64565b6155dd610120830184613f5e565b979650505050505050565b6000610160820190506155fe6000830185614f34565b8181036101408301526156118184614bfd565b90509392505050565b600060408201905081810360008301526156348185614fb1565b905081810360208301526156488184614cdc565b90509392505050565b60006020820190506156666000830184615072565b92915050565b6000604051905081810181811067ffffffffffffffff8211171561568f57600080fd5b8060405250919050565b600067ffffffffffffffff8211156156b057600080fd5b602082029050919050565b600067ffffffffffffffff8211156156d257600080fd5b602082029050602081019050919050565b600067ffffffffffffffff8211156156fa57600080fd5b602082029050602081019050919050565b600067ffffffffffffffff82111561572257600080fd5b601f19601f8301169050602081019050919050565b6000819050602082019050919050565b6000819050919050565b6000819050602082019050919050565b6000819050602082019050919050565b600081519050919050565b600060029050919050565b600081519050919050565b600081519050919050565b600081519050919050565b6000602082019050919050565b6000602082019050919050565b6000602082019050919050565b6000602082019050919050565b600082825260208201905092915050565b600081905092915050565b600081905092915050565b600082825260208201905092915050565b600082825260208201905092915050565b600082825260208201905092915050565b600082825260208201905092915050565b600082825260208201905092915050565b600061586382615892565b9050919050565b600061587582615892565b9050919050565b60008115159050919050565b6000819050919050565b600073ffffffffffffffffffffffffffffffffffffffff82169050919050565b6000819050919050565b60006158c7826158ce565b9050919050565b60006158d9826158e0565b9050919050565b60006158eb82615892565b9050919050565b82818337600083830152505050565b60005b8381101561591f578082015181840152602081019050615904565b8381111561592e576000848401525b50505050565b6000601f19601f8301169050919050565b61594e81615858565b811461595957600080fd5b50565b6159658161586a565b811461597057600080fd5b50565b61597c8161587c565b811461598757600080fd5b50565b61599381615888565b811461599e57600080fd5b50565b6159aa816158b2565b81146159b557600080fd5b5056fea26469706673582212200c4e8bb3a00bb8023939c5432ede081d393733283385b919d137715b7e5de6e164736f6c634300060c0033",
  "immutableReferences": {},
  "source": "// SPDX-License-Identifier: MIT\npragma solidity ^0.6.0;\npragma experimental ABIEncoderV2;\n\nimport \"@openzeppelin/contracts/token/ERC20/ERC20.sol\";\nimport \"./Utils.sol\";\nimport \"./RazeBase.sol\";\n\n\ncontract RazeERC20 is RazeBase {\n\n    ERC20 token;\n\n    constructor(address _token, address _transfer, address _redeem, uint256 _unit) RazeBase(_transfer, _redeem, _unit) public {\n        token = ERC20(_token);\n    }\n\n    function mint(Utils.G1Point memory y, uint256 unitAmount, bytes memory encGuess) public {\n        mintBase(y, unitAmount, encGuess);\n\n        uint256 nativeAmount = toNativeAmount(unitAmount);\n\n        // In order for the following to succeed, `msg.sender` have to first approve `this` to spend the nativeAmount.\n        require(token.transferFrom(msg.sender, address(this), nativeAmount), \"[Raze mint] Native 'transferFrom' failed.\");\n    }\n\n    function redeem(Utils.G1Point memory y, uint256 unitAmount, Utils.G1Point memory u, bytes memory proof, bytes memory encGuess) public {\n        uint256 nativeAmount = toNativeAmount(unitAmount);\n        uint256 fee = nativeAmount * redeem_fee_numerator / redeem_fee_denominator; \n\n        redeemBase(y, unitAmount, u, proof, encGuess);\n\n        if (fee > 0) {\n            require(token.transfer(raze_agency, fee), \"[Raze redeem] Fail to charge fee.\");\n            redeem_fee_log = redeem_fee_log + fee;\n        }\n        require(token.transfer(msg.sender, nativeAmount - fee), \"[Raze redeem] Fail to transfer tokens.\");\n    }\n}\n\n\n",
  "sourcePath": "/Users/jinwan/Desktop/raze_frontend-master/contracts/RazeERC20.sol",
  "compiler": {
    "name": "solc",
    "version": "0.6.12+commit.27d51765.Emscripten.clang"
  },
  "schemaVersion": "3.4.1",
  "updatedAt": "2021-06-15T11:39:00.187Z",
  "devdoc": {
    "kind": "dev",
    "methods": {},
    "version": 1
  },
  "userdoc": {
    "kind": "user",
    "methods": {
      "getBalance((bytes32,bytes32)[],uint256)": {
        "notice": "Get the current balances of accounts. If the given `round` is larger than the last roll over round, the returned balances will include pending transfers. "
      }
    },
    "version": 1
  }
}