{
  "contractName": "RazeUSDT",
  "abi": [
    {
      "inputs": [
        {
          "internalType": "address",
          "name": "_token",
          "type": "address"
        },
        {
          "internalType": "address",
          "name": "_transfer",
          "type": "address"
        },
        {
          "internalType": "address",
          "name": "_redeem",
          "type": "address"
        },
        {
          "internalType": "uint256",
          "name": "_unit",
          "type": "uint256"
        }
      ],
      "stateMutability": "nonpayable",
      "type": "constructor"
    },
    {
      "anonymous": false,
      "inputs": [
        {
          "indexed": false,
          "internalType": "string",
          "name": "label",
          "type": "string"
        },
        {
          "indexed": true,
          "internalType": "uint256",
          "name": "value",
          "type": "uint256"
        }
      ],
      "name": "LogUint256",
      "type": "event"
    },
    {
      "anonymous": false,
      "inputs": [
        {
          "components": [
            {
              "internalType": "bytes32",
              "name": "x",
              "type": "bytes32"
            },
            {
              "internalType": "bytes32",
              "name": "y",
              "type": "bytes32"
            }
          ],
          "indexed": false,
          "internalType": "struct Utils.G1Point[]",
          "name": "parties",
          "type": "tuple[]"
        }
      ],
      "name": "TransferOccurred",
      "type": "event"
    },
    {
      "inputs": [],
      "name": "MAX",
      "outputs": [
        {
          "internalType": "uint256",
          "name": "",
          "type": "uint256"
        }
      ],
      "stateMutability": "view",
      "type": "function"
    },
    {
      "inputs": [],
      "name": "balance_log",
      "outputs": [
        {
          "internalType": "uint256",
          "name": "",
          "type": "uint256"
        }
      ],
      "stateMutability": "view",
      "type": "function"
    },
    {
      "inputs": [],
      "name": "deposits_log",
      "outputs": [
        {
          "internalType": "uint256",
          "name": "",
          "type": "uint256"
        }
      ],
      "stateMutability": "view",
      "type": "function"
    },
    {
      "inputs": [
        {
          "components": [
            {
              "internalType": "bytes32",
              "name": "x",
              "type": "bytes32"
            },
            {
              "internalType": "bytes32",
              "name": "y",
              "type": "bytes32"
            }
          ],
          "internalType": "struct Utils.G1Point",
          "name": "y",
          "type": "tuple"
        }
      ],
      "name": "getAccountState",
      "outputs": [
        {
          "components": [
            {
              "internalType": "bytes32",
              "name": "x",
              "type": "bytes32"
            },
            {
              "internalType": "bytes32",
              "name": "y",
              "type": "bytes32"
            }
          ],
          "internalType": "struct Utils.G1Point[2]",
          "name": "y_available",
          "type": "tuple[2]"
        },
        {
          "components": [
            {
              "internalType": "bytes32",
              "name": "x",
              "type": "bytes32"
            },
            {
              "internalType": "bytes32",
              "name": "y",
              "type": "bytes32"
            }
          ],
          "internalType": "struct Utils.G1Point[2]",
          "name": "y_pending",
          "type": "tuple[2]"
        }
      ],
      "stateMutability": "view",
      "type": "function"
    },
    {
      "inputs": [
        {
          "components": [
            {
              "internalType": "bytes32",
              "name": "x",
              "type": "bytes32"
            },
            {
              "internalType": "bytes32",
              "name": "y",
              "type": "bytes32"
            }
          ],
          "internalType": "struct Utils.G1Point[]",
          "name": "y",
          "type": "tuple[]"
        },
        {
          "internalType": "uint256",
          "name": "round",
          "type": "uint256"
        }
      ],
      "name": "getBalance",
      "outputs": [
        {
          "components": [
            {
              "internalType": "bytes32",
              "name": "x",
              "type": "bytes32"
            },
            {
              "internalType": "bytes32",
              "name": "y",
              "type": "bytes32"
            }
          ],
          "internalType": "struct Utils.G1Point[2][]",
          "name": "accounts",
          "type": "tuple[2][]"
        }
      ],
      "stateMutability": "view",
      "type": "function"
    },
    {
      "inputs": [
        {
          "components": [
            {
              "internalType": "bytes32",
              "name": "x",
              "type": "bytes32"
            },
            {
              "internalType": "bytes32",
              "name": "y",
              "type": "bytes32"
            }
          ],
          "internalType": "struct Utils.G1Point",
          "name": "y",
          "type": "tuple"
        }
      ],
      "name": "getGuess",
      "outputs": [
        {
          "internalType": "bytes",
          "name": "y_guess",
          "type": "bytes"
        }
      ],
      "stateMutability": "view",
      "type": "function"
    },
    {
      "inputs": [],
      "name": "last_global_update",
      "outputs": [
        {
          "internalType": "uint256",
          "name": "",
          "type": "uint256"
        }
      ],
      "stateMutability": "view",
      "type": "function"
    },
    {
      "inputs": [
        {
          "internalType": "bytes32",
          "name": "",
          "type": "bytes32"
        }
      ],
      "name": "last_roll_over",
      "outputs": [
        {
          "internalType": "uint256",
          "name": "",
          "type": "uint256"
        }
      ],
      "stateMutability": "view",
      "type": "function"
    },
    {
      "inputs": [],
      "name": "mint_count_log",
      "outputs": [
        {
          "internalType": "uint256",
          "name": "",
          "type": "uint256"
        }
      ],
      "stateMutability": "view",
      "type": "function"
    },
    {
      "inputs": [],
      "name": "raze_agency",
      "outputs": [
        {
          "internalType": "address payable",
          "name": "",
          "type": "address"
        }
      ],
      "stateMutability": "view",
      "type": "function"
    },
    {
      "inputs": [],
      "name": "redeem_fee_denominator",
      "outputs": [
        {
          "internalType": "uint256",
          "name": "",
          "type": "uint256"
        }
      ],
      "stateMutability": "view",
      "type": "function"
    },
    {
      "inputs": [],
      "name": "redeem_fee_log",
      "outputs": [
        {
          "internalType": "uint256",
          "name": "",
          "type": "uint256"
        }
      ],
      "stateMutability": "view",
      "type": "function"
    },
    {
      "inputs": [],
      "name": "redeem_fee_numerator",
      "outputs": [
        {
          "internalType": "uint256",
          "name": "",
          "type": "uint256"
        }
      ],
      "stateMutability": "view",
      "type": "function"
    },
    {
      "inputs": [
        {
          "components": [
            {
              "internalType": "bytes32",
              "name": "x",
              "type": "bytes32"
            },
            {
              "internalType": "bytes32",
              "name": "y",
              "type": "bytes32"
            }
          ],
          "internalType": "struct Utils.G1Point",
          "name": "y",
          "type": "tuple"
        },
        {
          "internalType": "uint256",
          "name": "c",
          "type": "uint256"
        },
        {
          "internalType": "uint256",
          "name": "s",
          "type": "uint256"
        }
      ],
      "name": "register",
      "outputs": [],
      "stateMutability": "nonpayable",
      "type": "function"
    },
    {
      "inputs": [
        {
          "internalType": "bytes32",
          "name": "yHash",
          "type": "bytes32"
        }
      ],
      "name": "registered",
      "outputs": [
        {
          "internalType": "bool",
          "name": "",
          "type": "bool"
        }
      ],
      "stateMutability": "view",
      "type": "function"
    },
    {
      "inputs": [],
      "name": "round_base",
      "outputs": [
        {
          "internalType": "uint256",
          "name": "",
          "type": "uint256"
        }
      ],
      "stateMutability": "view",
      "type": "function"
    },
    {
      "inputs": [],
      "name": "round_len",
      "outputs": [
        {
          "internalType": "uint256",
          "name": "",
          "type": "uint256"
        }
      ],
      "stateMutability": "view",
      "type": "function"
    },
    {
      "inputs": [
        {
          "internalType": "address payable",
          "name": "_raze_agency",
          "type": "address"
        }
      ],
      "name": "setRazeAgency",
      "outputs": [],
      "stateMutability": "nonpayable",
      "type": "function"
    },
    {
      "inputs": [
        {
          "internalType": "uint256",
          "name": "numerator",
          "type": "uint256"
        },
        {
          "internalType": "uint256",
          "name": "denominator",
          "type": "uint256"
        }
      ],
      "name": "setRedeemFeeStrategy",
      "outputs": [],
      "stateMutability": "nonpayable",
      "type": "function"
    },
    {
      "inputs": [
        {
          "internalType": "uint256",
          "name": "_round_base",
          "type": "uint256"
        }
      ],
      "name": "setRoundBase",
      "outputs": [],
      "stateMutability": "nonpayable",
      "type": "function"
    },
    {
      "inputs": [
        {
          "internalType": "uint256",
          "name": "_round_len",
          "type": "uint256"
        }
      ],
      "name": "setRoundLen",
      "outputs": [],
      "stateMutability": "nonpayable",
      "type": "function"
    },
    {
      "inputs": [
        {
          "internalType": "uint256",
          "name": "numerator",
          "type": "uint256"
        },
        {
          "internalType": "uint256",
          "name": "denominator",
          "type": "uint256"
        }
      ],
      "name": "setTransferFeeStrategy",
      "outputs": [],
      "stateMutability": "nonpayable",
      "type": "function"
    },
    {
      "inputs": [
        {
          "internalType": "uint256",
          "name": "_unit",
          "type": "uint256"
        }
      ],
      "name": "setUnit",
      "outputs": [],
      "stateMutability": "nonpayable",
      "type": "function"
    },
    {
      "inputs": [
        {
          "components": [
            {
              "internalType": "bytes32",
              "name": "x",
              "type": "bytes32"
            },
            {
              "internalType": "bytes32",
              "name": "y",
              "type": "bytes32"
            }
          ],
          "internalType": "struct Utils.G1Point[]",
          "name": "C",
          "type": "tuple[]"
        },
        {
          "components": [
            {
              "internalType": "bytes32",
              "name": "x",
              "type": "bytes32"
            },
            {
              "internalType": "bytes32",
              "name": "y",
              "type": "bytes32"
            }
          ],
          "internalType": "struct Utils.G1Point",
          "name": "D",
          "type": "tuple"
        },
        {
          "components": [
            {
              "internalType": "bytes32",
              "name": "x",
              "type": "bytes32"
            },
            {
              "internalType": "bytes32",
              "name": "y",
              "type": "bytes32"
            }
          ],
          "internalType": "struct Utils.G1Point[]",
          "name": "y",
          "type": "tuple[]"
        },
        {
          "components": [
            {
              "internalType": "bytes32",
              "name": "x",
              "type": "bytes32"
            },
            {
              "internalType": "bytes32",
              "name": "y",
              "type": "bytes32"
            }
          ],
          "internalType": "struct Utils.G1Point",
          "name": "u",
          "type": "tuple"
        },
        {
          "internalType": "bytes",
          "name": "proof",
          "type": "bytes"
        }
      ],
      "name": "transfer",
      "outputs": [],
      "stateMutability": "payable",
      "type": "function"
    },
    {
      "inputs": [],
      "name": "transfer_fee_denominator",
      "outputs": [
        {
          "internalType": "uint256",
          "name": "",
          "type": "uint256"
        }
      ],
      "stateMutability": "view",
      "type": "function"
    },
    {
      "inputs": [],
      "name": "transfer_fee_log",
      "outputs": [
        {
          "internalType": "uint256",
          "name": "",
          "type": "uint256"
        }
      ],
      "stateMutability": "view",
      "type": "function"
    },
    {
      "inputs": [],
      "name": "transfer_fee_numerator",
      "outputs": [
        {
          "internalType": "uint256",
          "name": "",
          "type": "uint256"
        }
      ],
      "stateMutability": "view",
      "type": "function"
    },
    {
      "inputs": [],
      "name": "unit",
      "outputs": [
        {
          "internalType": "uint256",
          "name": "",
          "type": "uint256"
        }
      ],
      "stateMutability": "view",
      "type": "function"
    },
    {
      "inputs": [],
      "name": "users_log",
      "outputs": [
        {
          "internalType": "uint256",
          "name": "",
          "type": "uint256"
        }
      ],
      "stateMutability": "view",
      "type": "function"
    },
    {
      "inputs": [
        {
          "components": [
            {
              "internalType": "bytes32",
              "name": "x",
              "type": "bytes32"
            },
            {
              "internalType": "bytes32",
              "name": "y",
              "type": "bytes32"
            }
          ],
          "internalType": "struct Utils.G1Point",
          "name": "y",
          "type": "tuple"
        },
        {
          "internalType": "uint256",
          "name": "unitAmount",
          "type": "uint256"
        },
        {
          "internalType": "bytes",
          "name": "encGuess",
          "type": "bytes"
        }
      ],
      "name": "mint",
      "outputs": [],
      "stateMutability": "nonpayable",
      "type": "function"
    },
    {
      "inputs": [
        {
          "components": [
            {
              "internalType": "bytes32",
              "name": "x",
              "type": "bytes32"
            },
            {
              "internalType": "bytes32",
              "name": "y",
              "type": "bytes32"
            }
          ],
          "internalType": "struct Utils.G1Point",
          "name": "y",
          "type": "tuple"
        },
        {
          "internalType": "uint256",
          "name": "unitAmount",
          "type": "uint256"
        },
        {
          "components": [
            {
              "internalType": "bytes32",
              "name": "x",
              "type": "bytes32"
            },
            {
              "internalType": "bytes32",
              "name": "y",
              "type": "bytes32"
            }
          ],
          "internalType": "struct Utils.G1Point",
          "name": "u",
          "type": "tuple"
        },
        {
          "internalType": "bytes",
          "name": "proof",
          "type": "bytes"
        },
        {
          "internalType": "bytes",
          "name": "encGuess",
          "type": "bytes"
        }
      ],
      "name": "redeem",
      "outputs": [],
      "stateMutability": "nonpayable",
      "type": "function"
    }
  ],
  "bytecode": "0x60806040526018600155600060025560016004556064600555600160065560056007556000600a556000600b556000600c556000600d556000600e556000600f5560006014553480156200005257600080fd5b5060405162005eca38038062005eca8339818101604052810190620000789190620001c1565b82828233600360006101000a81548173ffffffffffffffffffffffffffffffffffffffff021916908373ffffffffffffffffffffffffffffffffffffffff16021790555082600860006101000a81548173ffffffffffffffffffffffffffffffffffffffff021916908373ffffffffffffffffffffffffffffffffffffffff16021790555081600960006101000a81548173ffffffffffffffffffffffffffffffffffffffff021916908373ffffffffffffffffffffffffffffffffffffffff1602179055508060008190555050505083601660006101000a81548173ffffffffffffffffffffffffffffffffffffffff021916908373ffffffffffffffffffffffffffffffffffffffff160217905550505050506200029f565b600081519050620001a4816200026b565b92915050565b600081519050620001bb8162000285565b92915050565b60008060008060808587031215620001d857600080fd5b6000620001e88782880162000193565b9450506020620001fb8782880162000193565b93505060406200020e8782880162000193565b92505060606200022187828801620001aa565b91505092959194509250565b60006200023a8262000241565b9050919050565b600073ffffffffffffffffffffffffffffffffffffffff82169050919050565b6000819050919050565b62000276816200022d565b81146200028257600080fd5b50565b620002908162000261565b81146200029c57600080fd5b50565b615c1b80620002af6000396000f3fe6080604052600436106101d85760003560e01c806384f9b07a11610102578063b5753dee11610095578063dcfa1e5d11610064578063dcfa1e5d146106b1578063ddf911da146106dc578063eff4d17814610707578063f487e95214610723576101d8565b8063b5753dee14610607578063d11fa8c014610632578063d49d51811461065b578063d90d3a5814610686576101d8565b8063a568ce51116100d1578063a568ce5114610538578063a9b05a5614610576578063aae07890146105b3578063b47e51d7146105dc576101d8565b806384f9b07a1461048e5780638ad747e0146104b9578063907af6c0146104e45780639b0d85d31461050f576101d8565b8063566a8e621161017a57806375236e3f1161014957806375236e3f146103e6578063767b7d85146104115780637715a74c1461043a5780637b5b3b9f14610465576101d8565b8063566a8e621461033c57806362c4d3a31461036757806363bb012c146103925780637207f20e146103bd576101d8565b80632a6b024b116101b65780632a6b024b146102705780634301a344146102995780634ad729e0146102d65780635524d548146102ff576101d8565b80630221c717146101dd57806327d084e7146102085780632811112014610245575b600080fd5b3480156101e957600080fd5b506101f261074c565b6040516101ff9190615868565b60405180910390f35b34801561021457600080fd5b5061022f600480360381019061022a9190613d32565b610752565b60405161023c9190615328565b60405180910390f35b34801561025157600080fd5b5061025a6109ff565b6040516102679190615868565b60405180910390f35b34801561027c57600080fd5b5061029760048036038101906102929190613e01565b610a05565b005b3480156102a557600080fd5b506102c060048036038101906102bb9190613daf565b610a72565b6040516102cd9190615868565b60405180910390f35b3480156102e257600080fd5b506102fd60048036038101906102f89190613e68565b610a8a565b005b34801561030b57600080fd5b5061032660048036038101906103219190613daf565b610b94565b6040516103339190615422565b60405180910390f35b34801561034857600080fd5b50610351610da2565b60405161035e9190615868565b60405180910390f35b34801561037357600080fd5b5061037c610da8565b6040516103899190615868565b60405180910390f35b34801561039e57600080fd5b506103a7610dae565b6040516103b49190615868565b60405180910390f35b3480156103c957600080fd5b506103e460048036038101906103df9190614074565b610db4565b005b3480156103f257600080fd5b506103fb610e56565b6040516104089190615868565b60405180910390f35b34801561041d57600080fd5b506104386004803603810190610433919061404b565b610e5c565b005b34801561044657600080fd5b5061044f610ef6565b60405161045c9190615276565b60405180910390f35b34801561047157600080fd5b5061048c6004803603810190610487919061404b565b610f1c565b005b34801561049a57600080fd5b506104a3610fb6565b6040516104b09190615868565b60405180910390f35b3480156104c557600080fd5b506104ce610fbc565b6040516104db9190615868565b60405180910390f35b3480156104f057600080fd5b506104f9610fc2565b6040516105069190615868565b60405180910390f35b34801561051b57600080fd5b5061053660048036038101906105319190613f0f565b610fc8565b005b34801561054457600080fd5b5061055f600480360381019061055a9190613dd8565b611199565b60405161056d92919061534a565b60405180910390f35b34801561058257600080fd5b5061059d60048036038101906105989190613dd8565b6112b2565b6040516105aa919061543d565b60405180910390f35b3480156105bf57600080fd5b506105da60048036038101906105d5919061404b565b611393565b005b3480156105e857600080fd5b506105f161142d565b6040516105fe9190615868565b60405180910390f35b34801561061357600080fd5b5061061c611433565b6040516106299190615868565b60405180910390f35b34801561063e57600080fd5b5061065960048036038101906106549190613c4a565b611439565b005b34801561066757600080fd5b5061067061150d565b60405161067d9190615868565b60405180910390f35b34801561069257600080fd5b5061069b611515565b6040516106a89190615868565b60405180910390f35b3480156106bd57600080fd5b506106c661151b565b6040516106d39190615868565b60405180910390f35b3480156106e857600080fd5b506106f1611521565b6040516106fe9190615868565b60405180910390f35b610721600480360381019061071c9190613c73565b611527565b005b34801561072f57600080fd5b5061074a60048036038101906107459190614074565b611dab565b005b60015481565b60606000835190508067ffffffffffffffff8111801561077157600080fd5b506040519080825280602002602001820160405280156107ab57816020015b610798612e9c565b8152602001906001900390816107905790505b50915060005b818110156109f75760008582815181106107c757fe5b60200260200101516040516020016107df9190615781565b60405160208183030381529060405280519060200120905060106000828152602001908152602001600020600280602002604051908101604052809291906000905b8282101561085d578382600202016040518060400160405290816000820154815260200160018201548152505081526020019060010190610821565b5050505084838151811061086d57fe5b602002602001018190525084601260008381526020019081526020016000205410156109e95761089b612e9c565b60116000838152602001908152602001600020600280602002604051908101604052809291906000905b828210156109015783826002020160405180604001604052908160008201548152602001600182015481525050815260200190600101906108c5565b50505050905061094f8160006002811061091757fe5b602002015186858151811061092857fe5b602002602001015160006002811061093c57fe5b6020020151611e4d90919063ffffffff16565b85848151811061095b57fe5b602002602001015160006002811061096f57fe5b60200201819052506109bf8160016002811061098757fe5b602002015186858151811061099857fe5b60200260200101516001600281106109ac57fe5b6020020151611e4d90919063ffffffff16565b8584815181106109cb57fe5b60200260200101516001600281106109df57fe5b6020020181905250505b5080806001019150506107b1565b505092915050565b600f5481565b610a10838383611e91565b6000610a1b8361207d565b9050610a6c333083601660009054906101000a900473ffffffffffffffffffffffffffffffffffffffff1673ffffffffffffffffffffffffffffffffffffffff166120df909392919063ffffffff16565b50505050565b60126020528060005260406000206000915090505481565b6000610a958561207d565b90506000600554600454830281610aa857fe5b049050610ab88787878787612168565b6000811115610b3c57610b30600360009054906101000a900473ffffffffffffffffffffffffffffffffffffffff1682601660009054906101000a900473ffffffffffffffffffffffffffffffffffffffff1673ffffffffffffffffffffffffffffffffffffffff1661277c9092919063ffffffff16565b80600c5401600c819055505b610b8b33828403601660009054906101000a900473ffffffffffffffffffffffffffffffffffffffff1673ffffffffffffffffffffffffffffffffffffffff1661277c9092919063ffffffff16565b50505050505050565b6000610b9e612ec9565b60405180604001604052806000801b81526020016000801b8152509050610bc3612ee9565b604051806040016040528060106000878152602001908152602001600020600280602002604051908101604052809291906000905b82821015610c34578382600202016040518060400160405290816000820154815260200160018201548152505081526020019060010190610bf8565b50505050815260200160116000878152602001908152602001600020600280602002604051908101604052809291906000905b82821015610ca3578382600202016040518060400160405290816000820154815260200160018201548152505081526020019060010190610c67565b505050508152509050610ce18282600060028110610cbd57fe5b6020020151600060028110610cce57fe5b602002015161280290919063ffffffff16565b8015610d1e5750610d1d8282600060028110610cf957fe5b6020020151600160028110610d0a57fe5b602002015161280290919063ffffffff16565b5b8015610d5b5750610d5a8282600160028110610d3657fe5b6020020151600060028110610d4757fe5b602002015161280290919063ffffffff16565b5b8015610d985750610d978282600160028110610d7357fe5b6020020151600160028110610d8457fe5b602002015161280290919063ffffffff16565b5b1592505050919050565b60145481565b600e5481565b600a5481565b600360009054906101000a900473ffffffffffffffffffffffffffffffffffffffff1673ffffffffffffffffffffffffffffffffffffffff163373ffffffffffffffffffffffffffffffffffffffff1614610e44576040517f08c379a0000000000000000000000000000000000000000000000000000000008152600401610e3b90615661565b60405180910390fd5b81600681905550806007819055505050565b600d5481565b600360009054906101000a900473ffffffffffffffffffffffffffffffffffffffff1673ffffffffffffffffffffffffffffffffffffffff163373ffffffffffffffffffffffffffffffffffffffff1614610eec576040517f08c379a0000000000000000000000000000000000000000000000000000000008152600401610ee3906156c1565b60405180910390fd5b8060018190555050565b600360009054906101000a900473ffffffffffffffffffffffffffffffffffffffff1681565b600360009054906101000a900473ffffffffffffffffffffffffffffffffffffffff1673ffffffffffffffffffffffffffffffffffffffff163373ffffffffffffffffffffffffffffffffffffffff1614610fac576040517f08c379a0000000000000000000000000000000000000000000000000000000008152600401610fa390615501565b60405180910390fd5b8060028190555050565b600b5481565b60025481565b60005481565b610fd0612ec9565b611016610fee610fdf8561282a565b8661285690919063ffffffff16565b61100884610ffa61288f565b61285690919063ffffffff16565b611e4d90919063ffffffff16565b90506000611050308684604051602001611032939291906152c8565b6040516020818303038152906040528051906020012060001c6128f7565b9050838114611094576040517f08c379a000000000000000000000000000000000000000000000000000000000815260040161108b90615601565b60405180910390fd5b6000856040516020016110a79190615781565b6040516020818303038152906040528051906020012090506110c881610b94565b15611108576040517f08c379a00000000000000000000000000000000000000000000000000000000081526004016110ff90615541565b60405180910390fd5b856011600083815260200190815260200160002060006002811061112857fe5b60020201600082015181600001556020820151816001015590505061114b61288f565b6011600083815260200190815260200160002060016002811061116a57fe5b6002020160008201518160000155602082015181600101559050506001600b5401600b81905550505050505050565b6111a1612e9c565b6111a9612e9c565b6000836040516020016111bc9190615781565b60405160208183030381529060405280519060200120905060106000828152602001908152602001600020600280602002604051908101604052809291906000905b8282101561123a5783826002020160405180604001604052908160008201548152602001600182015481525050815260200190600101906111fe565b50505050925060116000828152602001908152602001600020600280602002604051908101604052809291906000905b828210156112a657838260020201604051806040016040529081600082015481526020016001820154815250508152602001906001019061126a565b50505050915050915091565b60606000826040516020016112c79190615781565b604051602081830303815290604052805190602001209050601560008281526020019081526020016000208054600181600116156101000203166002900480601f0160208091040260200160405190810160405280929190818152602001828054600181600116156101000203166002900480156113865780601f1061135b57610100808354040283529160200191611386565b820191906000526020600020905b81548152906001019060200180831161136957829003601f168201915b5050505050915050919050565b600360009054906101000a900473ffffffffffffffffffffffffffffffffffffffff1673ffffffffffffffffffffffffffffffffffffffff163373ffffffffffffffffffffffffffffffffffffffff1614611423576040517f08c379a000000000000000000000000000000000000000000000000000000000815260040161141a90615621565b60405180910390fd5b8060008190555050565b600c5481565b60075481565b600360009054906101000a900473ffffffffffffffffffffffffffffffffffffffff1673ffffffffffffffffffffffffffffffffffffffff163373ffffffffffffffffffffffffffffffffffffffff16146114c9576040517f08c379a00000000000000000000000000000000000000000000000000000000081526004016114c090615521565b60405180910390fd5b80600360006101000a81548173ffffffffffffffffffffffffffffffffffffffff021916908373ffffffffffffffffffffffffffffffffffffffff16021790555050565b63ffffffff81565b60065481565b60055481565b60045481565b60005a905060008451905060608167ffffffffffffffff8111801561154b57600080fd5b5060405190808252806020026020018201604052801561158557816020015b611572612ec9565b81526020019060019003908161156a5790505b50905060608267ffffffffffffffff811180156115a157600080fd5b506040519080825280602002602001820160405280156115db57816020015b6115c8612ec9565b8152602001906001900390816115c05790505b50905082895114611621576040517f08c379a0000000000000000000000000000000000000000000000000000000008152600401611618906154a1565b60405180910390fd5b60005b8381101561190257600088828151811061163a57fe5b60200260200101516040516020016116529190615781565b60405160208183030381529060405280519060200120905061167381610b94565b6116b2576040517f08c379a00000000000000000000000000000000000000000000000000000000081526004016116a9906155e1565b60405180910390fd5b6116bb8161292a565b6116c3612e9c565b60116000838152602001908152602001600020600280602002604051908101604052809291906000905b828210156117295783826002020160405180604001604052908160008201548152602001600182015481525050815260200190600101906116ed565b5050505090506117668c848151811061173e57fe5b60200260200101518260006002811061175357fe5b6020020151611e4d90919063ffffffff16565b6011600084815260200190815260200160002060006002811061178557fe5b6002020160008201518160000155602082015181600101559050506117c48b826001600281106117b157fe5b6020020151611e4d90919063ffffffff16565b601160008481526020019081526020016000206001600281106117e357fe5b60020201600082015181600001556020820151816001015590505060106000838152602001908152602001600020600280602002604051908101604052809291906000905b82821015611864578382600202016040518060400160405290816000820154815260200160018201548152505081526020019060010190611828565b5050505090506118a18c848151811061187957fe5b60200260200101518260006002811061188e57fe5b6020020151611e4d90919063ffffffff16565b8584815181106118ad57fe5b60200260200101819052506118dc8b826001600281106118c957fe5b6020020151611e4d90919063ffffffff16565b8484815181106118e857fe5b602002602001018190525050508080600101915050611624565b506000866040516020016119169190615781565b60405160208183030381529060405280519060200120905060005b6013805490508110156119a557816013828154811061194c57fe5b90600052602060002001541415611998576040517f08c379a000000000000000000000000000000000000000000000000000000000815260040161198f90615761565b60405180910390fd5b8080600101915050611931565b5060138190806001815401808255809150506001900390600052602060002001600090919091909150556119d7612f16565b600860009054906101000a900473ffffffffffffffffffffffffffffffffffffffff1673ffffffffffffffffffffffffffffffffffffffff16639471ac0a85858e8e8e6014548f6040518863ffffffff1660e01b8152600401611a409796959493929190615396565b60006040518083038186803b158015611a5857600080fd5b505afa158015611a6c573d6000803e3d6000fd5b505050506040513d6000823e3d601f19601f82011682018060405250810190611a95919061400a565b9050611a9f612f5f565b600860009054906101000a900473ffffffffffffffffffffffffffffffffffffffff1673ffffffffffffffffffffffffffffffffffffffff1663f98f0cc9896040518263ffffffff1660e01b8152600401611afa919061543d565b60006040518083038186803b158015611b1257600080fd5b505afa158015611b26573d6000803e3d6000fd5b505050506040513d6000823e3d601f19601f82011682018060405250810190611b4f9190613f9f565b9050600860009054906101000a900473ffffffffffffffffffffffffffffffffffffffff1673ffffffffffffffffffffffffffffffffffffffff1663a529878e83836040518363ffffffff1660e01b8152600401611bae929190615831565b60206040518083038186803b158015611bc657600080fd5b505afa158015611bda573d6000803e3d6000fd5b505050506040513d601f19601f82011682018060405250810190611bfe9190613d86565b611c3d576040517f08c379a0000000000000000000000000000000000000000000000000000000008152600401611c34906154c1565b60405180910390fd5b60005a8803905060003a600754600654840281611c5657fe5b040290506000811115611d1b5780341015611ca6576040517f08c379a0000000000000000000000000000000000000000000000000000000008152600401611c9d90615561565b60405180910390fd5b600360009054906101000a900473ffffffffffffffffffffffffffffffffffffffff1673ffffffffffffffffffffffffffffffffffffffff166108fc829081150290604051600060405180830381858888f19350505050158015611d0e573d6000803e3d6000fd5b5080600d5401600d819055505b3373ffffffffffffffffffffffffffffffffffffffff166108fc8234039081150290604051600060405180830381858888f19350505050158015611d63573d6000803e3d6000fd5b507f9b814ae8a45a4c40d4c60ffa92e0c4b76dec41407cb28b43df9daffa3685f9ac8c604051611d939190615374565b60405180910390a15050505050505050505050505050565b600360009054906101000a900473ffffffffffffffffffffffffffffffffffffffff1673ffffffffffffffffffffffffffffffffffffffff163373ffffffffffffffffffffffffffffffffffffffff1614611e3b576040517f08c379a0000000000000000000000000000000000000000000000000000000008152600401611e32906156a1565b60405180910390fd5b81600481905550806005819055505050565b611e55612ec9565b6040518351815260208401516020820152825160408201526020830151606082015260408260808360065afa611e8a57600080fd5b5092915050565b63ffffffff8211158015611ead575063ffffffff82600a540111155b611eec576040517f08c379a0000000000000000000000000000000000000000000000000000000008152600401611ee3906154e1565b60405180910390fd5b81600a6000828254019250508190555081600e600082825401925050819055506001600f60008282540192505081905550600083604051602001611f309190615781565b604051602081830303815290604052805190602001209050611f5181610b94565b611f90576040517f08c379a0000000000000000000000000000000000000000000000000000000008152600401611f8790615581565b60405180910390fd5b611f998161292a565b611fa1612ec9565b60116000838152602001908152602001600020600060028110611fc057fe5b6002020160405180604001604052908160008201548152602001600182015481525050905061201161200285611ff461288f565b61285690919063ffffffff16565b82611e4d90919063ffffffff16565b9050806011600084815260200190815260200160002060006002811061203357fe5b6002020160008201518160000155602082015181600101559050508260156000848152602001908152602001600020908051906020019061207592919061303f565b505050505050565b600081600011158015612094575063ffffffff8211155b6120d3576040517f08c379a00000000000000000000000000000000000000000000000000000000081526004016120ca90615701565b60405180910390fd5b60005482029050919050565b612162846323b872dd60e01b85858560405160240161210093929190615291565b604051602081830303815290604052907bffffffffffffffffffffffffffffffffffffffffffffffffffffffff19166020820180517bffffffffffffffffffffffffffffffffffffffffffffffffffffffff8381831617835250505050612c2e565b50505050565b83600a5410156121ad576040517f08c379a00000000000000000000000000000000000000000000000000000000081526004016121a490615481565b60405180910390fd5b83600a600082825403925050819055506000856040516020016121d09190615781565b6040516020818303038152906040528051906020012090506121f181610b94565b612230576040517f08c379a0000000000000000000000000000000000000000000000000000000008152600401612227906155c1565b60405180910390fd5b6122398161292a565b612241612e9c565b60116000838152602001908152602001600020600280602002604051908101604052809291906000905b828210156122a757838260020201604051806040016040529081600082015481526020016001820154815250508152602001906001019061226b565b5050505090506122f26122d26122bc8861282a565b6122c461288f565b61285690919063ffffffff16565b826000600281106122df57fe5b6020020151611e4d90919063ffffffff16565b6011600084815260200190815260200160002060006002811061231157fe5b60020201600082015181600001556020820151816001015590505060106000838152602001908152602001600020600280602002604051908101604052809291906000905b82821015612392578382600202016040518060400160405290816000820154815260200160018201548152505081526020019060010190612356565b5050505090506123dd6123bd6123a78861282a565b6123af61288f565b61285690919063ffffffff16565b826000600281106123ca57fe5b6020020151611e4d90919063ffffffff16565b816000600281106123ea57fe5b60200201819052506000856040516020016124059190615781565b60405160208183030381529060405280519060200120905060005b60138054905081101561249457816013828154811061243b57fe5b90600052602060002001541415612487576040517f08c379a000000000000000000000000000000000000000000000000000000000815260040161247e90615721565b60405180910390fd5b8080600101915050612420565b506013819080600181540180825580915050600190039060005260206000200160009091909190915055836015600085815260200190815260200160002090805190602001906124e592919061303f565b506124ee6130bf565b600960009054906101000a900473ffffffffffffffffffffffffffffffffffffffff1673ffffffffffffffffffffffffffffffffffffffff1663bba28e3c8460006002811061253957fe5b60200201518560016002811061254b57fe5b60200201518c6014548c336040518763ffffffff1660e01b81526004016125779695949392919061579c565b6101406040518083038186803b15801561259057600080fd5b505afa1580156125a4573d6000803e3d6000fd5b505050506040513d601f19601f820116820180604052508101906125c89190613fe0565b90506125d2613123565b600960009054906101000a900473ffffffffffffffffffffffffffffffffffffffff1673ffffffffffffffffffffffffffffffffffffffff1663f98f0cc9886040518263ffffffff1660e01b815260040161262d919061543d565b60006040518083038186803b15801561264557600080fd5b505afa158015612659573d6000803e3d6000fd5b505050506040513d6000823e3d601f19601f820116820180604052508101906126829190613f5e565b9050600960009054906101000a900473ffffffffffffffffffffffffffffffffffffffff1673ffffffffffffffffffffffffffffffffffffffff1663d039751f83836040518363ffffffff1660e01b81526004016126e19291906157ff565b60206040518083038186803b1580156126f957600080fd5b505afa15801561270d573d6000803e3d6000fd5b505050506040513d601f19601f820116820180604052508101906127319190613d86565b612770576040517f08c379a000000000000000000000000000000000000000000000000000000000815260040161276790615641565b60405180910390fd5b50505050505050505050565b6127fd8363a9059cbb60e01b848460405160240161279b9291906152ff565b604051602081830303815290604052907bffffffffffffffffffffffffffffffffffffffffffffffffffffffff19166020820180517bffffffffffffffffffffffffffffffffffffffffffffffffffffffff8381831617835250505050612c2e565b505050565b600081600001518360000151148015612822575081602001518360200151145b905092915050565b6000817f30644e72e131a029b85045b68181585d2833e84879b9709143e1f593f0000001039050919050565b61285e612ec9565b604051835181526020840151602082015282604082015260408260608360075afa61288857600080fd5b5092915050565b612897612ec9565b60405180604001604052807f077da99d806abd13c9f15ece5398525119d11e11e9836b2ee7d23f6159ad87d460001b81526020017f01485efa927f2ad41bff567eec88f32fb0a0f706588b4e41a8d587d008b7f87560001b815250905090565b60007f30644e72e131a029b85045b68181585d2833e84879b9709143e1f593f0000001828161292257fe5b069050919050565b600080600254141561294957600154438161294157fe5b0490506129a3565b6001600254141561296757600154428161295f57fe5b0490506129a2565b6040517f08c379a000000000000000000000000000000000000000000000000000000000815260040161299990615681565b60405180910390fd5b5b8060126000848152602001908152602001600020541015612c0a576129c6612ee9565b604051806040016040528060106000868152602001908152602001600020600280602002604051908101604052809291906000905b82821015612a375783826002020160405180604001604052908160008201548152602001600182015481525050815260200190600101906129fb565b50505050815260200160116000868152602001908152602001600020600280602002604051908101604052809291906000905b82821015612aa6578382600202016040518060400160405290816000820154815260200160018201548152505081526020019060010190612a6a565b505050508152509050612b0681600160028110612abf57fe5b6020020151600060028110612ad057fe5b602002015182600060028110612ae257fe5b6020020151600060028110612af357fe5b6020020151611e4d90919063ffffffff16565b60106000858152602001908152602001600020600060028110612b2557fe5b600202016000820151816000015560208201518160010155905050612b9781600160028110612b5057fe5b6020020151600160028110612b6157fe5b602002015182600060028110612b7357fe5b6020020151600160028110612b8457fe5b6020020151611e4d90919063ffffffff16565b60106000858152602001908152602001600020600160028110612bb657fe5b600202016000820151816000015560208201518160010155905050601160008481526020019081526020016000206000612bf0919061318e565b816012600085815260200190815260200160002081905550505b806014541015612c2a578060148190555060136000612c2991906131b9565b5b5050565b6060612c90826040518060400160405280602081526020017f5361666545524332303a206c6f772d6c6576656c2063616c6c206661696c65648152508573ffffffffffffffffffffffffffffffffffffffff16612cf59092919063ffffffff16565b9050600081511115612cf05780806020019051810190612cb09190613d86565b612cef576040517f08c379a0000000000000000000000000000000000000000000000000000000008152600401612ce690615741565b60405180910390fd5b5b505050565b6060612d048484600085612d0d565b90509392505050565b606082471015612d52576040517f08c379a0000000000000000000000000000000000000000000000000000000008152600401612d49906155a1565b60405180910390fd5b612d5b85612e22565b612d9a576040517f08c379a0000000000000000000000000000000000000000000000000000000008152600401612d91906156e1565b60405180910390fd5b600060608673ffffffffffffffffffffffffffffffffffffffff168587604051612dc4919061525f565b60006040518083038185875af1925050503d8060008114612e01576040519150601f19603f3d011682016040523d82523d6000602084013e612e06565b606091505b5091509150612e16828286612e35565b92505050949350505050565b600080823b905060008111915050919050565b60608315612e4557829050612e95565b600083511115612e585782518084602001fd5b816040517f08c379a0000000000000000000000000000000000000000000000000000000008152600401612e8c919061545f565b60405180910390fd5b9392505050565b60405180604001604052806002905b612eb3612ec9565b815260200190600190039081612eab5790505090565b604051806040016040528060008019168152602001600080191681525090565b60405180604001604052806002905b612f00612e9c565b815260200190600190039081612ef85790505090565b6040518060e00160405280606081526020016060815260200160608152602001612f3e612ec9565b81526020016060815260200160008152602001612f59612ec9565b81525090565b604051806103200160405280612f73612ec9565b8152602001612f80612ec9565b8152602001612f8d612ec9565b8152602001612f9a612ec9565b8152602001606081526020016060815260200160608152602001606081526020016060815260200160608152602001606081526020016060815260200160608152602001600081526020016000815260200160008152602001612ffb612e9c565b8152602001600081526020016000815260200160008152602001600081526020016000815260200160008152602001600081526020016130396131da565b81525090565b828054600181600116156101000203166002900490600052602060002090601f016020900481019282601f1061308057805160ff19168380011785556130ae565b828001600101855582156130ae579182015b828111156130ad578251825591602001919060010190613092565b5b5090506130bb9190613202565b5090565b6040518060c001604052806130d2612ec9565b81526020016130df612ec9565b81526020016130ec612ec9565b815260200160008152602001613100612ec9565b8152602001600073ffffffffffffffffffffffffffffffffffffffff1681525090565b604051806101400160405280613137612ec9565b8152602001613144612ec9565b8152602001613151612e9c565b81526020016000815260200160008152602001600081526020016000815260200160008152602001600081526020016131886131da565b81525090565b5060008082016000905560018201600090555060020160008082016000905560018201600090555050565b50805460008255906000526020600020908101906131d7919061321f565b50565b6040518060800160405280606081526020016060815260200160008152602001600081525090565b5b8082111561321b576000816000905550600101613203565b5090565b5b80821115613238576000816000905550600101613220565b5090565b60008151905061324b81615b72565b92915050565b60008135905061326081615b89565b92915050565b600082601f83011261327757600080fd5b600261328a613285826158b0565b615883565b915081838560408402820111156132a057600080fd5b60005b838110156132d057816132b68882613542565b8452602084019350604083019250506001810190506132a3565b5050505092915050565b600082601f8301126132eb57600080fd5b81356132fe6132f9826158d2565b615883565b9150818183526020840193506020810190508385604084028201111561332357600080fd5b60005b83811015613353578161333988826134f6565b845260208401935060408301925050600181019050613326565b5050505092915050565b600082601f83011261336e57600080fd5b815161338161337c826158d2565b615883565b915081818352602084019350602081019050838560408402820111156133a657600080fd5b60005b838110156133d657816133bc8882613542565b8452602084019350604083019250506001810190506133a9565b5050505092915050565b600082601f8301126133f157600080fd5b81516134046133ff826158fa565b615883565b9150818183526020840193506020810190508385602084028201111561342957600080fd5b60005b83811015613459578161343f8882613c35565b84526020840193506020830192505060018101905061342c565b5050505092915050565b60008151905061347281615ba0565b92915050565b60008135905061348781615bb7565b92915050565b60008151905061349c81615bb7565b92915050565b600082601f8301126134b357600080fd5b81356134c66134c182615922565b615883565b915080825260208301602083018583830111156134e257600080fd5b6134ed838284615b1f565b50505092915050565b60006040828403121561350857600080fd5b6135126040615883565b9050600061352284828501613478565b600083015250602061353684828501613478565b60208301525092915050565b60006040828403121561355457600080fd5b61355e6040615883565b9050600061356e8482850161348d565b60008301525060206135828482850161348d565b60208301525092915050565b6000608082840312156135a057600080fd5b6135aa6080615883565b9050600082015167ffffffffffffffff8111156135c657600080fd5b6135d28482850161335d565b600083015250602082015167ffffffffffffffff8111156135f257600080fd5b6135fe8482850161335d565b602083015250604061361284828501613c35565b604083015250606061362684828501613c35565b60608301525092915050565b60006101e0828403121561364557600080fd5b613650610140615883565b9050600061366084828501613542565b600083015250604061367484828501613542565b602083015250608061368884828501613266565b60408301525061010061369d84828501613c35565b6060830152506101206136b284828501613c35565b6080830152506101406136c784828501613c35565b60a0830152506101606136dc84828501613c35565b60c0830152506101806136f184828501613c35565b60e0830152506101a061370684828501613c35565b610100830152506101c082015167ffffffffffffffff81111561372857600080fd5b6137348482850161358e565b6101208301525092915050565b6000610400828403121561375457600080fd5b61375f610320615883565b9050600061376f84828501613542565b600083015250604061378384828501613542565b602083015250608061379784828501613542565b60408301525060c06137ab84828501613542565b60608301525061010082015167ffffffffffffffff8111156137cc57600080fd5b6137d88482850161335d565b60808301525061012082015167ffffffffffffffff8111156137f957600080fd5b6138058482850161335d565b60a08301525061014082015167ffffffffffffffff81111561382657600080fd5b6138328482850161335d565b60c08301525061016082015167ffffffffffffffff81111561385357600080fd5b61385f8482850161335d565b60e08301525061018082015167ffffffffffffffff81111561388057600080fd5b61388c8482850161335d565b610100830152506101a082015167ffffffffffffffff8111156138ae57600080fd5b6138ba8482850161335d565b610120830152506101c082015167ffffffffffffffff8111156138dc57600080fd5b6138e88482850161335d565b610140830152506101e082015167ffffffffffffffff81111561390a57600080fd5b6139168482850161335d565b6101608301525061020082015167ffffffffffffffff81111561393857600080fd5b613944848285016133e0565b6101808301525061022061395a84828501613c35565b6101a08301525061024061397084828501613c35565b6101c08301525061026061398684828501613c35565b6101e08301525061028061399c84828501613266565b610200830152506103006139b284828501613c35565b610220830152506103206139c884828501613c35565b610240830152506103406139de84828501613c35565b610260830152506103606139f484828501613c35565b61028083015250610380613a0a84828501613c35565b6102a0830152506103a0613a2084828501613c35565b6102c0830152506103c0613a3684828501613c35565b6102e0830152506103e082015167ffffffffffffffff811115613a5857600080fd5b613a648482850161358e565b6103008301525092915050565b60006101408284031215613a8457600080fd5b613a8e60c0615883565b90506000613a9e84828501613542565b6000830152506040613ab284828501613542565b6020830152506080613ac684828501613542565b60408301525060c0613ada84828501613c35565b60608301525060e0613aee84828501613542565b608083015250610120613b038482850161323c565b60a08301525092915050565b60006101208284031215613b2257600080fd5b613b2c60e0615883565b9050600082015167ffffffffffffffff811115613b4857600080fd5b613b548482850161335d565b600083015250602082015167ffffffffffffffff811115613b7457600080fd5b613b808482850161335d565b602083015250604082015167ffffffffffffffff811115613ba057600080fd5b613bac8482850161335d565b6040830152506060613bc084828501613542565b60608301525060a082015167ffffffffffffffff811115613be057600080fd5b613bec8482850161335d565b60808301525060c0613c0084828501613c35565b60a08301525060e0613c1484828501613542565b60c08301525092915050565b600081359050613c2f81615bce565b92915050565b600081519050613c4481615bce565b92915050565b600060208284031215613c5c57600080fd5b6000613c6a84828501613251565b91505092915050565b600080600080600060e08688031215613c8b57600080fd5b600086013567ffffffffffffffff811115613ca557600080fd5b613cb1888289016132da565b9550506020613cc2888289016134f6565b945050606086013567ffffffffffffffff811115613cdf57600080fd5b613ceb888289016132da565b9350506080613cfc888289016134f6565b92505060c086013567ffffffffffffffff811115613d1957600080fd5b613d25888289016134a2565b9150509295509295909350565b60008060408385031215613d4557600080fd5b600083013567ffffffffffffffff811115613d5f57600080fd5b613d6b858286016132da565b9250506020613d7c85828601613c20565b9150509250929050565b600060208284031215613d9857600080fd5b6000613da684828501613463565b91505092915050565b600060208284031215613dc157600080fd5b6000613dcf84828501613478565b91505092915050565b600060408284031215613dea57600080fd5b6000613df8848285016134f6565b91505092915050565b600080600060808486031215613e1657600080fd5b6000613e24868287016134f6565b9350506040613e3586828701613c20565b925050606084013567ffffffffffffffff811115613e5257600080fd5b613e5e868287016134a2565b9150509250925092565b600080600080600060e08688031215613e8057600080fd5b6000613e8e888289016134f6565b9550506040613e9f88828901613c20565b9450506060613eb0888289016134f6565b93505060a086013567ffffffffffffffff811115613ecd57600080fd5b613ed9888289016134a2565b92505060c086013567ffffffffffffffff811115613ef657600080fd5b613f02888289016134a2565b9150509295509295909350565b600080600060808486031215613f2457600080fd5b6000613f32868287016134f6565b9350506040613f4386828701613c20565b9250506060613f5486828701613c20565b9150509250925092565b600060208284031215613f7057600080fd5b600082015167ffffffffffffffff811115613f8a57600080fd5b613f9684828501613632565b91505092915050565b600060208284031215613fb157600080fd5b600082015167ffffffffffffffff811115613fcb57600080fd5b613fd784828501613741565b91505092915050565b60006101408284031215613ff357600080fd5b600061400184828501613a71565b91505092915050565b60006020828403121561401c57600080fd5b600082015167ffffffffffffffff81111561403657600080fd5b61404284828501613b0f565b91505092915050565b60006020828403121561405d57600080fd5b600061406b84828501613c20565b91505092915050565b6000806040838503121561408757600080fd5b600061409585828601613c20565b92505060206140a685828601613c20565b9150509250929050565b60006140bc8383614192565b60808301905092915050565b60006140d48383614d13565b60408301905092915050565b60006140ec8383615241565b60208301905092915050565b61410181615ae9565b82525050565b61411081615a97565b82525050565b61411f81615a85565b82525050565b61412e81615a85565b82525050565b600061413f82615988565b61414981856159fe565b93506141548361594e565b8060005b8381101561418557815161416c88826140b0565b9750614177836159ca565b925050600181019050614158565b5085935050505092915050565b61419b81615993565b6141a58184615a0f565b92506141b08261595e565b8060005b838110156141e15781516141c887826140c8565b96506141d3836159d7565b9250506001810190506141b4565b505050505050565b6141f281615993565b6141fc8184615a1a565b92506142078261595e565b8060005b8381101561423857815161421f87826140c8565b965061422a836159d7565b92505060018101905061420b565b505050505050565b600061424b8261599e565b6142558185615a25565b935061426083615968565b8060005b8381101561429157815161427888826140c8565b9750614283836159e4565b925050600181019050614264565b5085935050505092915050565b60006142a98261599e565b6142b38185615a36565b93506142be83615968565b8060005b838110156142ef5781516142d688826140c8565b97506142e1836159e4565b9250506001810190506142c2565b5085935050505092915050565b6000614307826159a9565b6143118185615a47565b935061431c83615978565b8060005b8381101561434d57815161433488826140e0565b975061433f836159f1565b925050600181019050614320565b5085935050505092915050565b61436381615aa9565b82525050565b61437281615ab5565b82525050565b6000614383826159b4565b61438d8185615a58565b935061439d818560208601615b2e565b6143a681615b61565b840191505092915050565b60006143bc826159b4565b6143c68185615a69565b93506143d6818560208601615b2e565b80840191505092915050565b60006143ed826159bf565b6143f78185615a74565b9350614407818560208601615b2e565b61441081615b61565b840191505092915050565b6000614428602c83615a74565b91507f5b52617a652072656465656d5d204661696c65643a20496e76616c696420726560008301527f6465656d20616d6f756e742e00000000000000000000000000000000000000006020830152604082019050919050565b600061448e602c83615a74565b91507f5b52617a65207472616e736665725d20496e707574206172726179206c656e6760008301527f7468206d69736d617463682100000000000000000000000000000000000000006020830152604082019050919050565b60006144f4602483615a74565b91507f5b52617a65207472616e736665725d204661696c65643a20766572696669636160008301527f74696f6e000000000000000000000000000000000000000000000000000000006020830152604082019050919050565b600061455a603483615a74565b91507f5b52617a65206d696e745d204d696e742070757368657320636f6e747261637460008301527f2070617374206d6178696d756d2076616c75652e0000000000000000000000006020830152604082019050919050565b60006145c0603483615a74565b91507f5065726d697373696f6e2064656e6965643a204f6e6c792061646d696e20636160008301527f6e206368616e676520726f756e6420626173652e0000000000000000000000006020830152604082019050919050565b6000614626603083615a74565b91507f5065726d697373696f6e2064656e6965643a204f6e6c792061646d696e20636160008301527f6e206368616e6765206167656e63792e000000000000000000000000000000006020830152604082019050919050565b600061468c601b83615a74565b91507f4163636f756e7420616c726561647920726567697374657265642100000000006000830152602082019050919050565b60006146cc604283615a74565b91507f5b52617a65207472616e736665725d204e6f7420656e6f75676820666565207360008301527f656e74207769746820746865207472616e73666572207472616e73616374696f60208301527f6e2e0000000000000000000000000000000000000000000000000000000000006040830152606082019050919050565b6000614758602783615a74565b91507f5b52617a65206d696e745d204163636f756e74206e6f7420796574207265676960008301527f7374657265642e000000000000000000000000000000000000000000000000006020830152604082019050919050565b60006147be602683615a74565b91507f416464726573733a20696e73756666696369656e742062616c616e636520666f60008301527f722063616c6c00000000000000000000000000000000000000000000000000006020830152604082019050919050565b6000614824602983615a74565b91507f5b52617a652072656465656d5d204163636f756e74206e6f742079657420726560008301527f67697374657265642e00000000000000000000000000000000000000000000006020830152604082019050919050565b600061488a602b83615a74565b91507f5b52617a65207472616e736665725d204163636f756e74206e6f74207965742060008301527f726567697374657265642e0000000000000000000000000000000000000000006020830152604082019050919050565b60006148f0601f83615a74565b91507f496e76616c696420726567697374726174696f6e207369676e617475726521006000830152602082019050919050565b6000614930602e83615a74565b91507f5065726d697373696f6e2064656e6965643a204f6e6c792061646d696e20636160008301527f6e206368616e676520756e69742e0000000000000000000000000000000000006020830152604082019050919050565b6000614996602383615a74565b91507f5b52617a652072656465656d5d204661696c65643a207665726966696361746960008301527f6f6e2100000000000000000000000000000000000000000000000000000000006020830152604082019050919050565b60006149fc603f83615a74565b91507f5065726d697373696f6e2064656e6965643a204f6e6c792061646d696e20636160008301527f6e206368616e6765207472616e73666572206665652073747261746567792e006020830152604082019050919050565b6000614a62601383615a74565b91507f496e76616c696420726f756e6420626173652e000000000000000000000000006000830152602082019050919050565b6000614aa2603d83615a74565b91507f5065726d697373696f6e2064656e6965643a204f6e6c792061646d696e20636160008301527f6e206368616e67652072656465656d206665652073747261746567792e0000006020830152604082019050919050565b6000614b08603683615a74565b91507f5065726d697373696f6e2064656e6965643a204f6e6c792061646d696e20636160008301527f6e206368616e676520726f756e64206c656e6774682e000000000000000000006020830152604082019050919050565b6000614b6e601d83615a74565b91507f416464726573733a2063616c6c20746f206e6f6e2d636f6e74726163740000006000830152602082019050919050565b6000614bae601383615a74565b91507f416d6f756e74206f7574206f662072616e6765000000000000000000000000006000830152602082019050919050565b6000614bee602183615a74565b91507f5b52617a652072656465656d5d204e6f6e636520616c7265616479207365656e60008301527f21000000000000000000000000000000000000000000000000000000000000006020830152604082019050919050565b6000614c54602a83615a74565b91507f5361666545524332303a204552433230206f7065726174696f6e20646964206e60008301527f6f742073756363656564000000000000000000000000000000000000000000006020830152604082019050919050565b6000614cba602383615a74565b91507f5b52617a65207472616e736665725d204e6f6e636520616c726561647920736560008301527f656e2100000000000000000000000000000000000000000000000000000000006020830152604082019050919050565b604082016000820151614d296000850182614369565b506020820151614d3c6020850182614369565b50505050565b604082016000820151614d586000850182614369565b506020820151614d6b6020850182614369565b50505050565b60006080830160008301518482036000860152614d8e8282614240565b91505060208301518482036020860152614da88282614240565b9150506040830151614dbd6040860182615241565b506060830151614dd06060860182615241565b508091505092915050565b60006101e083016000830151614df46000860182614d13565b506020830151614e076040860182614d13565b506040830151614e1a6080860182614192565b506060830151614e2e610100860182615241565b506080830151614e42610120860182615241565b5060a0830151614e56610140860182615241565b5060c0830151614e6a610160860182615241565b5060e0830151614e7e610180860182615241565b50610100830151614e936101a0860182615241565b506101208301518482036101c0860152614ead8282614d71565b9150508091505092915050565b600061040083016000830151614ed36000860182614d13565b506020830151614ee66040860182614d13565b506040830151614ef96080860182614d13565b506060830151614f0c60c0860182614d13565b506080830151848203610100860152614f258282614240565b91505060a0830151848203610120860152614f408282614240565b91505060c0830151848203610140860152614f5b8282614240565b91505060e0830151848203610160860152614f768282614240565b915050610100830151848203610180860152614f928282614240565b9150506101208301518482036101a0860152614fae8282614240565b9150506101408301518482036101c0860152614fca8282614240565b9150506101608301518482036101e0860152614fe68282614240565b91505061018083015184820361020086015261500282826142fc565b9150506101a0830151615019610220860182615241565b506101c083015161502e610240860182615241565b506101e0830151615043610260860182615241565b50610200830151615058610280860182614192565b5061022083015161506d610300860182615241565b50610240830151615082610320860182615241565b50610260830151615097610340860182615241565b506102808301516150ac610360860182615241565b506102a08301516150c1610380860182615241565b506102c08301516150d66103a0860182615241565b506102e08301516150eb6103c0860182615241565b506103008301518482036103e08601526151058282614d71565b9150508091505092915050565b610140820160008201516151296000850182614d13565b50602082015161513c6040850182614d13565b50604082015161514f6080850182614d13565b50606082015161516260c0850182615241565b50608082015161517560e0850182614d13565b5060a0820151615189610120850182614116565b50505050565b60006101208301600083015184820360008601526151ad8282614240565b915050602083015184820360208601526151c78282614240565b915050604083015184820360408601526151e18282614240565b91505060608301516151f66060860182614d13565b50608083015184820360a086015261520e8282614240565b91505060a083015161522360c0860182615241565b5060c083015161523660e0860182614d13565b508091505092915050565b61524a81615adf565b82525050565b61525981615adf565b82525050565b600061526b82846143b1565b915081905092915050565b600060208201905061528b6000830184614107565b92915050565b60006060820190506152a66000830186614125565b6152b36020830185614125565b6152c06040830184615250565b949350505050565b600060a0820190506152dd6000830186614125565b6152ea6020830185614d42565b6152f76060830184614d42565b949350505050565b60006040820190506153146000830185614125565b6153216020830184615250565b9392505050565b600060208201905081810360008301526153428184614134565b905092915050565b60006101008201905061536060008301856141e9565b61536d60808301846141e9565b9392505050565b6000602082019050818103600083015261538e818461429e565b905092915050565b60006101208201905081810360008301526153b1818a61429e565b905081810360208301526153c5818961429e565b905081810360408301526153d9818861429e565b90506153e86060830187614d42565b81810360a08301526153fa818661429e565b905061540960c0830185615250565b61541660e0830184614d42565b98975050505050505050565b6000602082019050615437600083018461435a565b92915050565b600060208201905081810360008301526154578184614378565b905092915050565b6000602082019050818103600083015261547981846143e2565b905092915050565b6000602082019050818103600083015261549a8161441b565b9050919050565b600060208201905081810360008301526154ba81614481565b9050919050565b600060208201905081810360008301526154da816144e7565b9050919050565b600060208201905081810360008301526154fa8161454d565b9050919050565b6000602082019050818103600083015261551a816145b3565b9050919050565b6000602082019050818103600083015261553a81614619565b9050919050565b6000602082019050818103600083015261555a8161467f565b9050919050565b6000602082019050818103600083015261557a816146bf565b9050919050565b6000602082019050818103600083015261559a8161474b565b9050919050565b600060208201905081810360008301526155ba816147b1565b9050919050565b600060208201905081810360008301526155da81614817565b9050919050565b600060208201905081810360008301526155fa8161487d565b9050919050565b6000602082019050818103600083015261561a816148e3565b9050919050565b6000602082019050818103600083015261563a81614923565b9050919050565b6000602082019050818103600083015261565a81614989565b9050919050565b6000602082019050818103600083015261567a816149ef565b9050919050565b6000602082019050818103600083015261569a81614a55565b9050919050565b600060208201905081810360008301526156ba81614a95565b9050919050565b600060208201905081810360008301526156da81614afb565b9050919050565b600060208201905081810360008301526156fa81614b61565b9050919050565b6000602082019050818103600083015261571a81614ba1565b9050919050565b6000602082019050818103600083015261573a81614be1565b9050919050565b6000602082019050818103600083015261575a81614c47565b9050919050565b6000602082019050818103600083015261577a81614cad565b9050919050565b60006040820190506157966000830184614d42565b92915050565b6000610140820190506157b26000830189614d42565b6157bf6040830188614d42565b6157cc6080830187614d42565b6157d960c0830186615250565b6157e660e0830185614d42565b6157f46101208301846140f8565b979650505050505050565b6000610160820190506158156000830185615112565b8181036101408301526158288184614ddb565b90509392505050565b6000604082019050818103600083015261584b818561518f565b9050818103602083015261585f8184614eba565b90509392505050565b600060208201905061587d6000830184615250565b92915050565b6000604051905081810181811067ffffffffffffffff821117156158a657600080fd5b8060405250919050565b600067ffffffffffffffff8211156158c757600080fd5b602082029050919050565b600067ffffffffffffffff8211156158e957600080fd5b602082029050602081019050919050565b600067ffffffffffffffff82111561591157600080fd5b602082029050602081019050919050565b600067ffffffffffffffff82111561593957600080fd5b601f19601f8301169050602081019050919050565b6000819050602082019050919050565b6000819050919050565b6000819050602082019050919050565b6000819050602082019050919050565b600081519050919050565b600060029050919050565b600081519050919050565b600081519050919050565b600081519050919050565b600081519050919050565b6000602082019050919050565b6000602082019050919050565b6000602082019050919050565b6000602082019050919050565b600082825260208201905092915050565b600081905092915050565b600081905092915050565b600082825260208201905092915050565b600082825260208201905092915050565b600082825260208201905092915050565b600082825260208201905092915050565b600081905092915050565b600082825260208201905092915050565b6000615a9082615abf565b9050919050565b6000615aa282615abf565b9050919050565b60008115159050919050565b6000819050919050565b600073ffffffffffffffffffffffffffffffffffffffff82169050919050565b6000819050919050565b6000615af482615afb565b9050919050565b6000615b0682615b0d565b9050919050565b6000615b1882615abf565b9050919050565b82818337600083830152505050565b60005b83811015615b4c578082015181840152602081019050615b31565b83811115615b5b576000848401525b50505050565b6000601f19601f8301169050919050565b615b7b81615a85565b8114615b8657600080fd5b50565b615b9281615a97565b8114615b9d57600080fd5b50565b615ba981615aa9565b8114615bb457600080fd5b50565b615bc081615ab5565b8114615bcb57600080fd5b50565b615bd781615adf565b8114615be257600080fd5b5056fea26469706673582212205518d1ed4bf0d689cba722dedd6256ea1e6304f0414832a4ea74a51e278b948564736f6c634300060c0033",
  "immutableReferences": {},
  "source": "// SPDX-License-Identifier: MIT\npragma solidity ^0.6.0;\npragma experimental ABIEncoderV2;\n\nimport \"@openzeppelin/contracts/token/ERC20/SafeERC20.sol\";\nimport \"./Utils.sol\";\nimport \"./RazeBase.sol\";\n\n\ncontract RazeUSDT is RazeBase {\n    using SafeERC20 for IERC20;\n    IERC20 token;\n\n    constructor(address _token, address _transfer, address _redeem, uint256 _unit) RazeBase(_transfer, _redeem, _unit) public {\n        token = IERC20(_token);\n    }\n\n    function mint(Utils.G1Point memory y, uint256 unitAmount, bytes memory encGuess) public {\n        mintBase(y, unitAmount, encGuess);\n\n        uint256 nativeAmount = toNativeAmount(unitAmount);\n\n        // In order for the following to succeed, `msg.sender` have to first approve `this` to spend the nativeAmount.\n        token.safeTransferFrom(msg.sender, address(this), nativeAmount);\n    }\n\n    function redeem(Utils.G1Point memory y, uint256 unitAmount, Utils.G1Point memory u, bytes memory proof, bytes memory encGuess) public {\n        uint256 nativeAmount = toNativeAmount(unitAmount);\n        uint256 fee = nativeAmount * redeem_fee_numerator / redeem_fee_denominator; \n\n        redeemBase(y, unitAmount, u, proof, encGuess);\n\n        if (fee > 0) {\n            token.safeTransfer(raze_agency, fee);\n            redeem_fee_log = redeem_fee_log + fee;\n        }\n        token.safeTransfer(msg.sender, nativeAmount - fee);\n    }\n}\n\n\n",
  "sourcePath": "/Users/jinwan/Desktop/raze_frontend-master/contracts/RazeUSDT.sol",
  "compiler": {
    "name": "solc",
    "version": "0.6.12+commit.27d51765.Emscripten.clang"
  },
  "schemaVersion": "3.4.1",
  "updatedAt": "2021-06-15T11:39:00.267Z",
  "devdoc": {
    "kind": "dev",
    "methods": {},
    "version": 1
  },
  "userdoc": {
    "kind": "user",
    "methods": {
      "getBalance((bytes32,bytes32)[],uint256)": {
        "notice": "Get the current balances of accounts. If the given `round` is larger than the last roll over round, the returned balances will include pending transfers. "
      }
    },
    "version": 1
  }
}